:020000040001F9
:108000007021012075C801003BA8020061C8010071
:1080100061C8010061C8010061C8010061C80100B8
:1080200000000000000000000000000061CA010024
:1080300061C8010000000000E5C9010061C801003D
:1080400069CC010069CC010069CC010069CC010058
:1080500069CC010069CC010069CC010069CC010048
:1080600069CC010069CC010069CC010069CC010038
:1080700069CC010069CC010069CC010069CC010028
:1080800069CC010069CC010069CC010069CC010018
:1080900069CC010069CC010069CC010069CC010008
:1080A00069CC010069CC010069CC010069CC0100F8
:1080B00069CC010069CC010069CC010069CC0100E8
:1080C00069CC010069CC010069CC010069CC0100D8
:1080D00069CC010069CC010069CC010069CC0100C8
:1080E00069CC010069CC010069CC010069CC0100B8
:1080F00069CC010069CC010069CC010069CC0100A8
:1081000069CC010069CC010069CC010069CC010097
:1081100069CC010069CC010069CC010069CC010087
:1081200069CC010069CC010069CC010069CC010077
:1081300069CC010069CC010069CC010069CC010067
:1081400069CC0100FFFFFFFF81F0004102E000BFAA
:1081500083F0004330B54FEA41044FEA430594EA07
:10816000050F08BF90EA020F1FBF54EA000C55EA42
:10817000020C7FEA645C7FEA655C00F0E2804FEA13
:108180005454D4EB5555B8BF6D420CDD2C4480EAF5
:10819000020281EA030382EA000083EA010180EA25
:1081A000020281EA0303362D88BF30BD11F0004F73
:1081B0004FEA01314FF4801C4CEA113102D04042A9
:1081C00061EB410113F0004F4FEA03334CEA1333E4
:1081D00002D0524263EB430394EA050F00F0A780FC
:1081E000A4F10104D5F1200E0DDB02FA0EFC22FAF7
:1081F00005F2801841F1000103FA0EF2801843FAEB
:1082000005F359410EE0A5F120050EF1200E012ADB
:1082100003FA0EFC28BF4CF0020C43FA05F3C01819
:1082200051EBE37101F0004507D54FF0000EDCF192
:10823000000C7EEB00006EEB0101B1F5801F1BD33B
:10824000B1F5001F0CD349085FEA30004FEA3C0C3F
:1082500004F101044FEA445212F5800F80F09A8035
:10826000BCF1004F08BF5FEA500C50F1000041EB39
:10827000045141EA050130BD5FEA4C0C404141EB3D
:108280000101013C28BFB1F5801FE9D291F0000F38
:1082900004BF01460020B1FA81F308BF2033A3F1E7
:1082A0000B03B3F120020CDA0C3208DD02F1140CDE
:1082B000C2F10C0201FA0CF021FA02F10CE002F119
:1082C0001402D8BFC2F1200C01FA02F120FA0CFC12
:1082D000DCBF41EA0C019040E41AA2BF01EB04515B
:1082E000294330BD6FEA04041F3C1CDA0C340EDC59
:1082F00004F11404C4F1200220FA04F001FA02F39C
:1083000040EA030021FA04F345EA030130BDC4F159
:108310000C04C4F1200220FA02F001FA04F340EA4E
:108320000300294630BD21FA04F0294630BD94F0FF
:10833000000F83F4801306BF81F480110134013DE6
:108340004EE77FEA645C18BF7FEA655C29D094EA57
:10835000050F08BF90EA020F05D054EA000C04BFD5
:108360001946104630BD91EA030F1EBF00210020C0
:1083700030BD5FEA545C05D14000494128BF41F05F
:10838000004130BD14F580043CBF01F5801130BDC3
:1083900001F0004545F0FE4141F470014FF000004E
:1083A00030BD7FEA645C1ABF194610467FEA655CFF
:1083B0001CBF0B46024650EA013406BF52EA0335A1
:1083C00091EA030F41F4002130BD00BF90F0000F8F
:1083D00004BF0021704730B54FF4806404F13204CB
:1083E0004FF000054FF0000150E700BF90F0000F84
:1083F00004BF0021704730B54FF4806404F13204AB
:1084000010F0004548BF40424FF000013EE700BF7A
:1084100042004FEAE2014FEA31014FEA02701FBF0A
:1084200012F07F4393F07F4F81F06051704732F03C
:108430007F4208BF704793F07F4F04BF41F4002193
:10844000704730B54FF4607401F0004521F00041F1
:108450001CE700BF50EA010208BF704730B54FF07B
:1084600000050AE050EA010208BF704730B511F07C
:10847000004502D5404261EB41014FF4806404F1B4
:1084800032045FEA915C3FF4D8AE4FF003025FEA3A
:10849000DC0C18BF03325FEADC0C18BF033202EBBE
:1084A000DC02C2F1200300FA03FC20FA02F001FA18
:1084B00003FE40EA0E0021FA02F11444BDE600BFBB
:1084C00070B54FF0FF0C4CF4E06C1CEA11541DBF6A
:1084D0001CEA135594EA0C0F95EA0C0F00F0DEF835
:1084E0002C4481EA030621EA4C5123EA4C5350EA1A
:1084F000013518BF52EA033541F4801143F480136B
:1085000038D0A0FB02CE4FF00005E1FB02E506F0FB
:108510000042E0FB03E54FF00006E1FB03569CF050
:10852000000F18BF4EF0010EA4F1FF04B6F5007F56
:1085300064F5407404D25FEA4E0E6D4146EB0606C8
:1085400042EAC62141EA55514FEAC52040EA5E5051
:108550004FEACE2EB4F1FD0C88BFBCF5E06F1ED8FB
:10856000BEF1004F08BF5FEA500E50F1000041EB32
:10857000045170BD06F0004646EA010140EA0200DF
:1085800081EA0301B4EB5C04C2BFD4EB0C0541EA01
:10859000045170BD41F480114FF0000E013C00F316
:1085A000AB8014F1360FDEBF002001F0004170BD3A
:1085B000C4F10004203C35DA0C341BDC04F1140453
:1085C000C4F1200500FA05F320FA04F001FA05F2DF
:1085D00040EA020001F0004221F0004110EBD370AC
:1085E00021FA04F642EB06015EEA430E08BF20EAD8
:1085F000D37070BDC4F10C04C4F1200500FA04F37B
:1086000020FA05F001FA04F240EA020001F000410C
:1086100010EBD37041F100015EEA430E08BF20EA7F
:10862000D37070BDC4F1200500FA05F24EEA020EC7
:1086300020FA04F301FA05F243EA020321FA04F0F6
:1086400001F0004121FA04F220EA020000EBD370AD
:108650005EEA430E08BF20EAD37070BD94F0000FAD
:108660000FD101F00046400041EB010111F4801FE1
:1086700008BF013CF7D041EA060195F0000F18BF92
:10868000704703F00046520043EB030313F4801FCE
:1086900008BF013DF7D043EA0603704794EA0C0F88
:1086A0000CEA135518BF95EA0C0F0CD050EA41069E
:1086B00018BF52EA4306D1D181EA030101F000411B
:1086C0004FF0000070BD50EA410606BF1046194643
:1086D00052EA430619D094EA0C0F02D150EA01364F
:1086E00013D195EA0C0F05D152EA03361CBF104690
:1086F00019460AD181EA030101F0004141F0FE412F
:1087000041F470014FF0000070BD41F0FE4141F4B2
:10871000780170BD70B54FF0FF0C4CF4E06C1CEAB2
:1087200011541DBF1CEA135594EA0C0F95EA0C0F67
:1087300000F0A7F8A4EB050481EA030E52EA033522
:108740004FEA013100F088804FEA03334FF0805543
:1087500045EA131343EA12634FEA022245EA111570
:1087600045EA10654FEA00260EF000419D4208BF21
:10877000964244F1FD0404F5407402D25B084FEACE
:108780003202B61A65EB03055B084FEA32024FF47A
:1087900080104FF4002CB6EB020E75EB030E22BFD7
:1087A000B61A754640EA0C005B084FEA3202B6EB97
:1087B000020E75EB030E22BFB61A754640EA5C0046
:1087C0005B084FEA3202B6EB020E75EB030E22BFD6
:1087D000B61A754640EA9C005B084FEA3202B6EBD7
:1087E000020E75EB030E22BFB61A754640EADC0096
:1087F00055EA060E18D04FEA051545EA16754FEAF8
:1088000006164FEAC30343EA52734FEAC2025FEA15
:108810001C1CC0D111F4801F0BD141EA00014FF0A4
:1088200000004FF0004CB6E711F4801F04BF014375
:108830000020B4F1FD0C88BFBCF5E06F3FF6AFAE91
:10884000B5EB030C04BFB6EB020C5FEA500C50F121
:10885000000041EB045170BD0EF0004E4EEA1131A4
:1088600014EB5C04C2BFD4EB0C0541EA045170BDAB
:1088700041F480114FF0000E013C90E645EA060EEF
:108880008DE60CEA135594EA0C0F08BF95EA0C0F1D
:108890003FF43BAF94EA0C0F0AD150EA01347FF465
:1088A00034AF95EA0C0F7FF425AF104619462CE73C
:1088B00095EA0C0F06D152EA03353FF4FDAE10469F
:1088C000194622E750EA410618BF52EA43067FF4F0
:1088D000C5AE50EA41047FF40DAF52EA43057FF480
:1088E000EBAE12E74FEA4102B2F1E04324BFB3F529
:1088F000001CDCF1FE5C0DD901F0004C4FEAC00217
:108900004CEA5070B2F1004F40EB830008BF20F0FA
:108910000100704711F0804F21D113F13872BCBFB4
:1089200001F00040704741F480114FEA5252C2F109
:108930001802C2F1200C10FA0CF320FA02F018BF52
:1089400040F001004FEAC1234FEAD32303FA0CFCA5
:1089500040EA0C0023FA02F34FEA4303CCE77FEA34
:10896000625307D150EA01331EBF4FF0FE4040F47E
:108970004000704701F0004040F0FE4040F400002D
:10898000704700BF7BB972B90029BEBF00204FF00D
:10899000004106E008BF00281CBF6FF000414FF007
:1089A000FF3000F057B8ADF1080C6DE904CE002996
:1089B00009DB002B1ADB00F015F9DDF804E0DDE936
:1089C000022304B07047404261EB4101002B1BDBE6
:1089D00000F008F9DDF804E0DDE9022304B04042CC
:1089E00061EB4101524263EB43037047524263EB38
:1089F000430300F0F7F8DDF804E0DDE9022304B0FA
:108A0000404261EB41017047524263EB430300F087
:108A1000E9F8DDF804E0DDE9022304B0524263EB3B
:108A20004303704753B94AB9002908BF00281CBF47
:108A30004FF0FF314FF0FF3000F00CB8ADF1080CF3
:108A40006DE904CE00F0CEF8DDF804E0DDE90223A4
:108A500004B07047704700BF4FF0FF3C06E000BF16
:108A60004FF0010C02E000BF4FF0010C4DF804CDB7
:108A70004FEA410C7FEA6C5C4FEA430C18BF7FEA77
:108A80006C5C1BD001B050EA410C0CBF52EA430CA5
:108A900091EA030F02BF90EA020F0020704710F125
:108AA000000F91EA030F58BF994208BF90422CBFB4
:108AB000D8176FEAE37040F0010070474FEA410CAD
:108AC0007FEA6C5C02D150EA013C07D14FEA430CCB
:108AD0007FEA6C5CD6D152EA033CD3D05DF8040B3C
:108AE000704700BF8446104662468C46194663466E
:108AF00000E000BF01B5FFF7B7FF002848BF10F145
:108B0000000F01BD4DF808EDFFF7F4FF0CBF012089
:108B100000205DF808FB00BF4DF808EDFFF7EAFF05
:108B200034BF012000205DF808FB00BF4DF808EDC0
:108B3000FFF7E0FF94BF012000205DF808FB00BFB5
:108B40004DF808EDFFF7CEFF94BF012000205DF83F
:108B500008FB00BF4DF808EDFFF7C4FF34BF01204C
:108B600000205DF808FB00BF4FEA410C7FEA6C5C17
:108B700002D150EA013C0AD14FEA430C7FEA6C5C17
:108B800002D152EA033C02D14FF0000070474FF08F
:108B9000010070474FEA410212F5001215D211D5BB
:108BA0006FF47873B3EB625212D94FEAC12343F0EA
:108BB000004343EA505311F0004F23FA02F018BF6C
:108BC000404270474FF00000704750EA013005D135
:108BD00011F0004008BF6FF0004070474FF00000F8
:108BE000704700BF2DE9F04786468C460846089E30
:108BF000154674461946002B40F0C1808542B2FAF2
:108C000082F245D94AB1C2F1200300FA02FC954034
:108C100094402EFA03F343EA0C0C4FEA154EA8B227
:108C2000230CBCFBFEF80EFB18CC08FB00F943EA52
:108C30000C43994528D9EB1808F1FF3704D2994520
:108C400002D9A8F102072B44A3EB0903A4B2B3FB9A
:108C5000FEFC0EFB1C330CFB00F044EA0344A04274
:108C600014D92C190CF1FF3304D2A04202D9ACF173
:108C700002032C44241A43EA07401EB1D4400023C7
:108C800034607360BDE8F0874746DDE76346F1E78F
:108C900092BB431B01214FEA154EAFB2200CB3FB30
:108CA000FEFC0EFB1C330CFB07F840EA034398451F
:108CB00061D9EB180CF1FF3004D2984502D9ACF120
:108CC00002002B44A3EB0803A4B2B3FBFEFC0EFB93
:108CD0001C330CFB07F744EA0344A7424DD92C1977
:108CE0000CF1FF3304D2A74202D9ACF102032C44A9
:108CF000E41B43EA0040C0E7C2F1200395409440E2
:108D000020FA03F12EFA03F34FEA154E9040AFB26A
:108D10000343B1FBFEFC0EFB1C10190C0CFB07F807
:108D200041EA0041884522D969180CF1FF3004D28C
:108D3000884502D9ACF102002944A1EB08019BB29D
:108D4000B1FBFEFC0EFB1C110CFB07F743EA0143D1
:108D50009F420ED9EB180CF1FF3104D29F4202D989
:108D6000ACF102012B44DB1B41EA004193E7604672
:108D7000E3E76146F7E76046A4E76346B8E7834266
:108D800006D916B9002108467CE7C6E900E0F9E7F4
:108D9000B3FA83F78FB9834201D3724508D8BEEB8B
:108DA000020460EB030301209C461EB9002169E721
:108DB0003846FAE7C6E9004CF8E7C7F1200CBB409B
:108DC0000EFA07F522FA0CF42EFA0CF1BA401C4305
:108DD00020FA0CF3B8404FEA144901431FFA84FE0D
:108DE000B3FBF9F809FB18300B0C08FB0EFA43EA49
:108DF00000439A4540D9E31808F1FF3004D29A4560
:108E000002D9A8F102002344A3EB0A0389B2B3FB01
:108E1000F9F809FB183308FB0EFE41EA03418E45C1
:108E20002CD9611808F1FF3304D28E4502D9A8F17C
:108E30000203214443EA0040A1EB0E01A0FB02988B
:108E40004145CE46434602D306D14D4504D20138B2
:108E5000B9EB020E68EB0403002EA7D0B5EB0E02AF
:108E600061EB030101FA0CFC22FA07F3F9404CEA2A
:108E70000303C6E9003199E74046C5E74346D9E711
:108E800010F8012B11F8013B012A28BF9A42F7D0B4
:108E9000D01A7047034613F8012B002AFBD1181A89
:108EA00001387047000000002DE9F043304C87B0D6
:108EB00007460E461546206883683B21DB689847C5
:108EC0006A462068002110F0D4FE0198FFF78EFA60
:108ED00025A3D3E90023FFF71DFC804600988946AF
:108EE000FFF784FA0B46024649464046FFF732F93F
:108EF00002AAC7E900012068012110F0BAFE039818
:108F0000FFF774FA18A3D3E90023FFF703FC8046A8
:108F100002988946FFF76AFA0B46024649464046E0
:108F2000FFF718F904AAC6E900012068022110F031
:108F3000A0FE0598FFF75AFA0BA3D3E90023FFF729
:108F4000E9FB064604980F46FFF750FA02460B4627
:108F500030463946FFF7FEF8C5E9000107B0BDE825
:108F6000F08300BFAFF300800000000080842E413A
:108F7000CCDA002000000000F0B5C5B005464FF483
:108F80008071254A04A80BF031FD044678B1234BCB
:108F900003900293002301221846CDE900332049B3
:108FA00010F06AFE00242C76204645B0F0BD1D4925
:108FB00004A815F0B1FB034650B11B4B0322CDE9C9
:108FC0000143204623461649009410F055FEE9E778
:108FD00001240DA7D7E90067C5E900670CA7D7E909
:108FE0000067C5E902670026104F114AC5E904670A
:108FF0002C760B49CDE901020090032210F03CFED3
:10900000D2E700BFAFF3008012A5BDC1172E4540C7
:10901000006F8104C5C351C093FF02009FFF02008F
:10902000BCF20200B9FF0200CCFF020000002540A4
:10903000E2FF0200000000002DE9F04F82461646D4
:109040001C4600259FB00391307810B9284600F0E7
:1090500089BD731C2528069306D00399D0470028A4
:10906000C0F2808501351FE21822002110A815F0FA
:1090700084F97378252B00F0BC80002398469E4627
:109080009C461846711C0F4611F8012B2B2A00F044
:10909000E38000F2DA80202A00F0E180232A00F049
:1090A000E1802BB19DF8483043F040038DF8483003
:1090B000B8F1000F05D09DF8483043F020038DF83B
:1090C0004830BEF1000F05D09DF8483043F0100342
:1090D0008DF84830BCF1000F05D09DF8483043F0C2
:1090E00008038DF8483028B19DF8483043F0040358
:1090F0008DF848309DF8483003F04401442903D1ED
:109100006FF386138DF848309DF848302A2A43F0D3
:1091100080030E978DF8483040F0A9809DF84930C3
:1091200043F001038DF849307B1C1A782E2A0CBFBE
:10913000012100219DF8492061F341028DF8492069
:109140000CD15A1C0E925A782A2A40F0A0809DF821
:109150004920023342F004028DF849201A786C2A23
:1091600000F0C18000F2A380682A00F0A9806A2A7A
:1091700000F0C2804C2A00F0C78013F8012B782A37
:1091800006938DF84B2000F209816D2A00F2C98008
:10919000692A00F20381572A00F2E280412A04D0B2
:1091A000A2F14503022B00F2F98004219DF84A3018
:1091B00002F0DF02A2F1410861F30203D8F10002DC
:1091C0009DF8491042EB080262F3C7110A068DF8B8
:1091D0004A308DF84910CBB200F11F8103F07802BC
:1091E000182A40F009816FF3C6038DF84930002337
:1091F000F8E0B21C06928DF84B309DF849309DF88E
:109200004A20DF0702F0070040F1098154F8041BEF
:109210000029049108DA9DF8481041F004018DF806
:109220004810049949420491590740F1008154F8CB
:10923000047B002F80F2FF809DF849306FF34103DB
:109240008DF849304FF0FF37F5E02D2A0DD0302A48
:109250007FF427AF012316E74FF0010C13E74FF01F
:10926000010E10E74FF001080DE701200BE70EA8F3
:1092700002F0B4F90E9BBB423FF457AF9DF8482073
:109280001390C00F60F341028DF848204DE70EA8FF
:1092900002F0A4F99DF848301490C3F3400242EA6A
:1092A000D07262F341038DF848300E9B56E7742A62
:1092B00026D07A2A7FF461AF06219DF849200CE080
:1092C0005A78682A9DF8492006D1012161F3C60227
:1092D0008DF84920023350E7022161F3C6028DF870
:1092E0004920013349E75A786C2A9DF8492001D179
:1092F0000421EBE70321F0E705219DF84920ECE785
:1093000007219DF84920E8E7BDF8482022F4F04203
:1093100022F0020242F4804242F00202ADF84820FC
:10932000DFE76E3AD3B201229A4040F282431A42FA
:109330009DF8493039D112F0240F61D1D1072DD5D4
:1093400003219DF84A2003F07803A3F1400C61F358
:109350000202DCF100038DF84A2043EB0C0341E0EC
:109360000120A2F15801C9B200FA01F111F4624FD3
:109370007FF41BAF40F6010319429DF849301AD122
:1093800011F4043F0AD09DF84A2060F3020203F072
:109390007803402B8DF84A207FF429AF9DF84830A0
:1093A00043F001038DF8483021E702219DF84A205F
:1093B00061F30202EBE702209DF84A1003F0780304
:1093C00060F30201402B8DF84A1002BF9DF848104F
:1093D00041F001018DF84810632A7FF408AF003B8B
:1093E00018BF01239DF84820C2F340010B4363F3EB
:1093F00041028DF8482000E713F0380FCED1F6E691
:1094000003219DF84A2013F0780F61F3020214BF84
:10941000012300238DF84A20E4E70123E2E79DF9C8
:1094200048100029ACBF4FF0FF311399FBE69F07AE
:109430007FF508AF149F00230428CDE913339DF86E
:10944000493007D1980705D49DF949100029ACBFD0
:1094500006270D2702F00702012AC3F3C30333D105
:10946000DA1E042A04D8DFE802F021464621210052
:109470002268012B4FEAE271CDE910211CD19DF940
:109480004020D117CDE9102104349DF848209107E0
:10949000079250D032465046069B039910F062FF67
:1094A0000028C0F25F830544069ECDE554F8042BE6
:1094B000D117CDE91021E8E7022BE5D111B242F333
:1094C000C032CDE91012DFE7022A24D1DA1E042AC5
:1094D00004D8DFE802F0181010181800012B4FF024
:1094E000000154F8042B14D0022BCDE91021CCD16B
:1094F00092B21092C9E7073424F00704F4E802019D
:10950000CDE91001C1E754F8042B1092002211920A
:10951000BBE7D2B2CDE7042A08D1073424F0070410
:10952000D4E900010834CDE91001AEE7032AACD13B
:1095300054F8042BDDE79DF84BB0BBF1780FB3D89E
:10954000BBF1570F49D8BBF1250F00F09180BBF15B
:10955000240FA9D9BBF1410F03D0ABF14503022B76
:10956000A2D8DDE91013002BC0F23781079A160745
:1095700000F13681C2F300194FEA4919C3F30A50CA
:10958000C3F31303002840F02E8151EA030614BFF1
:1095900001260026DB0243EA5153C902BBF1460F04
:1095A00040EA010E43EAE07C08BF4FF0660B5EEA3A
:1095B0000C0CCDE90C1300F09C81002E40F04A8188
:1095C0000D9BA0F2FE3843F000430D930020DDE92F
:1095D0000C1306464FF0050C56E1ABF1580120295B
:1095E0003FF662AF01A050F821F000BF799701006B
:1095F000A9940100A9940100A9940100A994010073
:10960000A9940100A9940100A9940100A994010062
:1096100063950100A9940100FD96010011970100D6
:10962000639501006395010063950100A994010011
:1096300011970100A9940100A9940100A9940100C7
:10964000A9940100B3970100799701007F97010069
:10965000A9940100A994010077960100A994010042
:1096600079970100A9940100A9940100799701005C
:1096700058460399F2E4002F109E3BDB39463046F2
:1096800015F03EF8002E3FF40FAF4FF000093718E9
:10969000BB1B9DF84A2012F01001059100F0578283
:1096A000023312F04002DDF84C80089218BF149A81
:1096B000434418BF9B18049ACDF81C80002A40F33D
:1096C0006182D31A04939DF848305807C3F3800B86
:1096D00000F15882590640F14882B9F1000F07D0D5
:1096E00048460399D0470028C0F23C82D94601354C
:1096F00030233BE23046FFF7CDFBC6E7109B4FF02F
:1097000000098DF85C300DF15D07012317AEC0E74D
:10971000079B1A0754BFC3F300194FF02B09DDE96B
:10972000102358BF4FEA4919002B06DA4FF02D09D4
:10973000524263EB4303CDE91023DDE910010DF143
:109740007503009312AA17AB01F05EFF0646002FC7
:109750000CDB9DF848200DF175039B1B6FF38612FF
:109760009F428DF8482001D9FB1A1393002E3FF435
:109770009BAE0DF175075BE04FF00009DDE7109837
:10978000002800F0DF810DF175030093002117AB75
:1097900012AA01F039FFBDF84A30064603F0EF0384
:1097A00043F4F04343F010034FF00009ADF84A30A2
:1097B000CDE7109A072B3FF677AEDFE803F00C04F5
:1097C000060C08080C0C15706EE615806CE6EB179D
:1097D000C2E9005368E6156066E64FF02D09CDE654
:1097E0004FF02B09CAE640F2FF76B0422FD1A048D5
:1097F0000BF10102D2B2825C0B4302F003021ED1D4
:10980000012A0BBF492369234E216E210CBF46223A
:1098100066228DF85C309DF848308DF85D106FF34E
:1098200086138DF85E208DF848300DF15F0717AE76
:10983000BB1BB9F1000F3FF42CAF013329E7012A1C
:1098400015BF6E234E23612141211A46E1E7002610
:10985000A0E6013849185B41002BFADACDE90C1378
:10986000AEE6490841EAC3715B08B3F1333F4046B5
:1098700008F10108F5D200F1020801200CFB03FEFB
:10988000A1FB0C13013E734418F1020FE9DB08B190
:10989000CDE90C13DDE90C31B8F1000F2CDCC8F177
:1098A0000400A0F1200C08F11C08C34001FA08F8DC
:1098B00021FA0CFCC1400BF0DF0043EA0803472803
:1098C00043EA0C0338D1F01C01DBB7422ADAABF1D2
:1098D0000202002F5FFA82FB7BDD9DF84800013F0A
:1098E000820676D43A1E18BF0122059207F10108BC
:1098F0002CE04FF0000869E6023341F100010CA8AA
:1099000008F1FF380136CDE90C3110F0FCFCDDE93F
:109910000C31DB184941002908F1FF38F9DACDE9AB
:109920000C31B7E79DF84820BF1B90064FD43A1E74
:1099300018BF0122059204E00022BBF1660F0592D8
:10994000D4D117EB06084FF0660B44D4B8F1100FD2
:10995000A8BF4FF010089FED447B10208DED0E7BCB
:109960000B90DDE90E02B8F1000F37D1C01842EBC1
:109970000103B3F1805F41D2CDE90C03079BBBF13A
:10998000660F03F0200340F0BC80002E41DC302144
:109990008DF85C10002B6DD1002F40F3B4812E2385
:1099A0008DF85D3086B17342BB42A8BF3B46002BA9
:1099B0001393A7EB0307D4BF002301239DF84A109C
:1099C00063F345118DF84A100DF15E0839E000226D
:1099D000B0E7002289E74FF00008BCE7400840EA02
:1099E000C2705208CDE90E020EA8CDE9083108F187
:1099F000FF3810F088FCDDE90831B2E7400840EAA2
:109A0000C3705B08CDE90C030CA810F07CFC013698
:109A1000B4E70DF15C080B99002909DD0BA90CA82E
:109A2000079310F088FC013E079B08F8010BF2D168
:109A300013969BB9002F40F364812E2108F8011B77
:109A40000026002F1FDD0B9B002B1CDD0BA90CA893
:109A500010F071FC013F08F8010BF2E72E2308F823
:109A6000013BEDE7AFF300800000000000000008BC
:109A7000372603002E238DF85D30002EA4D0002F52
:109A800091DC0DF15E08059B002B4ED114974746E3
:109A90000BF0DF03452B23D1002EBABF76422D23D6
:109AA0002B23632EC8BF64217B70C4BFB6FBF1F3C8
:109AB00001FB13664FF00A01C8BF03F13000B6FB8B
:109AC000F1F3D2BFBA1CFA1CB87087F800B0174681
:109AD00003F1300001FB1363303307F8020B5370BE
:109AE000139B002B2CDC149B002BD4BF00230123E1
:109AF0009DF84A2063F3861200238DF84A203B70BC
:109B000095E60BA90CA8079310F015FC079B3028CD
:109B10008DF85C0018BF06F1FF3613B9002F40F333
:109B2000F2802E238DF85D304EE7474617F8013C52
:109B300008F1FF38302BF8D02E2B08BF4746A7E797
:109B40000123D5E7714F814605237E1FA1E511074B
:109B500048BF0133A5E5184609930399D04700286B
:109B6000099B05DA1FB0BDE8F08F2023DDF810B0A7
:109B70005A46002A0BF1FF3BEDDC049BCDF810B0F8
:109B80002B449D1AB9F1000F05D048460399D047E0
:109B90000028E7DB0135089B002B77D09DF9493081
:109BA000002B28DB3346DFF8689118789B4619F8BC
:109BB0000020013352073FD49DF84A30AE1B98066F
:109BC0005E4407D44246002A08F1FF383BDC079B7D
:109BD00033449E1A9BF800002E280AD10399D047DF
:109BE0000028BFDBB8F1000F06F1010631DC0BF1F4
:109BF000010B5D4638E0B14699F80000C846702870
:109C000009F1010913D1AE1B149D46443544AB1B29
:109C1000002B33DC3B4642465046039910F0A2FB32
:109C200000289FDB3044049E0546064464E0039907
:109C3000D0470028E0DA95E705930399D04700283C
:109C4000059BB2DA8EE730200399D0470028B9DAB5
:109C500088E730200399D04708F1FF38C0E703991F
:109C6000D0470028FFF67EAF2878A84619F80030C4
:109C700001355907F3D4A6EB0B06C5E7302003994D
:109C8000D0470028FFF66EAF0136C0E79DF84A3096
:109C9000DA0601D41B0706D530200399D0470028E7
:109CA000FFF660AF0135059B3BB103999DF84B0072
:109CB000D0470028FFF656AF0135A84406E0302013
:109CC0000399D0470028FFF64DAF0135A8EB0503F7
:109CD000002BF4DC3B4632465046039910F042FB21
:109CE0000028FFF63FAF28449DE720200399D04786
:109CF0000028FFF637AF0135731B002BF5DCFFF7AB
:109D0000D3BB1E46BFE60DF15D08BCE6150003009F
:109D1000382603000000000001282DE9F0418846A4
:109D200007D010F04DFE162303604FF0FF30BDE862
:109D3000F0818A68244B9A42F3D814F011F9054651
:109D40000F4614F00DF9214CD8F80030D8F8042053
:109D5000A3FB043604FB0266D8F808209B1846EBE8
:109D6000E276EA0B42EA4742A2FB0421FF0B9B1A70
:109D7000C0F30E0204FB0711A2FB04244FEAD23207
:109D800042EA444266EB0101981A61F100010CA31A
:109D9000D3E90023FEF7F6FDEFF31184202383F3CC
:109DA0001288BFF36F8F0A4BC3E900019A6084F3F6
:109DB0001188BFF36F8F0020B9E700BFAFF30080B9
:109DC00000CA9A3B00000000FFC99A3B00CA9A3BB8
:109DD00038CF0020000000002DE9F0432DED028B6C
:109DE0001F46002504238BB00E4690468146CDE9E0
:109DF00008550593002800F0D580002900F0D28096
:109E0000062108A812F095F8044680B16A4B039029
:109E1000CDE9015301222B4628466849009512F0EE
:109E2000E0F920460BB0BDEC028BBDE8F0830146A3
:109E300008AA484612F058F8044670B1604B0390E7
:109E4000CDE901532B460095012218465B4912F0DB
:109E5000C8F908A812F097F8E3E7012104AA08A8B6
:109E600012F043F9044610B1564B0390E8E7049B07
:109E7000DBB1042B22D0052B0CBF0923FF23337049
:109E8000032105AB06AA08A812F05BF90546B8B194
:109E90004D4B03900293002301221846CDE9003375
:109EA000464912F09EF92C46D3E7DFED487A0023AD
:109EB000C6ED017A3370C6ED027ACAE70723DEE702
:109EC000059B002BF1D028336B4403F8100C06A936
:109ED000404614F0E8FB0222294606A80EF098FB43
:109EE0003378C2B2092B0AD10F2A28D96FF0150492
:109EF000374B039402930023CDE90033A4E70F2AE4
:109F0000F4D8072B23D19FED338A334B33F812005B
:109F1000D8B1FEF76BFA26A3D3E90023FEF7D0FAF7
:109F2000FEF7E0FC0421706005AB06AA08A80591C5
:109F300012F007F9054668B1284B0390AAE7284BB1
:109F40009FED288A33F81200E2E72748EAE76FF02E
:109F50007F04CDE7059B06A928336B4403F8100C5A
:109F6000384614F0A0FB0222294606A80EF050FB4A
:109F7000C2B20F2A0DD91D4B0392CDE90153012224
:109F80002B4628460D49009512F02BF96FF0150469
:109F90005FE70132D2B207EE902AF8EEE77A67EE79
:109FA000887A88E76FF015043BE700BFAFF30080C5
:109FB0007B14AE47E17A244007160300F4F2020056
:109FC00030160300591603007B1603000000000042
:109FD000A71603000AD7A33FA8FC0200CB16030074
:109FE00088FC02000AD723400AD7A340F6160300D4
:109FF0002DE9F04F476A97B08346209E08910C9256
:10A00000129355EC104B8DED000B7FB910200DF025
:10A0100081FB0246CBF8240020B9A74BEA21A748D0
:10A020000FF0C8FDC0E901770760C760DBF8243096
:10A03000196859B15A680123584693404A608B60A9
:10A040000EF0FAFEDBF8243000221A602B1EB7BF98
:10A0500023F00043002301220193A8BF3360019F36
:10A06000974BB8BF3260BB4319D142F20F73129ABB
:10A070001360C7F31303234300F0DB85219B53B91F
:10A08000904B21E0904B03930833219A136003987F
:10A0900017B0BDE8F08F8B4B03930333F5E79DEDCD
:10A0A000007B0022002351EC170B8DED0A7BFEF79D
:10A0B00029FD804650B10123129A1360219B13B1F0
:10A0C000824B219A1360824B0393E0E7C7F30A5651
:10A0D00014AA15A958469DED0A0B0FF035F9029008
:10A0E000002E76D00B9BA6F2FF36CDF84C80C3F342
:10A0F000130343F07F53DDE90A0143F4401319468B
:10A100000022744BFEF724F865A3D3E90023FEF781
:10A11000D7F965A3D3E90023FEF71CF804460D46E2
:10A120003046FEF763F962A3D3E90023FEF7C8F9CE
:10A1300002460B4620462946FEF70CF804460D461B
:10A14000FEF728FD00220746002320462946FEF799
:10A15000E3FC40B13846FEF749F922462B46FEF7AC
:10A16000D1FC00B9013F162F52D85B4B03EBC7035C
:10A17000DDE90A01D3E90023FEF7CEFC002849D02F
:10A18000013F00231193149B9B1B5A1E4CBFC3F12C
:10A1900001030023079245BF06930023069307930C
:10A1A000002F39DB079B10973B440793002309934B
:10A1B000089B092B66D8052BC5BF043B002401244E
:10A1C0000893089B023B032B67D8DFE803F02D3A86
:10A1D0003859DDE914631E4406F23243202BC9BF0F
:10A1E000C3F14003C3F120039F4006F21243D8BFDE
:10A1F00004FA03F006F1FF36C4BF24FA03F347EA7A
:10A200000300FEF7E3F80122A1F1F873139276E759
:10A210000123B7E71190B6E7069BDB1B06937B4251
:10A22000099300231093C3E700230D930C9B002B8D
:10A2300056DC012399461A4604930C920CE0012344
:10A24000F3E700230D930C9BFB1803F10109049322
:10A250004B46012BB8BF0123DBF824000021042268
:10A2600002F114059D423FD9416058460EF0A4FD0D
:10A27000039000283BD1194B02464FF4D571CEE62E
:10A280000123DFE7012400230D9408934FF0FF33EF
:10A290000022994604931223CFE701230D93F5E79B
:10A2A00061436F63A787D23FB3C8608B288AC63FDC
:10A2B000FB799F501344D33F842703009B2703005F
:10A2C0000000F07F8027030077270300AE1503000E
:10A2D000AD1503000000F83F30F402000F28030022
:10A2E0000C9B99460493B7E701315200B8E7DBF8BD
:10A2F0002430B9F10E0F039A1A606FD8002C6DD07C
:10A30000002F36DD07F00F02A04BF8054FEA2714A7
:10A3100003EBC20393ED007B8DED0E7B17D59C4BB9
:10A3200004F00F044FF00308D3E90823DDE90A0124
:10A33000FEF7F0F9CDE90001954D5CB9DDE90E239A
:10A34000DDE90001FEF7E6F9CDE900012BE04FF071
:10A350000208F1E7E10709D508F10108DDE90E017E
:10A36000D5E90023FEF7ACF8CDE90E0164100835FD
:10A37000E3E700F007817C42844B854D4FF00208F3
:10A3800004F00F02241103EBC203DDE90A01D3E953
:10A390000023FEF795F80023CDE90001002C40F0E2
:10A3A000E580002BD0D1119BDDE90045002B00F0AA
:10A3B0004C810022774B20462946FEF7ADFB002852
:10A3C00000F04381B9F1000F00F03F81049B002BA6
:10A3D00000F3E480DDE90A34CDE90034159B002B5D
:10A3E00002DB0E2F40F342820D9A002A40F0678272
:10A3F000099C0025DDF81880B8F1000F0DD0079BEF
:10A40000002B0ADD4345069AA8BF4346D21AA8EBA3
:10A4100003080692079AD31A0793099B0BB30D9B67
:10A42000002B00F0A682002C00F0A18229462246D3
:10A4300058460EF02BFE029A0146054658460EF08D
:10A440007BFD0299064658460EF0F6FC099B1B1B45
:10A45000099300F09182099A314658460EF016FE93
:10A460000290012158460EF051FD109B0446002B2E
:10A4700000F084821A46014658460EF007FE089BFB
:10A480000446012B03DC009B002B00F07C8200269D
:10A49000236904EB8303186914F007FBC0F1200063
:10A4A0001096079B184410F01F0000F09182C0F135
:10A4B0002003042B40F38182C0F11C00069B03445F
:10A4C00080440693079B03440793069B002B05DDFE
:10A4D0001A46029958460EF033FE0290079B002B55
:10A4E00005DD21461A4658460EF02AFE0446119B09
:10A4F000002B00F076822146029814F025FB0028FC
:10A5000080F26F8200230A22029958460EF0B6FCB0
:10A510000D9B7E1E0290002B00F05C8200232946DA
:10A520000A2258460EF0AAFC049B0546002B03DCC9
:10A53000089B022B00F35E82B8F1000F05DD29466F
:10A54000424658460EF0FCFD0546109B002B00F0DD
:10A55000D082696858460EF02FFC0746002840F06C
:10A560007F820D4B024640F2EA2158E5E20706D50C
:10A5700008F10108D5E90023FDF7A2FF01236410CB
:10A5800008350BE74FF002080DE700BF30F402007A
:10A5900008F402000000F03F0F28030020460022CC
:10A5A000AC4B2946FDF78CFF7E1E08F10108049C88
:10A5B000CDE900014046FDF719FFDDE90023FDF775
:10A5C0007FFFA54B0022FDF7C5FDA1F15073CDE93A
:10A5D0000E010F93002C3BD10022A04BDDE90001BE
:10A5E000FDF7B6FD02460B46CDE90023DDE90E235B
:10A5F000FEF7B0FA002840F05781DDE90E2101F1A5
:10A600000043DDE90001FEF787FA00283FF4E2AEDF
:10A61000002425460C9BDDF80CA0DE434FF000081B
:10A62000214658460EF008FC002D00F0A980B8F134
:10A63000000F05D0A84503D0414658460EF0FCFB5C
:10A64000294658460EF0F8FB9AE03E464C46B1E7E4
:10A65000834B03EBC40353E90201039B1C440D9B92
:10A66000002B4AD002460B4600207E49FEF752F8E6
:10A67000DDE90E23FDF76CFDDDF80CA0CDE90E0140
:10A68000DDE90001FEF786FA0546FDF7AFFE02465A
:10A6900030350B46DDE90001FDF75AFD0AF8015B94
:10A6A00002460B46CDE90001DDE90E01FEF752FA44
:10A6B000002865D100206C49DDE90023FDF748FD45
:10A6C00002460B46DDE90E01FEF744FA002840F091
:10A6D0000D81A24500F0EA8000225E4BDDE90E010B
:10A6E000FDF7EEFE00225B4BCDE90E01DDE9000136
:10A6F000FDF7E6FECDE90001C2E7DDE90E23FDF737
:10A70000DFFEA046DDF80CA0CDE90E01DDE9000179
:10A71000FEF740FA0546FDF769FE024630350B4666
:10A72000DDE90001FDF714FD0AF8015B02460B4666
:10A73000A245CDE900234FF0000223D1494BDDE9CA
:10A740000E01FDF707FD02460B46DDE90001FEF7AD
:10A7500001FA002840F0CA8000204249DDE90E23BA
:10A76000FDF7F6FC02460B46DDE90001FEF7D4F9E1
:10A7700070B1C24608F1FF381AF8013C302BF8D00E
:10A78000374655E0334BFDF79BFECDE90001BDE7B1
:10A79000DDE90A34CDE90034159B002BFFF628AE25
:10A7A0000E2F3FF725AE2E4B03EBC70393ED007B37
:10A7B0000C9B002B8DED047B02DAB9F1000F64D005
:10A7C000DDF80CA0DDE90045DDE90423204629463B
:10A7D000FDF7A0FFFEF7DEF90646FDF707FEDDE90F
:10A7E0000423FDF76DFE0246204606F130040B46B9
:10A7F0002946FDF7ADFC0AF8014B039C02460B46C7
:10A80000AAEB0404A14540F08280FDF7A3FC0446B6
:10A810000D46DDE90423FEF79DF9002865D12046A9
:10A820002946DDE90423FEF76DF908B1F3075CD48E
:10A83000029958460EF000FB002301378AF80030D9
:10A84000129B1F60219B002B3FF421ACC3F800A09A
:10A850001DE400BF0000244000001C400000144024
:10A8600030F402000000E03F0000F03FA24B03EB99
:10A87000C70393ED007B0C9B002B8DED047B9FDACF
:10A88000B9F1000F9CDC7FF4C3AE00229B4BDDE9E5
:10A890000401FDF715FEDDE90023FEF751F904463A
:10A8A00000287FF4B5AE3E462546B4E0DDE90A3423
:10A8B000CDE90034159B002B01DB0E2FD6DD089A65
:10A8C000012A36DC139A82B303F23343099CDDF884
:10A8D0001880069A012158461A440692079A1A448B
:10A8E00007920EF013FB054686E53E4653469A4610
:10A8F00013F8012D392A06D1039A9A42F7D1302252
:10A90000039901360A701A7801321A7038E700226A
:10A910007B4BFDF7D5FD0022002304460D46FEF7D4
:10A92000F1F800283FF450AF82E7149BC3F13603DF
:10A93000CCE709F1FF34099BA34208DBB9F1000F12
:10A94000A3EB04040EDBDDF818804B46C1E7099B3E
:10A95000109AE31A0994DDF8188000241A444B4633
:10A960001092B6E7069BA3EB09080023B1E7029E0D
:10A9700071E5099A029970E5029672E5089B012B30
:10A9800017DC009BABB9019BC3F313039BB9019B7D
:10A9900023F00046360D360536B1069B01260133FD
:10A9A0000693079B01330793109B002B7FF470AD38
:10A9B0001096012075E50026F6E73FF486AD1C33BE
:10A9C000069A1A4498440692079A1A4407927CE51C
:10A9D0000346F4E7049B002B2BDC089B022B09DCCD
:10A9E00027E0B9F1000F1DDC089B022B1ADD3E4663
:10A9F000CDF81090049B002B7FF40CAE214605226D
:10AA000058460EF03BFA01460446029814F09CF8B2
:10AA100000287FF7FFADDDF80CA0312301360AF8DE
:10AA2000013BFBE50D9B3E46CDF81090002B7FF4DB
:10AA300083AD039F2146029813F0B3FE039B00F100
:10AA40003009049A07F8019BFB1A9A4240F3CB8025
:10AA500000230A22029958460EF010FA0290E9E704
:10AA60002A6905F10C010C300232920013F078FCD7
:10AA70000122394658460EF063FB039BA846054663
:10AA800003F1010ADDE9032313440793009B03F05C
:10AA9000010309930AF1FF3321460298049313F04E
:10AAA00080FE4146069000F13009029814F04CF8FF
:10AAB0002A462146074658460EF0AEFBC2680146BC
:10AAC00002B358460EF0B8F9002F3ADA0122029983
:10AAD00058460EF035FB2146029014F035F8002858
:10AAE00003DC29D119F0010F26D0B9F1390F1DD19E
:10AAF00032E02846C1E700BF30F4020000001440F5
:10AB0000000024400A90029814F01EF80A990C9054
:10AB100058460EF091F90C9A5ABB089B53B9099B01
:10AB200043B9B9F1390F17D0002F05DD069B03F1AA
:10AB3000310901E0002F2ADADDF810A00AF8019BA4
:10AB40006EE5089B3B4304D1009B03F00103002BFF
:10AB5000BCD0B9F1390F36D1049F392307F8013B36
:10AB6000BA46013F1AF8013C392B5AD001333B70E9
:10AB700056E5002F06DB089B3B4306D1009B03F004
:10AB8000010313B9002AA1DCD6E7002AE1DC079B08
:10AB900057460AF8019C53452ED000230A220299F9
:10ABA00058460EF06BF9A84502904FF000034FF0A5
:10ABB0000A02414658460BD10EF060F98046054620
:10ABC0000AF1010A66E7DDF810A009F10109B5E70D
:10ABD0000EF054F92946804600230A2258460EF00A
:10ABE0004DF90546ECE7049B4FF00008002BCCBF65
:10ABF0001F460127039B1F440122029958460EF06D
:10AC00009FFA2146029013F09FFF0028A8DC02D192
:10AC100019F0010FA4D1BA4617F8013D302BFAD034
:10AC2000FEE4039BBB429BD13123039A0136137090
:10AC3000F6E4219B002B7FF425AA014BFFF744BAD1
:10AC4000772703002DE9F0410024444B98B00322FC
:10AC5000204643490293CDE9004423460EF0EBFF22
:10AC600000F044F9034660B93E4ACDE901323C495F
:10AC7000012200930EF0DFFF4FF0FF3018B0BDE867
:10AC8000F08100F085F8034608B9374AEDE700F097
:10AC900037F9034608B9354AE7E7192301940093C9
:10ACA00013221423032140F2E97000F099F80024E4
:10ACB0000025DFF8D8802E4F40460FF0DFFA08AAB3
:10ACC00006A904A8CDE90445CDE90645CDE9084526
:10ACD000FEF7EAF80AA800F0CFF810A8FEF74CF942
:10ACE000064624480FF0CAFA38460FF0C7FADDE9E5
:10ACF0000B230A9920480DF047FADDE90E230D9940
:10AD00001E480DF041FADDE908231D48CDE9022374
:10AD1000DDE90623CDE90023DDE904230DF034FA53
:10AD2000C6B19DF85830ABB1DDE914231548CDE923
:10AD30000223DDE91223CDE90023DDE910230DF024
:10AD400023FA38460FF09AFA00214FF400400CF035
:10AD5000C5F8B1E70C480DF089FAF2E7D6FC02001D
:10AD6000FCF20200F7FC020011FD020021FD0200CE
:10AD700053FD02003CFD020084FD02009AFD02002A
:10AD8000B0FD0200F0FD020031FE020031FD0200C4
:10AD90001FB50E480E4B186012F093FD044658B9CB
:10ADA0000C4B0122CDE9010303460B4900900EF044
:10ADB00051FF204604B010BD084B0322029300232C
:10ADC00005491846CDE90033F1E700BFF8EF02006E
:10ADD000C8DA002053FE020064F3020068FE02009D
:10ADE0002DE9F04F95B09846DDE91EABCDE90C3268
:10ADF0004B1E0E93A0F26C730F934FF0FF334FF086
:10AE00000009CDE910331293174B05460E4617463D
:10AE1000CDE90ABA1868CDF84C9083680AA91B6876
:10AE20009847044678B1114B0390CDE90193012274
:10AE30004B4648460E49CDF800900EF00BFF2046D9
:10AE400015B0BDE8F08F0B4B0322CDE90103CDE92E
:10AE500007AB0346CDE90578CDE9035604490090D8
:10AE60000EF0F8FEEBE700BFC8DA00207FFE02001C
:10AE700064F302009AFE020030B5194B04468FB00D
:10AE80001868836804A95B689847C8B10025154B0A
:10AE9000022215490390029328462B46CDE900551E
:10AEA0000EF0D8FE032340F2E9721321C4E9002317
:10AEB0001423C4E902131923236165610FB030BD67
:10AEC000099B049D03F26C732360089B013363604C
:10AED000079BA360069BE360059B2361EDE700BF32
:10AEE000C8DA0020C8FE020064F30200024B034AE5
:10AEF00001201A60704700BFCCDA002034F0020055
:10AF000030B585B004F08AF9054668B1174B039057
:10AF100002930023CDE900331846012214490EF0B4
:10AF2000ABFE002005B030BD124809F0FBFC044622
:10AF300030B1114B0390CDE9015300952B46EBE75F
:10AF40000E4809F0EFFC034630B10D4B0390CDE9FC
:10AF5000014300942346DFE70A4A0090CDE901024D
:10AF6000034903220EF088FE0120DBE7EEFE02001B
:10AF7000BCF2020016FF02002EFF02004CFF02008E
:10AF800057FF020076FF02002DE9F04F91B00093C9
:10AF900002F004030293C2F3C2030133840705469F
:10AFA0000E46DDF868900392059340F0BB81041DC6
:10AFB00030B1072909D86FF01B0011B0BDE8F08F40
:10AFC00001F00706341DC6F10806009B4FF000088B
:10AFD0004FF0040A591E4FF0FF3347460193C34612
:10AFE0005346CDF810800DB10098206005980028D8
:10AFF00000F3E8809848009A824203D3974882423F
:10B00000C0F0E080039AA4EB050E92074FEA9E0081
:10B0100000F103810F2F00F2B180002D00F00581B7
:10B0200007F140020DEB020C019A0CF8200C0CF811
:10B03000102C049801300490E7E07A285DD84B2862
:10B040000ED8472859D829282DD8252852D054D889
:10B0500020287AD02338D0F1000B4BEB000B74E0A2
:10B060004C382E2849D8DFE800F070484848484856
:10B070004848484848484B4848484848484848593C
:10B08000484B4B595959704B6D487048184B1848EC
:10B0900048827F4B48484B487F0000204FF0000B10
:10B0A0004FF0040A38E001222A38C0B202FA00F058
:10B0B00010EA0E0F49D110F0625C2FD110EA020B9A
:10B0C00043D06046013C5444B4FBFAF40AFB04F458
:10B0D000002D61D0A3EB050CA444B4453FF66BAF43
:10B0E000002868D1042B47D159F8043B236004237E
:10B0F00004342AE0019A013A01924FF0000B24E057
:10B1000011F8010C6C2834D1002011F8023C834660
:10B110006C2BC5D14FF0080A5346D3E709F1070954
:10B1200029F00709073424F00704F9E802AB35B128
:10B1300006982044B0423FF63EAFC4E900AB4FF062
:10B14000000B08344FF0080A534611F8010F00288D
:10B1500078D0BBF1000F7FF470AF2528F5D14FF008
:10B16000010B019B013301934FF0040AECE75846B1
:10B1700094E700208346A5E7082B02D06FF0150066
:10B180001BE709F1070929F00709B9EC027B84EDF7
:10B19000007B08230834D8E768B9042B02D109F1F1
:10B1A0000409A4E7082BE9D109F1070929F00709E7
:10B1B00009F10809EDE705980138059059F8040BE5
:10B1C000009010E7039A900720D54FF0010CA4EBF4
:10B1D000050E4FEA9E00BEF5007FCFD20F2FCDD8CF
:10B1E000F5B107F140020DEB020E019AC0B20EF864
:10B1F000200C0EF8102CBCF1000F3FF41AAF60F0D9
:10B200007F000EF8200C08F101080137C5F1080293
:10B210004FF6DA7E0434069297E74FF0000CDAE737
:10B22000BCF1000F01D00136EFE7029A0236002A86
:10B23000EBD10098CDE90631FDF72CFEDDE90631B2
:10B240000644E2E7631BB3F5806F97D245B9A6F1D8
:10B250000804E018B1E600BF80EE020020290300D8
:10B26000029A9B0828602B709DF81030C2B1EB70D9
:10B2700085F80280B8F1000F05D0002208A8C5F1BA
:10B28000010C97420ED14FF0000AC5F101030DF1F8
:10B29000200901930DF1300B574512D1601B8CE64C
:10B2A0006B70E5E710F8013B190608D504EB0C0EAE
:10B2B000B64503F07F033FF67EAE04F8013B013252
:10B2C000DFE7B8F1000F03D099F90020002A17DB5F
:10B2D000029BD3B11AF80B2004F8012B0022019B2A
:10B2E00098182044B0423FF666AE99F800000099E5
:10B2F00004F8010B2046039213F032F8039A144429
:10B300000AF1010A09F10109C6E799F8002055F888
:10B3100022300093029B009845F82230FDF7BAFDD9
:10B32000421CDCE76FF00D0047E600BF014B1860E0
:10B33000704700BF58C6002030B5002587B0CDE962
:10B3400003010446009503A905480595FDF774FE21
:10B35000DDE904309842B8BF255407B030BD00BFC6
:10B3600057A202000F2808B506D90FF029FB0923C0
:10B3700003604FF0FF3008BD2822044B02FB00336E
:10B38000D3E8AF3F002BF0D00020F4E764C60020E4
:10B390002823434330B50D4908330B44D3E8AF2F7E
:10B3A00092B1541ED3E8EF5F954204D1C3E8EC4F4D
:10B3B000BCF1000FF6D1F1D1012A05D12823584361
:10B3C00000230A180B50536030BD00BF5CC600203C
:10B3D00070B504460E461546FFF7C4FF00280DDB86
:10B3E00028236343064AD1184968316015B10C33EC
:10B3F00013442B6028235C43105970BD0020FCE7E8
:10B400005CC6002070B500254FF0FF334FF0FF32CF
:10B4100017480AF0C7FF174BD3E8AF2F7AB10135B1
:10B42000102D03F12803F7D10FF0CAFA17234FF0BC
:10B43000FF3503600E480EF062FF284670BD2824D9
:10B440006C43D3E8EF0F0130C3E8E10F0029F8D1D6
:10B45000094E331932515A6004F10C00304412F095
:10B4600008FB04F12000304412F012FCE2E700BFB8
:10B4700008CE002064C600205CC6002010B404463C
:10B48000104628225443094B1A191951506048B1EB
:10B49000C2683AB10C34234440F205125DF8044B03
:10B4A0000EF01EBF5DF8044B704700BF5CC6002065
:10B4B0002DE9F04104460F469046FFF753FF002860
:10B4C0001ADB28235C430E4E04F10C0535444FF083
:10B4D000FF324FF0FF3328460AF064FF33195B68F0
:10B4E0003059424639461B689847044628460EF0B4
:10B4F00006FF2046BDE8F0814FF0FF34F9E700BFBA
:10B500005CC600202DE9F04104460F469046FFF747
:10B5100029FF00281ADB28235C430E4E04F10C059A
:10B5200035444FF0FF324FF0FF3328460AF03AFF20
:10B5300033195B683059424639465B689847044680
:10B5400028460EF0DCFE2046BDE8F0814FF0FF34C7
:10B55000F9E700BF5CC60020F8B50546FFF702FF1B
:10B5600000281ADB28246C430D4F04F10C063E44DE
:10B570004FF0FF324FF0FF3330460AF013FF3B1914
:10B580005B6838599B689847044630460EF0B7FE12
:10B590002846FFF7FDFE2046F8BD4FF0FF34FAE7DE
:10B5A0005CC6002073B504460D461646FFF7DAFE6A
:10B5B00000280EDB282303FB04F0074900960C1833
:10B5C0002B46095840F2011260680EF089FE02B065
:10B5D00070BD4FF0FF30FAE75CC60020F0B50246C0
:10B5E00001680A270020074E0B461C780131355DA3
:10B5F0006D0701D41360F0BD07FB0043A3F13000D9
:10B60000F2E700BF382603002DE9F84F15469A46A9
:10B61000D378224A6F2B12F803B080460F460BF006
:10B62000030B29D024D8582B0CBF10260A26DDF88E
:10B6300028903246002340463946FDF7F3F9092A9F
:10B64000D4B21ED83034B045E4B277F1000709F81F
:10B65000014D01D3D14511D82B789B0605D5082E75
:10B6600015D1AB7843F00803AB704846BDE8F88FBE
:10B6700003F0F703702BD7E70826D8E780460F467C
:10B68000D7E7BBF1010F0CBF37345734DBE7102E7F
:10B69000EBD1AB7843F01003E6E700BF3826030098
:10B6A0002DE9F84340F26C7344690569E1170135EF
:10B6B000E41841F10001022D8CBF00230123E41A9C
:10B6C000C76861F100010029064607F1FF374EDA2D
:10B6D0006FF4C7704FF4C8720023201861F10001A5
:10B6E000FDF750F9244B4FF03C0E03FB0044D6E924
:10B6F00000834FEAE37C99466346022D02468CBFE5
:10B700006FF002000920B6680544C6FB0E93A9FB42
:10B710000EC60EFB036640F26D1E9920A3080EFBB9
:10B7200004333B44642745430520B4FBF7F402355A
:10B73000B5FBF0F51B1B114C1CEB080CA2FB042005
:10B7400004FB01012B4446EBE87698180C4A41F1C2
:10B75000000380180B4A63F10003A0FB020102FB07
:10B76000031110EB0C0041EB0601BDE8F8834FF428
:10B77000C87200232046B3E770FEFFFFB13A020013
:10B780009405F5FF805101002DE9F047058B044633
:10B790002807904611D4022905F0070540F0CC8017
:10B7A00020460EF046FE78B10138218B042811D8CE
:10B7B000DFE800F0C2106D85950001290CBF45F04F
:10B7C000100545F02005258388F31188BFF36F8F9E
:10B7D000BDE8F08701F0070AAA4500F0A580002720
:10B7E000B9463E46A368002B00F0BC8041F008013A
:10B7F000218388F31188BFF36F8FA168002900F0BF
:10B80000BA800D68002900F0B680334652462046C3
:10B81000D1F80480C047002D76D02B6829461D46FC
:10B82000F0E701F007035A1F012A1BD8002221F07C
:10B830000701062B276889B2C4E9002209D13B46DB
:10B8400003E0628B013262831B68002BF9D141F067
:10B850000201204621830EF0ECFD00287AD041F051
:10B86000200176E0042B0AD121F0070189B220469D
:10B8700021830EF0DEFD10B141F020012183218BE8
:10B8800001F0070AAA454FD00027B946AAE7236965
:10B8900021F0070141F00601062DD3F80090218325
:10B8A0002DD1B9F1000F3FD041F00801218388F379
:10B8B0001188BFF36F8F20463949C84729E021F02E
:10B8C0000701236941F0040189B2042DD3F80490E3
:10B8D0002183E6D000274FF0040A3E4682E721F09C
:10B8E0000701236941F0050189B2052DD3F80890BD
:10B8F0002183D6D000274FF0050A3E4672E7002785
:10B900004FF0060A3E466DE72B4687E7B9F1000F78
:10B91000D1D1EFF31188202383F31288BFF36F8F07
:10B92000238B23F008032383258BEA062ED525F0ED
:10B930001003238305F007056669218B002EBFF6EF
:10B9400070AF00232768C4E9003321F0070141F0FC
:10B9500001012183218B4FF0000901F0070AAA455C
:10B960007FF440AF002F9CD041F00801218388F381
:10B970001188BFF36F8F002FC8D03D68394633461A
:10B98000524620460EF081FD2F46F4E7AB067FF5C8
:10B990001BAF25F02003238305F0070500E700BF58
:10B9A000B7A402002DE9F84F81462F480F460EF04C
:10B9B0002CFE064670B92D4C0546A0464FF0010BF3
:10B9C000DFF8ACA0544507D3B9F1000F02D04FF017
:10B9D000010AE5B9BDE8F88F237B6BB12368DB680A
:10B9E0000BB12046984723681B6943B9636804225A
:10B9F0002046196800F0C4F801361034E2E720460A
:10BA000098470028F2D00BFA06F31D43F4E7A94645
:10BA100095FAA5F4B4FA84F40AFA04F3260108EBC3
:10BA200004146FEA030B25EA0305237B63B158F87E
:10BA300006301B6993B9464473680422204619688E
:10BA400009EA0B0900F09CF8002DE1D127B14FF471
:10BA5000A47000210BF042FA4D46BAE72046984701
:10BA60000028F1D1E7E700BFD8DA00208CF302000C
:10BA70009CF30200014B53F82000704708F50200C8
:10BA800008B5034608462BB1044A136000F06CFA6F
:10BA9000002008BD6FF01500FBE700BFDCC80020E8
:10BAA0000023054A4FF400411370044A0448136010
:10BAB000044A1360FFF7E4BF7AE40020D0DA0020E4
:10BAC00007A60200D4DA002070B50B4D297841B9E1
:10BAD0000120FFF767FF094C094EB44202D301234E
:10BAE0002B7070BD63685B791BB1236820469B682F
:10BAF00098471034F1E700BF7AE400208CF302008D
:10BB00009CF3020010B5044606480EF07EFD3CB1E1
:10BB1000054BD3E8EF1F0139C3E8E21F002AF8D133
:10BB200010BD00BFD0DA0020D4DA002070B50A4B77
:10BB300005461B689847094C094EA860B44200D3DB
:10BB400070BD63685B7923B12368294620461B6872
:10BB500098471034F2E700BFDCC800208CF30200E5
:10BB60009CF30200044A054B9B1AB1EBD30F34BF80
:10BB700052F831000020704774F202008CF302008A
:10BB8000084B10B4C31A44681B1101332371436876
:10BB90009A7101224368196043685A715DF8044B39
:10BBA0000EF051BD8CF302002DE9F04F85B002AFCD
:10BBB0000446D7E90EA90E46934698463D6BBAF166
:10BBC000000F33D0C7F80490CDF8009010215346F1
:10BBD00000207A6BFFF7D8F90146154A04F00704F4
:10BBE0000BF0070BE40044EA8B1402EA41221443F1
:10BBF00044EA055417350D4425F00705ADEB050D56
:10BC000002ADBAF1000F07D0CDF8009053467A6B21
:10BC100005F11000FFF7B8F94346224631462846A1
:10BC20000EF014FD0C37BD46BDE8F08F5146D4E749
:10BC300000FE0F00406820B1034BC01A40F3CF0054
:10BC400070474FF0FF30704774F202000EB403B536
:10BC500003AB53F8042B0146044801930EF039FD61
:10BC600002B05DF804EB03B0704700BF7FA602008E
:10BC7000CA0605D48B064CBF02490349FFF7E6BF4D
:10BC8000704700BFEEFD02001B1F03002DE9F04FBF
:10BC90008BB09A46169B9DF854B00693179B0446AA
:10BCA0000593189B0D469046199E0493BBF1000F17
:10BCB00000F09E8006F00103089306F00803079346
:10BCC00006F4807309930EF0BFFC06F002090246E9
:10BCD00000283BD020468F49FFF7B8FF0746B9F14F
:10BCE000000F08D016F0440F32D12A4620468A4968
:10BCF000FFF7ACFF0744089B53B1884B204653F82D
:10BD00002B20874B8749002A08BF1A46FFF79EFF62
:10BD1000099B002B48D0079B002B62D1B8F1000F84
:10BD200064D0424620468049FFF790FF0546069BB7
:10BD30003D44002B6BD1049B002B71D1F30700F124
:10BD4000E38031462046FFF793FFD7E00746C6E77A
:10BD5000764B18680028CDD0754B4FF47A791B6864
:10BD60004FF46161B5FBF3F5B5FBF0F300FB135540
:10BD700009FB05F5B3FBF1F2B5FBF0FE4FF03C0C0F
:10BD800001FB123100FB1E55B1FBFCF309FB05F56D
:10BD9000B5FBF0F50CFB131120460091CDE901E550
:10BDA0006449FFF753FFA5E7079BEBB1624B2046C1
:10BDB00053F82B206149FFF749FF0546B8F1000F02
:10BDC00005D0424620465849FFF740FF0544BAF1E6
:10BDD000000FACD0524620465949FFF737FF0544C3
:10BDE000A5E74FF0000AE1E7079DE7E745469EE734
:10BDF000BAF1010F069B06D1002B65D1049B002BE5
:10BE00007CD000250CE0002BF8D04E485DE04E4879
:10BE1000069B22464D490EF0EBF9049B002B69D09E
:10BE2000DFF83C81DFF83C91049F3146102F20461B
:10BE300028BF10274FF0000AFFF71AFF554546DCD0
:10BE4000059B494620461A78FFF700FF4FF0010A8C
:10BE50001AF0070F03D141462046FFF7F7FE57457A
:10BE60003CD9059B4946204613F80A20FFF7EEFE11
:10BE70000AF1010ABAF1100FEAD14FF0000A204688
:10BE80003349FFF7E3FE5246059B20469A5C314B4F
:10BE9000995C11F0970F08BF2E222F49FFF7D6FEAD
:10BEA0000AF1010ABAF1100F1DD01AF0070F03D1E1
:10BEB00041462046FFF7CAFE57455246E4D8414660
:10BEC0002046FFF7C3FEEBE71F485D46A0E741466B
:10BED0002046FFF7BBFE0AF1010AAFE720461F49E3
:10BEE000FFF7B4FEC4E7059B3B440593049BDB1BB3
:10BEF000049399D1BBF1000F7FF420AF20460BB023
:10BF0000BDE8F04F0EF0ECBB2046054A0549FFF7AF
:10BF10009DFE16E7280003002C00030018F5020020
:10BF200023000300DF21030051000300E0DA0020BA
:10BF3000DCDA0020350003002CF502005500030078
:10BF40005B0003009BA602007FA60200D3A60200AE
:10BF50006A00030038260300BA14030066000300D9
:10BF6000680003006000030000210123064A90429C
:10BF700006D8064A01B901231360054B18607047C3
:10BF8000012140085B00F2E740420F00DCDA0020AC
:10BF9000E0DA0020F8B50D460446064F4618B442D4
:10BFA00001D12846F8BD14F8011BBB6801485B6845
:10BFB0009847F4E7E4EF0200014B0360002070476C
:10BFC00074F50200F0B504469BB00F4615460021FB
:10BFD000302202A812F0D1F9002C00F0A080002D30
:10BFE00000F09D809DF8083023F03F0343F01B03D1
:10BFF0008DF8083011F0B4FF4A4A0026A0FB020376
:10C0000002FB013110F5804041F10001C00B40EA14
:10C0100041400023434AC90BFCF7B4FC41F2C6037C
:10C020004FEA106C5A4303024CEA012C03F47F03DD
:10C0300043EA0C03C4E9040143EA0063000A00F484
:10C040007F400343A26112BAE0680C930D92302244
:10C050003346CDE9006602A90EF03EFD00280FDB55
:10C06000314630220EA812F088F9A1683A462046DF
:10C070000EF09AFDB04205DA0EF0A2FC00684042D4
:10C080001BB0F0BD42D0E06830223346CDE90066F7
:10C090000EA90EF055FD0028EEDB302839D1D4E989
:10C0A0000412149B1BBA964208BF8B4202D06FF059
:10C0B0001500E5E7159BA2691BBA9342F7D19DF8DD
:10C0C000383003F00703042BF1D19DF839301BB34E
:10C0D000189B199A1BBA12BA53EA0201E7D0AA6058
:10C0E000002293420DDA10498B4202D8C5E9003292
:10C0F000DDE70E4A9B1862EB02020020C5E9003220
:10C10000BEE70A495B1842F10002F6E76FF07300E0
:10C11000B6E76FF07900B3E76FF00F00B0E76FF0AC
:10C120000D00ADE740420F007F7EAA838081557CE1
:10C1300008B504480EF0A2F8BDE8084002480EF029
:10C140009DB800BFA6000300DB0003002DE9F04707
:10C1500080460D468CB0002966D000248B680122F1
:10C1600005934B68204604930B683B4903933B4B74
:10C17000CDE90044029323460EF04BFB6B6901228C
:10C1800005932B6920460493EB6833490393344BA2
:10C190000094CDE9014323460EF03BFBEB690122FD
:10C1A0000393304B2046CDE901432B4923460094AD
:10C1B0000EF02FFB2F462646DFF8B8A0DFF8989048
:10C1C000FB6A01220A93E31C0993BB6A4946089360
:10C1D000A31C07937B6A10370693631C05933B6986
:10C1E000CDE9016ACDE903430023009618460434E3
:10C1F0000EF00FFB102CE3D12B6E012203931A4B90
:10C200001549CDE901630023009618460EF001FBA5
:10C21000AB6901220393154B0F49CDE9016300235C
:10C22000009618460EF0F5FAB8F1010F0DD1EFF3B4
:10C230000583103B03930E4B4246029300230649AD
:10C240001846CDE900330EF0E4FA294640460CB01A
:10C25000BDE8F04709F0F4BE24F302000901030031
:10C260003801030067010300B9010300C80103009E
:10C27000F60103007601030030BFFFF7FDBF00BFEA
:10C28000074A936893F90E10002907DB92699342DD
:10C290001FBF044A536843F080535360704700BF88
:10C2A00028E4002000ED00E0F0B50024414B85B00B
:10C2B0000293074623460E4601222046CDE900445C
:10C2C0003D490EF0C1FA3D4B9B6ADD066FD53C4BF4
:10C2D0002046CDE9014301222346374900940EF060
:10C2E000B3FA1120354B9B6A1C070AD5354B012246
:10C2F0000293002330491846CDE900330EF0A4FA2A
:10C3000012202E4DAB6A99071FD500242E4B012217
:10C31000029320462346CDE9004427490EF094FAC3
:10C320006B6BAA6A12060FD50393284B0122CDE945
:10C33000014320462346204900940EF085FA1FB1A0
:10C34000AB6A23F08003AB6213201C4B9B6ADD07B2
:10C350000AD51F4B01220293002317491846CDE945
:10C3600000330EF071FA1420144B9B6A9C060AD518
:10C37000184B0122029300230F491846CDE90033E0
:10C380000EF062FA15200D4B9A6AD10658BF9A6AD0
:10C390009A6A920642BF5A6A22F400525A629A6A14
:10C3A00042F0FF029A620023337005B0F0BD102006
:10C3B00098E700BF0902030024F3020000ED00E04B
:10C3C0001F02030052020300650203007D02030006
:10C3D00093020300B2020300F0B50024434B85B082
:10C3E0000293074623460E4601222046CDE900442B
:10C3F0003F490EF029FA3F4B9B6ADB0465D53E4B63
:10C400002046CDE9014301222346394900940EF02C
:10C410001BFA1720374B9B6A1D050AD5374B0122A3
:10C420000293002332491846CDE900330EF00CFA8E
:10C430001820304DAB6A9C051FD50024304B0122DB
:10C4400020460293CDE90044234629490EF0FCF929
:10C45000AB6BAA6A10040FD503932A4B0122CDE9D6
:10C46000014320462346224900940EF0EDF91FB106
:10C47000AB6A23F40043AB6219201E4B9B6A59053B
:10C480000AD5214B01220293002319491846CDE910
:10C4900000330EF0D9F91A20164A936A13F4807308
:10C4A00015D01A4B01220293002311491846CDE9F9
:10C4B00000330EF0C9F91B200E4A936A43F47F4300
:10C4C00093620023337005B0F0BD1620A2E7926A94
:10C4D0009204F1D50E4A1846CDE9013204490122F1
:10C4E00000930EF0B1F91C20E6E700BFE102030063
:10C4F00024F3020000ED00E0F70203005202030003
:10C500000803030021030300360303005103030063
:10C51000B20203001FB500243E4B3F4902930122A3
:10C5200023462046CDE900440EF08EF93B4B9B6A32
:10C5300099016DD53A4B2046CDE9014301222346AE
:10C54000354900940EF080F91E20344B9B6ADA01C5
:10C550000AD5344B0122029300232F491846CDE916
:10C5600000330EF071F91F202C4B9B6ADB020AD5B9
:10C570002D4B01220293002327491846CDE90033B1
:10C580000EF062F90220254B9B6A1C030AD5274B4B
:10C5900001220293002320491846CDE900330EF012
:10C5A00053F921201D4B9B6A59030AD5204B0122C8
:10C5B0000293002318491846CDE900330EF044F9E0
:10C5C0002220164B9B6A9A030AD51A4B012202932A
:10C5D000002311491846CDE900330EF035F9232028
:10C5E0000E4B9B6ADB030AD5134B012202930023F7
:10C5F00009491846CDE900330EF026F92420074AF0
:10C60000936A6FEA03436FEA1343936204B010BD69
:10C610001D209AE76903030024F3020000ED00E007
:10C620008103030094030300AE030300D803030057
:10C63000F60303001B040300350403002DE9F04357
:10C64000754B0546D3F80480894614460026A3B0EE
:10C65000C8F3080786F31188BFF36F8F02F07F439A
:10C66000B3F17F4F25D112F0010322D1510603D43B
:10C6700022070DD401260DE0684A1846CDE90132A3
:10C680006749012200930EF0DFF814F0040400D093
:10C690004D4600264FF00009FB1E8DF81F90092B18
:10C6A00000F2A080DFE803F0079498919E9E9E9E82
:10C6B0009E9C3546EEE75B4B0122CDE901930023BA
:10C6C00057491846544FCDF800900EF0BDF88DF83C
:10C6D0001F90FC6A14F0020405D0534BCDE901937E
:10C6E000CDF8009006E0FB6A002B0BDA4F4B00946C
:10C6F000CDE9014300230122184649490EF0A4F870
:10C70000002430E0FB6A5B00FAD5494B0122CDE9F9
:10C71000014320462346424900940EF095F87B6978
:10C72000AA6943F480737B61BFF34F8FBFF36F8FB0
:10C730007B6932F8022C23F480737B61BFF34F8F47
:10C74000BFF36F8F4DF602739A4226D12B682046B5
:10C750000393384B0094CDE901430122234630492D
:10C760000EF072F82C689DF81F309BB9682229469C
:10C7700008A811F0F5FD0F9B002E47D0C3F3080267
:10C7800022B96FEA53236FEA43230F93204608A987
:10C79000FFF7DCFC23B0BDE8F083BB6ADBB233B14A
:10C7A00001200DF11F01FFF77FFD0446DBE7BB6AA7
:10C7B00013F47F4F05D001200DF11F01FFF70CFE90
:10C7C000F3E7BB6AB3F5803F9AD3FFF7A3FEECE72C
:10C7D00000200DF11F01E6E700200DF11F01EDE73C
:10C7E000154B7BE7154A18F4F87F154B18BF134615
:10C7F000103FCDE90337134B012202930023084970
:10C800001846CDE900330EF01FF879E723F4FF73E3
:10C8100023F00103B9E700BF00ED00E08E04030040
:10C8200024F30200B1040300C8040300E904030078
:10C83000F704030016050300320503007504030026
:10C840006004030056050300044B5A6942F01002CD
:10C850005A615A6942F480625A61704700ED00E003
:10C86000EFF30880EFF3098101B57246FFF7E6FEAA
:10C8700001BD00BF002080F31488BFF36F8F00203C
:10C8800080F30A8880F30B8806F0F4FA00200E4942
:10C890000860BFF34F8F0D4880F3088800F02CF834
:10C8A000202080F311880A484FF40061401880F37B
:10C8B0000988EFF314800221084380F31488BFF342
:10C8C0006F8F00F023F9000094ED00E0702101204B
:10C8D00030080120002318460649D1F89020C2F301
:10C8E0000722934200DB7047C1F89830C1F8A000DE
:10C8F0000133F6E700ED00E010B572B6002484F3D2
:10C900001388FFF7E7FF23464FF0FF300C4A03F18F
:10C9100020010133102B42F82100F8D100234FF001
:10C92000FF30074A03F160010133102B42F8210068
:10C93000F8D162B6BFF34F8FBFF36F8F10BD00BF4A
:10C9400000E100E0084B9B6883420BD1EFF30583C5
:10C9500043B1064B5A6842F080525A605A6A22F438
:10C9600000425A6211F09FBA28E4002000ED00E076
:10C970006FF00A01084A9368D967084998674B68BD
:10C9800043F080534B60002383F31188BFF36F8F14
:10C990009368D86F704700BF28E4002000ED00E0E6
:10C9A0000E4A936883F8C100EFF31183202383F3C9
:10C9B0001288BFF36F8F4FF00061936920F0FF0082
:10C9C0009360074A5160002193F8C12010439A6F89
:10C9D000996782F31188BFF36F8F704728E40020B6
:10C9E00000ED00E01D498A6882F8C1E04FF0300098
:10C9F0001044EFF3098C80E8F01F1EF0100F03D1F4
:10CA000002F1800080EC108A74467046FFF7C8FF80
:10CA1000A64612498A6886461EF0100F03D00023EE
:10CA2000E1EE103A03E002F1800090EC108AEFF39F
:10CA3000148323F0040383F31488BFF36F8F02F190
:10CA4000300090E8F01F8CF3098802F1000004B573
:10CA50000DF03CFFBDE804407047000028E40020D2
:10CA60001EF0040F0CBFEFF30880EFF3098081691B
:10CA700011F8021C0229FFD001B50DF0DAFE01BD4C
:10CA800040B2002807DB01234109034A00F01F00E0
:10CA9000834042F82130704700E100E040B20028B6
:10CAA0000CDB01220649430900F01F0082402033BD
:10CAB00041F82320BFF34F8FBFF36F8F704700BF44
:10CAC00000E100E0054B420953F82220012300F069
:10CAD0001F0003FA00F01040704700BF00E100E0C3
:10CAE00040B2002801F10101ACBF00F16040064BEB
:10CAF0004FEA4111C9B2ABBF00F5614000F00F0031
:10CB000080F800131954704714ED00E0144A08B57A
:10CB1000144B22F07F029A60BFF34F8FBFF36F8FE9
:10CB2000D3F8882022F47002C3F88820D3F8882034
:10CB300042F4A002C3F888204FF04042C3F83422E8
:10CB4000BFF34F8FBFF36F8F0023E1EE103A09F070
:10CB500053FB0AF07FFA00F07BF809F08DFB00BF71
:10CB60000080010000ED00E042F8203C009B0D49F0
:10CB700042F81C3C019B21F0010142F8183C029B49
:10CB800042F8081C42F8143C4FF0807342F8043C11
:10CB9000002383674FF43C43203A0265C0F8C0305D
:10CBA000704700BFB1A20200104B9B6883421AD1AC
:10CBB000EFF30580B8B9EFF31181202282F31288D8
:10CBC000BFF36F8F1A7B22F002021A73EFF3148304
:10CBD00023F0040383F31488BFF36F8F81F311886C
:10CBE000BFF36F8F70476FF01500704728E4002087
:10CBF0000E4615460023E1EE103AEFF3148323F0BE
:10CC0000040383F31488BFF36F8FBFF36F8F0A4B56
:10CC10009860836E83F30B882C4686F309884FF067
:10CC20000000064B984720464FF000014FF00002ED
:10CC30004FF00003024C204728E40020D5A8020052
:10CC4000B1A202001022014B1A61704700ED00E012
:10CC5000002320210348C2180133412B82F800131E
:10CC6000F9D1704700E100E008B5EFF30583064A0B
:10CC7000103B02EBC30152F8330049688847BDE816
:10CC80000840FFF7FDBA00BF5CF002001FB5094C79
:10CC9000094A23460121094800F020F900230393A3
:10CCA000074B0121E41A01A80193029400F020F936
:10CCB00004B010BD0000042080C5002074F50200FF
:10CCC00038CF002010B50C7A0B6804F01F0223F057
:10CCD0001F031A43CB68640923F01F03054943EA85
:10CCE000440343F00103C1F89800C1F89C20C1F847
:10CCF000A03010BD00ED00E01FB50E4B0446D3F888
:10CD00009030C3F30723013B98420FD90A4B03909D
:10CD10000293002301221846CDE9003307490DF0A4
:10CD200005FE6FF01504204604B010BDFFF7CAFFE2
:10CD3000F9E700BF00ED00E06D05030004F3020019
:10CD40002DE9F04F8946144606464FF00008544D31
:10CD500089B0C8452DDAD6F804A0BAF1000F4AD040
:10CD6000BAF11F0F17D91AF01F0F14D1D6F800B05F
:10CD70001BF01F0F0FD158460DF0CFFD07460AEBF1
:10CD80000B0001380DF0C9FD874216D06FF0150772
:10CD9000444B039702E0444BCDF80C8002930023F0
:10CDA00001221846CDE9003340490DF0BFFD6FF078
:10CDB0001504204609B0BDE8F08F17F1160FE7D033
:10CDC000BC42E5DDC5F89870D5F89C10C5F89870A0
:10CDD000D5F8A03021F01F0143F01F0BD6E9003237
:10CDE0001A44994202F1FF3A1DD1D34507D1314689
:10CDF000F8B20DF0ABFD08F101080C36A9E7314699
:10CE0000C5F89870D5F89C3022F01F0203F01F037C
:10CE10001343C5F89C30E0B20DF098FD10F1160FE9
:10CE2000C5D0441CE7E7C5F89870D5F8A020013BB1
:10CE300023F01F0302F01F021343D3453146E0B233
:10CE4000C5F8A030E8D00DF081FD10F1160FAED07E
:10CE5000C5F89870D5F89C209DF818300BF1FF3B71
:10CE600062F304038DF81830D5F8A0309DF818202F
:10CE70005B0863F347128DF81820D6E9003213449B
:10CE8000049323F01F035B44A3EB0A03013023F058
:10CE90001F0304A9C0B20793FFF72EFFBEE700BF30
:10CEA00000ED00E0B60503009305030004F3020063
:10CEB0000522044BC3F89420BFF34F8FBFF36F8F4D
:10CEC000704700BF00ED00E0BFF35F8F0022024B10
:10CED000C3F89420704700BF00ED00E010B5034C8C
:10CEE0002278FFF72DFF207010BD00BF7CE40020EA
:10CEF0002DE9F74F294D8A4606464FF00008AB460C
:10CF0000274FD0451BDAD6F80490B9F1000F3FD077
:10CF10003168084601910DF000FD0199044609EBC6
:10CF2000010001380DF0F9FC84424FF014021D4B52
:10CF300008D002FB08F36FF015024BF8032003B092
:10CF4000BDE8F08F14F1160F2C60F8D01978A142CB
:10CF5000F5DD02FB08B0C7F89840C7F89840D7F84D
:10CF60009C4000F10801007B64F304000871D7F8CD
:10CF7000A0000C79400860F347140C71D7F89C109E
:10CF800021F01F016960D7F8A01021F01F0129616D
:10CF900008F1010814350C36B3E700BF10DB0020A0
:10CFA00000ED00E07CE40020F0B54149414CD1F8AF
:10CFB00090302568C3F307239D4287B075D80020C1
:10CFC000FFF782FF3C4BC1F8C030854216D13B4C85
:10CFD00001A82570FEF7F0FF00250646384FAE4247
:10CFE00013D1002023783249D1F89020C2F30722D0
:10CFF000934254DBFFF75CFF00202FE0616801EBF8
:10D000000011FFF75FFE0130DFE70199280101EB16
:10D010000513DA683A40B2F5001F21D0B2F5800F4F
:10D020002BD0B2F5801F38D15A689B680958013B54
:10D0300022F01F0003440120844623F01F0340EA2E
:10D040004C10CDE902218DF8100002A9207805933B
:10D05000FFF752FE00281DDA6FF0150007B0F0BD93
:10D060005A689B680958013B22F01F0003444FF0A7
:10D07000020C012023F01F03E1E75A689B6809585E
:10D08000013B22F01F0003444FF0000C062023F068
:10D090001F03D4E723780133237001359FE7C1F8DC
:10D0A0009830C1F8A00001339EE74FF0FF30D5E77C
:10D0B00000ED00E080F50200AAFF44007CE40020BF
:10D0C0000000F0FF014B1860704700BFE8C8002067
:10D0D000F8B50D46094F461EC0F10104A3199D4243
:10D0E00001DC2846F8BD73780A2B02D10D203B687D
:10D0F00098473B6816F8010F9847EFE7E8C800200B
:10D1000010B5074C2368C2180648C0F1005101F55C
:10D1100080218A4236BF22604FF0FF30C01810BD18
:10D1200024DB0020702F012008B505480DF0A6F87B
:10D13000002383F31188BFF36F8F0423184602DFA7
:10D14000E805030038B50025074C204610F091FC97
:10D1500004F11400013510F09BFD052D04F12404A9
:10D16000F3D1002038BD00BF28DB002038B50024F3
:10D17000054D2846013410F08BFD052C05F10805FE
:10D18000F7D1002038BD00BFDCDB002038B500241B
:10D19000054D2846013410F06CFC052C05F11405F2
:10D1A000F7D1002038BD00BF04DC0020002230B5DC
:10D1B0001546094B09494C68013203F1D000052A94
:10D1C000C3E93414206003F5807303F8085C4860F9
:10D1D000F1D1002030BD00BF48CF0020ECC80020B6
:10D1E0000122024B0020C3F8402570470090034005
:10D1F00020B1034B800143F001031847704700BF83
:10D2000000F4020070B5334B86B004AE93E803001F
:10D2100086E80300304810F054FB0446002838D15B
:10D220002E4B0122CDE901032D49034600900DF05C
:10D23000C9FB6FF0120303932A4B0122CDE901438E
:10D2400020462346264900940DF0BCFB264B93E86C
:10D25000030086E80300204810F033FB054640BB7E
:10D260006FF01204214B0122CDE901031C49034652
:10D2700000900DF0A7FB1E4B0122CDE9015328467B
:10D280002B461749039400950DF09CFB204606B0F1
:10D2900070BD30464FF420210DF0A3FB154B032247
:10D2A000029300230E491846CDE900330DF08AFBA6
:10D2B000CCE7002430464FF4C0210DF092FB0E4B1A
:10D2C0000322029320462346CDE9004404490DF091
:10D2D00079FBDBE7A0F30200A8EF02003F060300A2
:10D2E00074F2020064060300A8F30200A206030021
:10D2F000CB06030091060300FC0603002DE9F04174
:10D3000005460E461746104CDFF84080444507D3CB
:10D310000DF056FB6A2303604FF0FF30BDE8F0814B
:10D320002368AB4200D063B93A4631462846A36829
:10D33000984730B13A4631462846E368BDE8F041A7
:10D3400018471034E2E700BF64F2020074F20200F2
:10D350002DE9F04F4FF0000846469DB0CDE906019B
:10D3600008A814461D4610F0FDFDDDE90823DDE99F
:10D37000069BCDE904230DAB0A93CDF80C80BBF1DD
:10D38000000F22D1002E6ED0B5F1FF3F08BFB4F1DF
:10D39000FF3F17BF4FF47A724FF0FF34A4FB0243F4
:10D3A00002FB05331CBFE40B44EA4344079B4FF4E4
:10D3B000827200934146069B039801940DF02AFB6C
:10D3C000074638461DB0BDE8F08FD9F800000028A8
:10D3D00029DB0CAA0BA9FDF7FBFF074618B34FF09A
:10D3E000FF324FF0FF330C980DF023FB1CAB019381
:10D3F0000AAB00934FF481724B4639460B980DF0FF
:10D4000009FB10F1780F824612D10022002308A8F0
:10D4100010F0A8FDDDE90834CDE9043400240C98AF
:10D420000DF009FB254609F108090BF1FF3BA6E7C2
:10D430001AF1120F0C980BD1039B1BB10DF0FBFAE4
:10D440000126F0E70B9BB84603930DF0F4FAF7E7DB
:10D450000DF0F1FABAF1000FE5DA0DF0B1FACAF108
:10D460000003036021E0DDE9042308A810F09EFD1D
:10D47000DDE9084522462B46DFF8CC800A990DAC41
:10D48000091B891008FB01F1204609F0E7FF00F1B4
:10D490000B030B2B054604D82A4F1F4117F0010739
:10D4A00006D00DF08DFA6D4205604FF0FF3788E72A
:10D4B000B9460A94DDE906458DB9B9F1000F80D06F
:10D4C000002F7FF47EAFDDE9042308A810F06EFD85
:10D4D000DDE908452B4625432246CFD171E7206878
:10D4E000E680002827DB0CAA0BA9FDF771FF824616
:10D4F00018B92023E38001371DE04FF0FF324FF0D1
:10D50000FF330C980DF095FA0AAB514640F2031226
:10D5100000930B9823460DF07DFA82460C980DF08F
:10D520008AFA1AF10B0F09D0BAF1000F95D1B4F9AC
:10D530000630002BDFD10834013DBDE74FF0010973
:10D54000F9E700BF7EF7FFFFCDCCCCCC014B1860D4
:10D55000704700BF68DC002010B4034C24682468C6
:10D56000A4465DF8044B604768DC0020014B1B6853
:10D570005B68184768DC00202DE9F0410D4606463F
:10D58000E8B1E1B10846FBF785FC08281AD8104F2E
:10D59000DFF84080441C474507D322462946301D0A
:10D5A00010F0DEFE0020BDE8F081B74205D0224633
:10D5B0002946381D10F0C4FE38B13C37EBE76FF058
:10D5C0001500F0E76FF05A00EDE76FF07700EAE73B
:10D5D000C8CE002004CF0020F0B54FF0FF324FF04E
:10D5E000FF33274885B00DF031FB0025254C264E32
:10D5F000B44205D3224805B0BDE8F0400DF044BB6D
:10D60000C4E90155236825731B689F6897B13B687F
:10D6100083B104F1100010F02CFA04F1240010F092
:10D6200028FA3B682046984794F8383023F00303E3
:10D6300084F83830237903BB2046CDE901338DF8D7
:10D640000C300DF09CFB40B1104A01A81368591C26
:10D65000116008210E4A0CF01EFE9DF8043043B9FB
:10D660000C4A01A81368591C116008210A4A0CF0E1
:10D6700012FE204601A9FFF77FFF3C34B8E700BF48
:10D6800044CE0020C8CE002004CF002070DC002053
:10D69000410703006CDC00204807030038B5074C45
:10D6A000074DAC4200D338BD032120460DF0D7FA18
:10D6B00010B920460DF031FB3C34F2E7C8CE002013
:10D6C00004CF002013280ED8084A12F8103053B1A6
:10D6D00002EB4002527832B10868434393FBF2F305
:10D6E00000200B6070476FF0150070474E07030075
:10D6F0000122054BC3F8002590F8861009B1DA60C5
:10D7000070471A605A60704700E00040F0B50A792F
:10D710008D7902F01F00072885B025D80F780B2FD0
:10D7200018D8DFE807F007070707170617171113C0
:10D73000171504274B78032B1AD0042B4FF0000346
:10D7400028D02E4A029208E00527F3E70627F1E7E2
:10D750000727EFE72A4B0293002301221846CDE961
:10D76000003328490DF018FB6FF0150005B0F0BD2F
:10D77000012644F20A034C889C4239D00CD844F26A
:10D7800003039C4216D044F205039C422ED07CB386
:10D790001D4BE0E71E46ECE744F214039C4229D0FF
:10D7A00044F228039C4227D044F20F039C42EFD15D
:10D7B000032400E00024C2F34013144A49790244D0
:10D7C00082F8A010020100201B0543EA072343EA68
:10D7D000063302F1804202F5604243EA0443C2F894
:10D7E0001835C2F81455C2F81005BFE70124E2E766
:10D7F0000224E0E70424DEE70524DCE795070300C4
:10D80000760703007CF20200B907030080C5002000
:10D81000F0B50D4687B04FF0FF334FF0FF326E4842
:10D8200008F0CAFE6E68731EFE2B4FF0000309D984
:10D830006A4A029201221846CDE9003368490DF088
:10D84000ABFA14E01A461846664C674F26FA02F304
:10D8500013F0010339D0BB5C8BB90392634A029287
:10D86000CDE90033012218465D490DF095FA6FF0BD
:10D870001504594808F07CFE204607B0F0BD95F825
:10D8800011C004EB021EBCF1000C18BF4FF0010CDC
:10D89000DEF81815013021F0807141EA0C61CEF8F4
:10D8A000181502F1510109016350C0B20132082A72
:10D8B000CCD12A7C0023A2F10801062918D8DFE880
:10D8C00001F01E1720170917150002F15101090177
:10D8D0006350EBE70223434A0128C2F8F0356B7C22
:10D8E00011D993B1424B02930023A3E70323F2E73C
:10D8F0000392404A0093CDE901320023B2E70023AE
:10D90000E9E70123E7E7082B16D8C2F8F4352A68BF
:10D910004300B2B9EA689A4217D2CDE90323364BE5
:10D920000122029300232E491846CDE900330DF061
:10D9300033FA6FF00B049CE70393304B0293002300
:10D940008EE7928902FB0333E4E72F46AA68254B52
:10D950002B4CC3F82C2604F17406C3F830060FCF05
:10D960000FC63B6827463360002626672B687BB3CB
:10D970000FCB04F1880585E80F006567A4F898606F
:10D9800030B3D7E8EF3FC7E8E26F002AF9D11D496D
:10D990004FF400400F463146D4F888500023E5FB91
:10D9A0000071194A3846FBF73DF80022CDE9000125
:10D9B000002304F1080009F017FD4FF0FF324FF08B
:10D9C000FF33124808F0F8FD00B12067246F50E7DC
:10D9D0000B48FFF78DFEF0E7C0C50020E407030009
:10D9E0007CF2020000E0004020C600200208030094
:10D9F000410803001C080300960803007308030095
:10DA000080C500203F420F0040420F00D8C50020D3
:10DA100010B500240D4B0E20C3F80441D3F80421A7
:10DA2000C3F81041D3F810211222C3F80423FFF7E2
:10DA300027F8224601210E20FFF752F80448836C94
:10DA400013B9403008F094FD002010BD00E0004004
:10DA500080C5002038B52D4BD3F80421002A48D0CA
:10DA60000022C3F80421D3F804110121284C996045
:10DA7000C3F80025636F2546B3B3D4F88C30B4F8EF
:10DA8000982033B104F174019847012814D002287A
:10DA900024D0B4F89830B4F894209A421ED90133B7
:10DAA000A4F89830194BD3F82C26D3F8341689B241
:10DAB00002EB4102C3F82C26D4F8883023B9BDE824
:10DAC00038401348FFF714BED5E8EF3F5A1EC5E8AB
:10DAD000E12F0029F8D1012BF1DC38BDD4F88830D2
