:020000021000EC
:10800000E8220120BDCB01000DB40200A9CB010084
:10801000A9CB0100A9CB0100A9CB0100A9CB01008C
:10802000000000000000000000000000A9CD0100D9
:10803000A9CB0100000000002DCD0100A9CB01005B
:10804000B1CF0100B1CF0100B1CF0100B1CF01002C
:10805000B1CF0100B1CF0100B1CF0100B1CF01001C
:10806000B1CF0100B1CF0100B1CF0100B1CF01000C
:10807000B1CF0100B1CF0100B1CF0100B1CF0100FC
:10808000B1CF0100B1CF0100B1CF0100B1CF0100EC
:10809000B1CF0100B1CF0100B1CF0100B1CF0100DC
:1080A000B1CF0100B1CF0100B1CF0100B1CF0100CC
:1080B000B1CF0100B1CF0100B1CF0100B1CF0100BC
:1080C000B1CF0100B1CF0100B1CF0100B1CF0100AC
:1080D000B1CF0100B1CF0100B1CF0100B1CF01009C
:1080E000B1CF0100B1CF0100B1CF0100B1CF01008C
:1080F000B1CF0100B1CF0100B1CF0100B1CF01007C
:10810000B1CF0100B1CF0100B1CF0100B1CF01006B
:10811000B1CF0100B1CF0100B1CF0100B1CF01005B
:10812000B1CF0100B1CF0100B1CF0100B1CF01004B
:10813000B1CF0100B1CF0100B1CF0100B1CF01003B
:04814000B1CF0100BA
:04814400FFFFFFFF3B
:1081480081F0004102E000BF83F0004330B54FEA00
:1081580041044FEA430594EA050F08BF90EA020F6D
:108168001FBF54EA000C55EA020C7FEA645C7FEA00
:10817800655C00F0E2804FEA5454D4EB5555B8BF23
:108188006D420CDD2C4480EA020281EA030382EA94
:10819800000083EA010180EA020281EA0303362D26
:1081A80088BF30BD11F0004F4FEA01314FF4801CF9
:1081B8004CEA113102D0404261EB410113F0004F0B
:1081C8004FEA03334CEA133302D0524263EB4303C2
:1081D80094EA050F00F0A780A4F10104D5F1200E60
:1081E8000DDB02FA0EFC22FA05F2801841F10001BB
:1081F80003FA0EF2801843FA05F359410EE0A5F18F
:1082080020050EF1200E012A03FA0EFC28BF4CF0BF
:10821800020C43FA05F3C01851EBE37101F0004575
:1082280007D54FF0000EDCF1000C7EEB00006EEB82
:108238000101B1F5801F1BD3B1F5001F0CD349080C
:108248005FEA30004FEA3C0C04F101044FEA445263
:1082580012F5800F80F09A80BCF1004F08BF5FEAEA
:10826800500C50F1000041EB045141EA050130BDCA
:108278005FEA4C0C404141EB0101013C28BFB1F5DC
:10828800801FE9D291F0000F04BF01460020B1FA27
:1082980081F308BF2033A3F10B03B3F120020CDAFA
:1082A8000C3208DD02F1140CC2F10C0201FA0CF0D8
:1082B80021FA02F10CE002F11402D8BFC2F1200C3D
:1082C80001FA02F120FA0CFCDCBF41EA0C019040F3
:1082D800E41AA2BF01EB0451294330BD6FEA04043C
:1082E8001F3C1CDA0C340EDC04F11404C4F1200227
:1082F80020FA04F001FA02F340EA030021FA04F339
:1083080045EA030130BDC4F10C04C4F1200220FA8F
:1083180002F001FA04F340EA0300294630BD21FACD
:1083280004F0294630BD94F0000F83F4801306BF93
:1083380081F480110134013D4EE77FEA645C18BF87
:108348007FEA655C29D094EA050F08BF90EA020F1E
:1083580005D054EA000C04BF1946104630BD91EA16
:10836800030F1EBF0021002030BD5FEA545C05D119
:108378004000494128BF41F0004130BD14F5800458
:108388003CBF01F5801130BD01F0004545F0FE41CC
:1083980041F470014FF0000030BD7FEA645C1ABF01
:1083A800194610467FEA655C1CBF0B46024650EA38
:1083B800013406BF52EA033591EA030F41F4002164
:1083C80030BD00BF90F0000F04BF0021704730B5EA
:1083D8004FF4806404F132044FF000054FF00001BF
:1083E80050E700BF90F0000F04BF0021704730B580
:1083F8004FF4806404F1320410F0004548BF404255
:108408004FF000013EE700BF42004FEAE2014FEAA9
:1084180031014FEA02701FBF12F07F4393F07F4F84
:1084280081F06051704732F07F4208BF704793F087
:108438007F4F04BF41F40021704730B54FF460749A
:1084480001F0004521F000411CE700BF50EA01029D
:1084580008BF704730B54FF000050AE050EA010246
:1084680008BF704730B511F0004502D5404261EBB6
:1084780041014FF4806404F132045FEA915C3FF4F7
:10848800D8AE4FF003025FEADC0C18BF03325FEA94
:10849800DC0C18BF033202EBDC02C2F1200300FA45
:1084A80003FC20FA02F001FA03FE40EA0E0021FA6A
:1084B80002F11444BDE600BF70B54FF0FF0C4CF458
:1084C800E06C1CEA11541DBF1CEA135594EA0C0F0A
:1084D80095EA0C0F00F0DEF82C4481EA030621EA45
:1084E8004C5123EA4C5350EA013518BF52EA033580
:1084F80041F4801143F4801338D0A0FB02CE4FF032
:108508000005E1FB02E506F00042E0FB03E54FF061
:108518000006E1FB03569CF0000F18BF4EF0010E59
:10852800A4F1FF04B6F5007F64F5407404D25FEA55
:108538004E0E6D4146EB060642EAC62141EA555108
:108548004FEAC52040EA5E504FEACE2EB4F1FD0C4A
:1085580088BFBCF5E06F1ED8BEF1004F08BF5FEAC8
:10856800500E50F1000041EB045170BD06F000467A
:1085780046EA010140EA020081EA0301B4EB5C0427
:10858800C2BFD4EB0C0541EA045170BD41F480111F
:108598004FF0000E013C00F3AB8014F1360FDEBF44
:1085A800002001F0004170BDC4F10004203C35DA20
:1085B8000C341BDC04F11404C4F1200500FA05F3A3
:1085C80020FA04F001FA05F240EA020001F0004244
:1085D80021F0004110EBD37021FA04F642EB0601BA
:1085E8005EEA430E08BF20EAD37070BDC4F10C04E4
:1085F800C4F1200500FA04F320FA05F001FA04F2A8
:1086080040EA020001F0004110EBD37041F1000193
:108618005EEA430E08BF20EAD37070BDC4F120059E
:1086280000FA05F24EEA020E20FA04F301FA05F206
:1086380043EA020321FA04F001F0004121FA04F2AE
:1086480020EA020000EBD3705EEA430E08BF20EA7E
:10865800D37070BD94F0000F0FD101F000464000B8
:1086680041EB010111F4801F08BF013CF7D041EA3A
:10867800060195F0000F18BF704703F0004652003E
:1086880043EB030313F4801F08BF013DF7D043EA0F
:108698000603704794EA0C0F0CEA135518BF95EAC5
:1086A8000C0F0CD050EA410618BF52EA4306D1D14C
:1086B80081EA030101F000414FF0000070BD50EA6B
:1086C800410606BF1046194652EA430619D094EAF5
:1086D8000C0F02D150EA013613D195EA0C0F05D1DF
:1086E80052EA03361CBF104619460AD181EA030133
:1086F80001F0004141F0FE4141F470014FF00000EB
:1087080070BD41F0FE4141F4780170BD70B54FF085
:10871800FF0C4CF4E06C1CEA11541DBF1CEA135505
:1087280094EA0C0F95EA0C0F00F0A7F8A4EB0504E7
:1087380081EA030E52EA03354FEA013100F08880DE
:108748004FEA03334FF0805545EA131343EA1263A7
:108758004FEA022245EA111545EA10654FEA00265C
:108768000EF000419D4208BF964244F1FD0404F515
:10877800407402D25B084FEA3202B61A65EB030571
:108788005B084FEA32024FF480104FF4002CB6EB2E
:10879800020E75EB030E22BFB61A754640EA0C00AE
:1087A8005B084FEA3202B6EB020E75EB030E22BFEE
:1087B800B61A754640EA5C005B084FEA3202B6EB2F
:1087C800020E75EB030E22BFB61A754640EA9C00EE
:1087D8005B084FEA3202B6EB020E75EB030E22BFBE
:1087E800B61A754640EADC0055EA060E18D04FEA7C
:1087F800051545EA16754FEA06164FEAC30343EA1C
:1088080052734FEAC2025FEA1C1CC0D111F4801FE8
:108818000BD141EA00014FF000004FF0004CB6E7E1
:1088280011F4801F04BF01430020B4F1FD0C88BF80
:10883800BCF5E06F3FF6AFAEB5EB030C04BFB6EB8B
:10884800020C5FEA500C50F1000041EB045170BD7E
:108858000EF0004E4EEA113114EB5C04C2BFD4EBAB
:108868000C0541EA045170BD41F480114FF0000E2F
:10887800013C90E645EA060E8DE60CEA135594EAAB
:108888000C0F08BF95EA0C0F3FF43BAF94EA0C0FAE
:108898000AD150EA01347FF434AF95EA0C0F7FF423
:1088A80025AF104619462CE795EA0C0F06D152EA77
:1088B80003353FF4FDAE1046194622E750EA41065B
:1088C80018BF52EA43067FF4C5AE50EA41047FF46C
:1088D8000DAF52EA43057FF4EBAE12E74FEA4102CF
:1088E800B2F1E04324BFB3F5001CDCF1FE5C0DD906
:1088F80001F0004C4FEAC0024CEA5070B2F1004F50
:1089080040EB830008BF20F00100704711F0804F52
:1089180021D113F13872BCBF01F00040704741F417
:1089280080114FEA5252C2F11802C2F1200C10FA1B
:108938000CF320FA02F018BF40F001004FEAC123FF
:108948004FEAD32303FA0CFC40EA0C0023FA02F3A3
:108958004FEA4303CCE77FEA625307D150EA013379
:108968001EBF4FF0FE4040F44000704701F0004049
:1089780040F0FE4040F40000704700BF7BB972B978
:108988000029BEBF00204FF0004106E008BF0028C4
:108998001CBF6FF000414FF0FF3000F057B8ADF149
:1089A800080C6DE904CE002909DB002B1ADB00F066
:1089B80015F9DDF804E0DDE9022304B07047404210
:1089C80061EB4101002B1BDB00F008F9DDF804E046
:1089D800DDE9022304B0404261EB4101524263EBFE
:1089E80043037047524263EB430300F0F7F8DDF8A6
:1089F80004E0DDE9022304B0404261EB4101704725
:108A0800524263EB430300F0E9F8DDF804E0DDE9E6
:108A1800022304B0524263EB4303704753B94AB987
:108A2800002908BF00281CBF4FF0FF314FF0FF306E
:108A380000F00CB8ADF1080C6DE904CE00F0CEF8EA
:108A4800DDF804E0DDE9022304B07047704700BF99
:108A58004FF0FF3C06E000BF4FF0010C02E000BF02
:108A68004FF0010C4DF804CD4FEA410C7FEA6C5CE5
:108A78004FEA430C18BF7FEA6C5C1BD001B050EA88
:108A8800410C0CBF52EA430C91EA030F02BF90EA73
:108A9800020F0020704710F1000F91EA030F58BF32
:108AA800994208BF90422CBFD8176FEAE37040F094
:108AB800010070474FEA410C7FEA6C5C02D150EA32
:108AC800013C07D14FEA430C7FEA6C5CD6D152EAED
:108AD800033CD3D05DF8040B704700BF84461046B2
:108AE80062468C461946634600E000BF01B5FFF7B1
:108AF800B7FF002848BF10F1000F01BD4DF808ED81
:108B0800FFF7F4FF0CBF012000205DF808FB00BF51
:108B18004DF808EDFFF7EAFF34BF012000205DF8AB
:108B280008FB00BF4DF808EDFFF7E0FF94BF0120F8
:108B380000205DF808FB00BF4DF808EDFFF7CEFFF9
:108B480094BF012000205DF808FB00BF4DF808ED38
:108B5800FFF7C4FF34BF012000205DF808FB00BF09
:108B68004FEA410C7FEA6C5C02D150EA013C0AD121
:108B78004FEA430C7FEA6C5C02D152EA033C02D113
:108B88004FF0000070474FF0010070474FEA410274
:108B980012F5001215D211D56FF47873B3EB625247
:108BA80012D94FEAC12343F0004343EA505311F06E
:108BB800004F23FA02F018BF404270474FF0000000
:108BC800704750EA013005D111F0004008BF6FF03E
:108BD800004070474FF00000704700BF2DE9F04794
:108BE80086468C460846089E154674461946002B4C
:108BF80040F0C1808542B2FA82F245D94AB1C2F149
:108C0800200300FA02FC954094402EFA03F343EA4D
:108C18000C0C4FEA154EA8B2230CBCFBFEF80EFB59
:108C280018CC08FB00F943EA0C43994528D9EB18FE
:108C380008F1FF3704D2994502D9A8F102072B445D
:108C4800A3EB0903A4B2B3FBFEFC0EFB1C330CFB25
:108C580000F044EA0344A04214D92C190CF1FF3364
:108C680004D2A04202D9ACF102032C44241A43EAEC
:108C780007401EB1D440002334607360BDE8F0871C
:108C88004746DDE76346F1E792BB431B01214FEA04
:108C9800154EAFB2200CB3FBFEFC0EFB1C330CFBD5
:108CA80007F840EA0343984561D9EB180CF1FF3007
:108CB80004D2984502D9ACF102002B44A3EB080377
:108CC800A4B2B3FBFEFC0EFB1C330CFB07F744EA13
:108CD8000344A7424DD92C190CF1FF3304D2A74203
:108CE80002D9ACF102032C44E41B43EA0040C0E77C
:108CF800C2F120039540944020FA03F12EFA03F3C1
:108D08004FEA154E9040AFB20343B1FBFEFC0EFB99
:108D18001C10190C0CFB07F841EA0041884522D9C0
:108D280069180CF1FF3004D2884502D9ACF1020071
:108D38002944A1EB08019BB2B1FBFEFC0EFB1C1100
:108D48000CFB07F743EA01439F420ED9EB180CF1DD
:108D5800FF3104D29F4202D9ACF102012B44DB1B44
:108D680041EA004193E76046E3E76146F7E760467A
:108D7800A4E76346B8E7834206D916B90021084636
:108D88007CE7C6E900E0F9E7B3FA83F78FB98342D5
:108D980001D3724508D8BEEB020460EB030301203F
:108DA8009C461EB9002169E73846FAE7C6E9004C37
:108DB800F8E7C7F1200CBB400EFA07F522FA0CF4CD
:108DC8002EFA0CF1BA401C4320FA0CF3B8404FEAD3
:108DD800144901431FFA84FEB3FBF9F809FB183064
:108DE8000B0C08FB0EFA43EA00439A4540D9E318F6
:108DF80008F1FF3004D29A4502D9A8F102002344B1
:108E0800A3EB0A0389B2B3FBF9F809FB183308FB93
:108E18000EFE41EA03418E452CD9611808F1FF3353
:108E280004D28E4502D9A8F10203214443EA004046
:108E3800A1EB0E01A0FB02984145CE46434602D362
:108E480006D14D4504D20138B9EB020E68EB040394
:108E5800002EA7D0B5EB0E0261EB030101FA0CFC62
:108E680022FA07F3F9404CEA0303C6E9003199E70F
:108E78004046C5E74346D9E710F8012B11F8013BF6
:108E8800012A28BF9A42F7D0D01A7047034613F830
:108E9800012B002AFBD1181A013870470000000086
:108EA8002DE9F043304C87B007460E46154620683A
:108EB80083683B21DB6898476A462068002111F0E7
:108EC800CCFC0198FFF78EFA25A3D3E90023FFF71E
:108ED8001DFC804600988946FFF784FA0B46024637
:108EE80049464046FFF732F902AAC7E9000120685F
:108EF800012111F0B2FC0398FFF774FA18A3D3E923
:108F08000023FFF703FC804602988946FFF76AFAB8
:108F18000B46024649464046FFF718F904AAC6E937
:108F280000012068022111F098FC0598FFF75AFA11
:108F38000BA3D3E90023FFF7E9FB064604980F4685
:108F4800FFF750FA02460B4630463946FFF7FEF85F
:108F5800C5E9000107B0BDE8F08300BFAFF30080AA
:108F68000000000080842E4144DC00200000000046
:108F78002DE9F04F824616461C4600259FB0039106
:108F8800307810B9284600F089BD731C252806934F
:108F980006D00399D0470028C0F2808501351FE22A
:108FA8001822002110A815F0EAFF7378252B00F08D
:108FB800BC80002398469E469C461846711C0F4666
:108FC80011F8012B2B2A00F0E38000F2DA80202A26
:108FD80000F0E180232A00F0E1802BB19DF84830B1
:108FE80043F040038DF84830B8F1000F05D09DF8E4
:108FF800483043F020038DF84830BEF1000F05D00B
:109008009DF8483043F010038DF84830BCF1000F4C
:1090180005D09DF8483043F008038DF8483028B152
:109028009DF8483043F004038DF848309DF84830E7
:1090380003F04401442903D16FF386138DF84830B7
:109048009DF848302A2A43F080030E978DF848305F
:1090580040F0A9809DF8493043F001038DF849306C
:109068007B1C1A782E2A0CBF012100219DF849206B
:1090780061F341028DF849200CD15A1C0E925A789E
:109088002A2A40F0A0809DF84920023342F00402C9
:109098008DF849201A786C2A00F0C18000F2A3806C
:1090A800682A00F0A9806A2A00F0C2804C2A00F0E1
:1090B800C78013F8012B782A06938DF84B2000F20D
:1090C80009816D2A00F2C980692A00F20381572AB2
:1090D80000F2E280412A04D0A2F14503022B00F2FB
:1090E800F98004219DF84A3002F0DF02A2F141081C
:1090F80061F30203D8F100029DF8491042EB08021F
:1091080062F3C7110A068DF84A308DF84910CBB2C0
:1091180000F11F8103F07802182A40F009816FF3EB
:10912800C6038DF849300023F8E0B21C06928DF88A
:109138004B309DF849309DF84A20DF0702F00700C0
:1091480040F1098154F8041B0029049108DA9DF8BC
:10915800481041F004018DF84810049949420491DF
:10916800590740F1008154F8047B002F80F2FF80FA
:109178009DF849306FF341038DF849304FF0FF37C0
:10918800F5E02D2A0DD0302A7FF427AF012316E70A
:109198004FF0010C13E74FF0010E10E74FF00108F4
:1091A8000DE701200BE70EA802F0B8FB0E9BBB42AF
:1091B8003FF457AF9DF848201390C00F60F3410269
:1091C8008DF848204DE70EA802F0A8FB9DF848301E
:1091D8001490C3F3400242EAD07262F341038DF85F
:1091E80048300E9B56E7742A26D07A2A7FF461AF5E
:1091F80006219DF849200CE05A78682A9DF84920F4
:1092080006D1012161F3C6028DF84920023350E7E7
:10921800022161F3C6028DF84920013349E75A78E3
:109228006C2A9DF8492001D10421EBE70321F0E7DE
:1092380005219DF84920ECE707219DF84920E8E73A
:10924800BDF8482022F4F04222F0020242F48042A3
:1092580042F00202ADF84820DFE76E3AD3B20122AD
:109268009A4040F282431A429DF8493039D112F0AF
:10927800240F61D1D1072DD503219DF84A2003F091
:109288007803A3F1400C61F30202DCF100038DF8CE
:109298004A2043EB0C0341E00120A2F15801C9B276
:1092A80000FA01F111F4624F7FF41BAF40F601039D
:1092B80019429DF849301AD111F4043F0AD09DF89B
:1092C8004A2060F3020203F07803402B8DF84A200D
:1092D8007FF429AF9DF8483043F001038DF84830FA
:1092E80021E702219DF84A2061F30202EBE7022000
:1092F8009DF84A1003F0780360F30201402B8DF8C3
:109308004A1002BF9DF8481041F001018DF848103D
:10931800632A7FF408AF003B18BF01239DF848205B
:10932800C2F340010B4363F341028DF8482000E784
:1093380013F0380FCED1F6E603219DF84A2013F03A
:10934800780F61F3020214BF012300238DF84A202D
:10935800E4E70123E2E79DF948100029ACBF4FF08C
:10936800FF311399FBE69F077FF508AF149F002391
:109378000428CDE913339DF8493007D1980705D45F
:109388009DF949100029ACBF06270D2702F00702F6
:10939800012AC3F3C30333D1DA1E042A04D8DFE851
:1093A80002F02146462121002268012B4FEAE27192
:1093B800CDE910211CD19DF94020D117CDE910210C
:1093C80004349DF848209107079250D03246504601
:1093D800069B039911F0ABFD0028C0F25F8305449A
:1093E800069ECDE554F8042BD117CDE91021E8E706
:1093F800022BE5D111B242F3C032CDE91012DFE7FA
:10940800022A24D1DA1E042A04D8DFE802F0181050
:1094180010181800012B4FF0000154F8042B14D039
:10942800022BCDE91021CCD192B21092C9E70734B2
:1094380024F00704F4E80201CDE91001C1E754F86B
:10944800042B109200221192BBE7D2B2CDE7042A76
:1094580008D1073424F00704D4E900010834CDE921
:109468001001AEE7032AACD154F8042BDDE79DF8D0
:109478004BB0BBF1780FB3D8BBF1570F49D8BBF14C
:10948800250F00F09180BBF1240FA9D9BBF1410F42
:1094980003D0ABF14503022BA2D8DDE91013002B52
:1094A800C0F23781079A160700F13681C2F3001916
:1094B8004FEA4919C3F30A50C3F31303002840F0D5
:1094C8002E8151EA030614BF01260026DB0243EA77
:1094D8005153C902BBF1460F40EA010E43EAE07C52
:1094E80008BF4FF0660B5EEA0C0CCDE90C1300F0D8
:1094F8009C81002E40F04A810D9BA0F2FE3843F07B
:1095080000430D930020DDE90C1306464FF0050CCF
:1095180056E1ABF1580120293FF662AF01A050F89F
:1095280021F000BFB9960100E9930100E993010019
:10953800E9930100E9930100E9930100E99301002F
:10954800E9930100E9930100A3940100E993010064
:109558003D96010051960100A3940100A3940100D7
:10956800A3940100E993010051960100E9930100D9
:10957800E9930100E9930100E9930100F3960100E2
:10958800B9960100BF960100E9930100E993010033
:10959800B7950100E9930100B9960100E99301002C
:1095A800E9930100B996010058460399F2E4002FA7
:1095B800109E3BDB3946304615F0A4FE002E3FF4E2
:1095C8000FAF4FF000093718BB1B9DF84A2012F067
:1095D8001001059100F05782023312F04002DDF8C5
:1095E8004C80089218BF149A434418BF9B18049AD9
:1095F800CDF81C80002A40F36182D31A04939DF8A9
:1096080048305807C3F3800B00F15882590640F1DF
:109618004882B9F1000F07D048460399D04700287F
:10962800C0F23C82D946013530233BE23046FFF791
:109638002DFCC6E7109B4FF000098DF85C300DF14A
:109648005D07012317AEC0E7079B1A0754BFC3F392
:1096580000194FF02B09DDE9102358BF4FEA4919CB
:10966800002B06DA4FF02D09524263EB4303CDE994
:109678001023DDE910010DF17503009312AA17AB51
:1096880002F062F90646002F0CDB9DF848200DF128
:1096980075039B1B6FF386129F428DF8482001D9F2
:1096A800FB1A1393002E3FF49BAE0DF175075BE098
:1096B8004FF00009DDE71098002800F0DF810DF178
:1096C80075030093002117AB12AA02F03DF9BDF80B
:1096D8004A30064603F0EF0343F4F04343F0100327
:1096E8004FF00009ADF84A30CDE7109A072B3FF646
:1096F80077AEDFE803F00C04060C08080C0C1570B4
:109708006EE615806CE6EB17C2E9005368E6156053
:1097180066E64FF02D09CDE64FF02B09CAE640F278
:10972800FF76B0422FD1A0480BF10102D2B2825C81
:109738000B4302F003021ED1012A0BBF4923692300
:109748004E216E210CBF462266228DF85C309DF8B2
:1097580048308DF85D106FF386138DF85E208DF814
:1097680048300DF15F0717AEBB1BB9F1000F3FF48E
:109778002CAF013329E7012A15BF6E234E2361213F
:1097880041211A46E1E70026A0E6013849185B4165
:10979800002BFADACDE90C13AEE6490841EAC371A9
:1097A8005B08B3F1333F404608F10108F5D200F1F8
:1097B800020801200CFB03FEA1FB0C13013E7344BD
:1097C80018F1020FE9DB08B1CDE90C13DDE90C3122
:1097D800B8F1000F2CDCC8F10400A0F1200C08F14E
:1097E8001C08C34001FA08F821FA0CFCC1400BF030
:1097F800DF0043EA0803472843EA0C0338D1F01C8A
:1098080001DBB7422ADAABF10202002F5FFA82FBD2
:109818007BDD9DF84800013F820676D43A1E18BFCA
:109828000122059207F101082CE04FF0000869E6D3
:10983800023341F100010CA808F1FF380136CDE9E7
:109848000C3111F045FBDDE90C31DB1849410029E9
:1098580008F1FF38F9DACDE90C31B7E79DF848206F
:10986800BF1B90064FD43A1E18BF0122059204E090
:109878000022BBF1660F0592D4D117EB06084FF012
:10988800660B44D4B8F1100FA8BF4FF010089FED35
:10989800447B10208DED0E7B0B90DDE90E02B8F1B4
:1098A800000F37D1C01842EB0103B3F1805F41D2FA
:1098B800CDE90C03079BBBF1660F03F0200340F0D2
:1098C800BC80002E41DC30218DF85C10002B6DD15E
:1098D800002F40F3B4812E238DF85D3086B173429A
:1098E800BB42A8BF3B46002B1393A7EB0307D4BF8B
:1098F800002301239DF84A1063F345118DF84A109F
:109908000DF15E0839E00022B0E7002289E74FF048
:109918000008BCE7400840EAC2705208CDE90E02D0
:109928000EA8CDE9083108F1FF3811F0D1FADDE9C8
:109938000831B2E7400840EAC3705B08CDE90C0380
:109948000CA811F0C5FA0136B4E70DF15C080B99C3
:10995800002909DD0BA90CA8079311F0D1FA013EE3
:10996800079B08F8010BF2D113969BB9002F40F31F
:1099780064812E2108F8011B0026002F1FDD0B9B98
:10998800002B1CDD0BA90CA811F0BAFA013F08F84E
:10999800010BF2E72E2308F8013BEDE7AFF3008057
:1099A8000000000000000008353503002E238DF864
:1099B8005D30002EA4D0002F91DC0DF15E08059BD0
:1099C800002B4ED1149747460BF0DF03452B23D1CC
:1099D800002EBABF76422D232B23632EC8BF6421E5
:1099E8007B70C4BFB6FBF1F301FB13664FF00A01AD
:1099F800C8BF03F13000B6FBF1F3D2BFBA1CFA1CA2
:109A0800B87087F800B0174603F1300001FB136304
:109A1800303307F8020B5370139B002B2CDC149B7C
:109A2800002BD4BF002301239DF84A2063F386123C
:109A380000238DF84A203B7095E60BA90CA80793E4
:109A480011F05EFA079B30288DF85C0018BF06F10C
:109A5800FF3613B9002F40F3F2802E238DF85D30C6
:109A68004EE7474617F8013C08F1FF38302BF8D08D
:109A78002E2B08BF4746A7E70123D5E7714F81463C
:109A880005237E1FA1E5110748BF0133A5E5184648
:109A980009930399D0470028099B05DA1FB0BDE850
:109AA800F08F2023DDF810B05A46002A0BF1FF3B57
:109AB800EDDC049BCDF810B02B449D1AB9F1000FD2
:109AC80005D048460399D0470028E7DB0135089BB5
:109AD800002B77D09DF94930002B28DB3346DFF87F
:109AE800689118789B4619F80020013352073FD433
:109AF8009DF84A30AE1B98065E4407D44246002AB9
:109B080008F1FF383BDC079B33449E1A9BF80000A2
:109B18002E280AD10399D0470028BFDBB8F1000FDF
:109B280006F1010631DC0BF1010B5D4638E0B14668
:109B380099F80000C846702809F1010913D1AE1B35
:109B4800149D46443544AB1B002B33DC3B46424650
:109B58005046039911F0EBF900289FDB3044049E2E
:109B68000546064464E00399D0470028E0DA95E703
:109B780005930399D0470028059BB2DA8EE7302079
:109B88000399D0470028B9DA88E730200399D047ED
:109B980008F1FF38C0E70399D0470028FFF67EAFE9
:109BA8002878A84619F8003001355907F3D4A6EBF0
:109BB8000B06C5E730200399D0470028FFF66EAFA3
:109BC8000136C0E79DF84A30DA0601D41B0706D5EE
:109BD80030200399D0470028FFF660AF0135059B78
:109BE8003BB103999DF84B00D0470028FFF656AFCC
:109BF8000135A84406E030200399D0470028FFF635
:109C08004DAF0135A8EB0503002BF4DC3B4632468B
:109C18005046039911F08BF90028FFF63FAF28440E
:109C28009DE720200399D0470028FFF637AF01357C
:109C3800731B002BF5DCFFF7D3BB1E46BFE60DF107
:109C48005D08BCE6080F030036350300000000007D
:109C580001282DE9F041884607D011F096FC16231B
:109C680003604FF0FF30BDE8F0818A68244B9A42C8
:109C7800F3D814F077FF05460F4614F073FF214C14
:109C8800D8F80030D8F80420A3FB043604FB026699
:109C9800D8F808209B1846EBE276EA0B42EA4742DE
:109CA800A2FB0421FF0B9B1AC0F30E0204FB071151
:109CB800A2FB04244FEAD23242EA444266EB010195
:109CC800981A61F100010CA3D3E90023FEF756FEB0
:109CD800EFF31184202383F31288BFF36F8F0A4BAD
:109CE800C3E900019A6084F31188BFF36F8F0020E5
:109CF800B9E700BFAFF3008000CA9A3B000000003C
:109D0800FFC99A3B00CA9A3BB0D00020000000006F
:109D18002DE9F0432DED028B1F46002504238BB05F
:109D28000E4690468146CDE908550593002800F077
:109D3800D580002900F0D280062108A812F0DEFEA6
:109D4800044680B16A4B0390CDE9015301222B46AA
:109D580028466849009513F029F820460BB0BDEC59
:109D6800028BBDE8F083014608AA484612F0A1FE1E
:109D7800044670B1604B0390CDE901532B46009522
:109D8800012218465B4913F011F808A812F0E0FE0A
:109D9800E3E7012104AA08A812F08CFF044610B1D9
:109DA800564B0390E8E7049BDBB1042B22D0052B2C
:109DB8000CBF0923FF233370032105AB06AA08A8AB
:109DC80012F0A4FF0546B8B14D4B0390029300234F
:109DD80001221846CDE90033464912F0E7FF2C4628
:109DE800D3E7DFED487A0023C6ED017A3370C6ED7C
:109DF800027ACAE70723DEE7059B002BF1D0283358
:109E08006B4403F8100C06A9404615F04EFA0222DE
:109E1800294606A80FF0F0F93378C2B2092B0AD107
:109E28000F2A28D96FF01504374B039402930023A7
:109E3800CDE90033A4E70F2AF4D8072B23D19FEDEF
:109E4800338A334B33F81200D8B1FEF7CBFA26A386
:109E5800D3E90023FEF730FBFEF740FD04217060D4
:109E680005AB06AA08A8059112F050FF054668B18F
:109E7800284B0390AAE7284B9FED288A33F8120055
:109E8800E2E72748EAE76FF07F04CDE7059B06A9DC
:109E980028336B4403F8100C384615F006FA0222F2
:109EA800294606A80FF0A8F9C2B20F2A0DD91D4BF2
:109EB8000392CDE9015301222B4628460D4900950E
:109EC80012F074FF6FF015045FE70132D2B207EEAB
:109ED800902AF8EEE77A67EE887A88E76FF015043B
:109EE8003BE700BFAFF300807B14AE47E17A244024
:109EF8000025030000FF0200292503005225030066
:109F08007425030000000000A02503000AD7A33F22
:109F1800A8080300C4250300880803000AD72340C3
:109F28000AD7A340EF2503002DE9F04F476A97B001
:109F38008346209E08910C92129355EC104B8DEDA0
:109F4800000B7FB910200EF0D9F90246CBF8240097
:109F580020B9A74BEA21A74810F020FCC0E90177F7
:109F68000760C760DBF82430196859B15A680123C3
:109F7800584693404A608B600FF052FDDBF824305E
:109F880000221A602B1EB7BF23F0004300230122D2
:109F98000193A8BF3360019F974BB8BF3260BB43A2
:109FA80019D142F20F73129A1360C7F313032343B4
:109FB80000F0DB85219B53B9904B21E0904B039334
:109FC8000833219A1360039817B0BDE8F08F8B4BC4
:109FD80003930333F5E79DED007B0022002351EC4A
:109FE800170B8DED0A7BFEF789FD804650B10123E2
:109FF800129A1360219B13B1824B219A1360824BF2
:10A008000393E0E7C7F30A5614AA15A958469DED2D
:10A018000A0B0FF08DFF0290002E76D00B9BA6F254
:10A02800FF36CDF84C80C3F3130343F07F53DDE9CB
:10A038000A0143F4401319460022744BFEF784F8D2
:10A0480065A3D3E90023FEF737FA65A3D3E9002314
:10A05800FEF77CF804460D463046FEF7C3F962A3C6
:10A06800D3E90023FEF728FA02460B462046294684
:10A07800FEF76CF804460D46FEF788FD00220746F9
:10A08800002320462946FEF743FD40B13846FEF737
:10A09800A9F922462B46FEF731FD00B9013F162FDC
:10A0A80052D85B4B03EBC703DDE90A01D3E9002370
:10A0B800FEF72EFD002849D0013F00231193149B81
:10A0C8009B1B5A1E4CBFC3F101030023079245BFD7
:10A0D8000693002306930793002F39DB079B1097FD
:10A0E8003B44079300230993089B092B66D8052B4B
:10A0F800C5BF043B002401240893089B023B032BA3
:10A1080067D8DFE803F02D3A3859DDE914631E44B7
:10A1180006F23243202BC9BFC3F14003C3F1200329
:10A128009F4006F21243D8BF04FA03F006F1FF3647
:10A13800C4BF24FA03F347EA0300FEF743F90122F8
:10A14800A1F1F873139276E70123B7E71190B6E708
:10A15800069BDB1B06937B42099300231093C3E7FE
:10A1680000230D930C9B002B56DC012399461A46BD
:10A1780004930C920CE00123F3E700230D930C9B4E
:10A18800FB1803F1010904934B46012BB8BF0123C7
:10A19800DBF824000021042202F114059D423FD976
:10A1A800416058460FF0FCFB039000283BD1194B47
:10A1B80002464FF4D571CEE60123DFE701240023E0
:10A1C8000D9408934FF0FF3300229946049312230D
:10A1D800CFE701230D93F5E761436F63A787D23F6C
:10A1E800B3C8608B288AC63FFB799F501344D33F7E
:10A1F80082360300993603000000F07F7E360300A4
:10A2080075360300A1240300A02403000000F83FD2
:10A21800300003000D3703000C9B99460493B7E701
:10A2280001315200B8E7DBF82430B9F10E0F039A78
:10A238001A606FD8002C6DD0002F36DD07F00F02A2
:10A24800A04BF8054FEA271403EBC20393ED007BFC
:10A258008DED0E7B17D59C4B04F00F044FF00308CF
:10A26800D3E90823DDE90A01FEF750FACDE9000138
:10A27800954D5CB9DDE90E23DDE90001FEF746FAEC
:10A28800CDE900012BE04FF00208F1E7E10709D51D
:10A2980008F10108DDE90E01D5E90023FEF70CF904
:10A2A800CDE90E0164100835E3E700F007817C4230
:10A2B800844B854D4FF0020804F00F02241103EB84
:10A2C800C203DDE90A01D3E90023FEF7F5F800230C
:10A2D800CDE90001002C40F0E580002BD0D1119B86
:10A2E800DDE90045002B00F04C810022774B204629
:10A2F8002946FEF70DFC002800F04381B9F1000F54
:10A3080000F03F81049B002B00F3E480DDE90A3470
:10A31800CDE90034159B002B02DB0E2F40F342825F
:10A328000D9A002A40F06782099C0025DDF8188004
:10A33800B8F1000F0DD0079B002B0ADD4345069AA4
:10A34800A8BF4346D21AA8EB03080692079AD31A65
:10A358000793099B0BB30D9B002B00F0A682002CE2
:10A3680000F0A1822946224658460FF083FC029A43
:10A378000146054658460FF0D3FB02990646584653
:10A388000FF04EFB099B1B1B099300F09182099A61
:10A39800314658460FF06EFC0290012158460FF0E6
:10A3A800A9FB109B0446002B00F084821A46014644
:10A3B80058460FF05FFC089B0446012B03DC009B0A
:10A3C800002B00F07C820026236904EB83031869C4
:10A3D80015F06DF9C0F120001096079B184410F095
:10A3E8001F0000F09182C0F12003042B40F381820A
:10A3F800C0F11C00069B034480440693079B03445A
:10A408000793069B002B05DD1A46029958460FF064
:10A418008BFC0290079B002B05DD21461A46584607
:10A428000FF082FC0446119B002B00F07682214637
:10A43800029815F08BF9002880F26F8200230A2217
:10A44800029958460FF00EFB0D9B7E1E0290002BC2
:10A4580000F05C82002329460A2258460FF002FBCE
:10A46800049B0546002B03DC089B022B00F35E824D
:10A47800B8F1000F05DD2946424658460FF054FC56
:10A488000546109B002B00F0D082696858460FF0F3
:10A4980087FA0746002840F07F820D4B024640F2BB
:10A4A800EA2158E5E20706D508F10108D5E90023B5
:10A4B800FEF702F80123641008350BE74FF0020895
:10A4C8000DE700BF30000300080003000000F03F64
:10A4D8000D37030020460022AC4B2946FDF7ECFF60
:10A4E8007E1E08F10108049CCDE900014046FDF7F5
:10A4F80079FFDDE90023FDF7DFFFA54B0022FDF71B
:10A5080025FEA1F15073CDE90E010F93002C3BD12C
:10A518000022A04BDDE90001FDF716FE02460B46BE
:10A52800CDE90023DDE90E23FEF710FB002840F0FB
:10A538005781DDE90E2101F10043DDE90001FEF755
:10A54800E7FA00283FF4E2AE002425460C9BDDF82C
:10A558000CA0DE434FF00008214658460FF060FA81
:10A56800002D00F0A980B8F1000F05D0A84503D050
:10A57800414658460FF054FA294658460FF050FA0B
:10A588009AE03E464C46B1E7834B03EBC40353E9DC
:10A598000201039B1C440D9B002B4AD002460B462C
:10A5A80000207E49FEF7B2F8DDE90E23FDF7CCFD69
:10A5B800DDF80CA0CDE90E01DDE90001FEF7E6FAB1
:10A5C8000546FDF70FFF024630350B46DDE9000171
:10A5D800FDF7BAFD0AF8015B02460B46CDE900011A
:10A5E800DDE90E01FEF7B2FA002865D100206C49BA
:10A5F800DDE90023FDF7A8FD02460B46DDE90E0163
:10A60800FEF7A4FA002840F00D81A24500F0EA8088
:10A6180000225E4BDDE90E01FDF74EFF00225B4B89
:10A62800CDE90E01DDE90001FDF746FFCDE90001A6
:10A63800C2E7DDE90E23FDF73FFFA046DDF80CA0D9
:10A64800CDE90E01DDE90001FEF7A0FA0546FDF7A8
:10A65800C9FE024630350B46DDE90001FDF774FD01
:10A668000AF8015B02460B46A245CDE900234FF0EC
:10A67800000223D1494BDDE90E01FDF767FD0246D3
:10A688000B46DDE90001FEF761FA002840F0CA80B8
:10A6980000204249DDE90E23FDF756FD02460B4630
:10A6A800DDE90001FEF734FA70B1C24608F1FF385F
:10A6B8001AF8013C302BF8D0374655E0334BFDF7FC
:10A6C800FBFECDE90001BDE7DDE90A34CDE9003440
:10A6D800159B002BFFF628AE0E2F3FF725AE2E4B0D
:10A6E80003EBC70393ED007B0C9B002B8DED047BE4
:10A6F80002DAB9F1000F64D0DDF80CA0DDE90045FD
:10A70800DDE9042320462946FEF700F8FEF73EFA65
:10A718000646FDF767FEDDE90423FDF7CDFE024698
:10A72800204606F130040B462946FDF70DFD0AF8D0
:10A73800014B039C02460B46AAEB0404A14540F0DA
:10A748008280FDF703FD04460D46DDE90423FEF78C
:10A75800FDF9002865D120462946DDE90423FEF7E6
:10A76800CDF908B1F3075CD4029958460FF058F9AF
:10A77800002301378AF80030129B1F60219B002BB1
:10A788003FF421ACC3F800A01DE400BF0000244042
:10A7980000001C4000001440300003000000E03FAF
:10A7A8000000F03FA24B03EBC70393ED007B0C9B2B
:10A7B800002B8DED047B9FDAB9F1000F9CDC7FF450
:10A7C800C3AE00229B4BDDE90401FDF775FEDDE910
:10A7D8000023FEF7B1F9044600287FF4B5AE3E46E3
:10A7E8002546B4E0DDE90A34CDE90034159B002B99
:10A7F80001DB0E2FD6DD089A012A36DC139A82B3C4
:10A8080003F23343099CDDF81880069A0121584663
:10A818001A440692079A1A4407920FF06BF90546F4
:10A8280086E53E4653469A4613F8012D392A06D145
:10A83800039A9A42F7D13022039901360A701A789E
:10A8480001321A7038E700227B4BFDF735FE0022F3
:10A85800002304460D46FEF751F900283FF450AF97
:10A8680082E7149BC3F13603CCE709F1FF34099B57
:10A87800A34208DBB9F1000FA3EB04040EDBDDF8FB
:10A8880018804B46C1E7099B109AE31A0994DDF832
:10A89800188000241A444B461092B6E7069BA3EB97
:10A8A80009080023B1E7029E71E5099A029970E54B
:10A8B800029672E5089B012B17DC009BABB9019B44
:10A8C800C3F313039BB9019B23F00046360D3605ED
:10A8D80036B1069B012601330693079B0133079384
:10A8E800109B002B7FF470AD1096012075E50026B3
:10A8F800F6E73FF486AD1C33069A1A44984406924C
:10A90800079A1A4407927CE50346F4E7049B002B58
:10A918002BDC089B022B09DC27E0B9F1000F1DDCBA
:10A92800089B022B1ADD3E46CDF81090049B002BA5
:10A938007FF40CAE2146052258460FF093F80146E5
:10A948000446029814F002FF00287FF7FFADDDF8F7
:10A958000CA0312301360AF8013BFBE50D9B3E466E
:10A96800CDF81090002B7FF483AD039F2146029809
:10A9780014F019FD039B00F13009049A07F8019BB4
:10A98800FB1A9A4240F3CB8000230A2202995846C8
:10A998000FF068F80290E9E72A6905F10C010C301C
:10A9A8000232920014F0DEFA0122394658460FF0BE
:10A9B800BBF9039BA846054603F1010ADDE9032319
:10A9C80013440793009B03F0010309930AF1FF3333
:10A9D80021460298049314F0E6FC4146069000F1E3
:10A9E8003009029814F0B2FE2A4621460746584616
:10A9F8000FF006FAC268014602B358460FF010F885
:10AA0800002F3ADA0122029958460FF08DF92146B3
:10AA1800029014F09BFE002803DC29D119F0010FE5
:10AA280026D0B9F1390F1DD132E02846C1E700BF61
:10AA38003000030000001440000024400A900298EF
:10AA480014F084FE0A990C9058460EF0E9FF0C9A0F
:10AA58005ABB089B53B9099B43B9B9F1390F17D0B1
:10AA6800002F05DD069B03F1310901E0002F2ADAEA
:10AA7800DDF810A00AF8019B6EE5089B3B4304D162
:10AA8800009B03F00103002BBCD0B9F1390F36D17C
:10AA9800049F392307F8013BBA46013F1AF8013CE5
:10AAA800392B5AD001333B7056E5002F06DB089B43
:10AAB8003B4306D1009B03F0010313B9002AA1DC34
:10AAC800D6E7002AE1DC079B57460AF8019C534564
:10AAD8002ED000230A22029958460EF0C3FFA8453B
:10AAE80002904FF000034FF00A02414658460BD13E
:10AAF8000EF0B8FF804605460AF1010A66E7DDF860
:10AB080010A009F10109B5E70EF0ACFF294680460F
:10AB180000230A2258460EF0A5FF0546ECE7049BE1
:10AB28004FF00008002BCCBF1F460127039B1F4492
:10AB38000122029958460FF0F7F82146029014F0C6
:10AB480005FE0028A8DC02D119F0010FA4D1BA46ED
:10AB580017F8013D302BFAD0FEE4039BBB429BD192
:10AB68003123039A01361370F6E4219B002B7FF4FE
:10AB780025AA014BFFF744BA7536030001287FB5B3
:10AB8800024604D003280ED007B05DF804FBE82184
:10AB980015480BF093FA0028F6D1144807B05DF871
:10ABA80004EB0CF0D9BA532014F0A9F90346059028
:10ABB80040B90F4A0F49CDE90102009001220FF078
:10ABC8002EFEE1E7022253210BF078FA18B105981E
:10ABD80014F08EF9D8E700220023074805A90CF0E5
:10ABE80027F90028F3D1CFE7C8CF002008CF0020ED
:10ABF800D6080300C8FE0200A8CE002001480CF0C9
:10AC0800ABBA00BF20CF00202DE9F04F0025654BDF
:10AC180093B00322284664490293CDE900552B4698
:10AC28000FF0FDFD04F09AFC044670B15F4B0390F1
:10AC3800CDE9015301222B4628465B4900950FF0C8
:10AC4800EEFD204613B0BDE8F08F594B0322CDE945
:10AC580001035549034600900FF0E1FD554812F0F5
:10AC680014F91F2006F0B6FC064628B1524BCDE970
:10AC780001430094234609E050480BF0D7FC0546F1
:10AC8800B0B14F4B0096CDE9016333461846012217
:10AC980045490FF0C4FD4B4B01220293002318468F
:10ACA800CDE9003340490FF0BAFD4FF0FF34C8E753
:10ACB8001F200BF01BFC044628B1434BCDE9015380
:10ACC80000952B46E2E701200BF06AFC48B13F4BA8
:10ACD8000222CDE9014320462346334900940FF070
:10ACE8009EFD01200BF07AFB48B1394B02220293FA
:10ACF80000232D491846CDE900330FF090FD0020C0
:10AD08000BF022FC054628B1324B02930023CDE913
:10AD18000033BBE70BF0BCFB044608B12E4BCDE774
:10AD280001200BF087FB054608B12C4B9FE70BF081
:10AD3800E5FA044608B12A4BC0E713F013FF4FF4B5
:10AD48007A72A0FB020302FB0131264F264BC00B8F
:10AD580040EA4140C90BC7E9000103222046CDE97A
:10AD680001431149234600940FF059FD00F0A2FA5F
:10AD7800034630B91D4ACDE901320B49012200933F
:10AD880091E71B4B03222046CDE9014306492346A0
:10AD980000940FF044FD00F0DFF9034660BB154A4C
:10ADA800E9E700BFF9080300C8FE02002309030011
:10ADB8005209030005AC01007609030085AB0100C8
:10ADC8009E090300B40A0300BF090300DC0903005D
:10ADD800030A03001F0A0300440A0300610A030070
:10ADE800810A0300C0CF0020960A0300D80A030096
:10ADF800FC0A0300100B0300B54B03222046CDE9E3
:10AE08000143B449234600940FF009FD1923132286
:10AE180000930321142340F2E970019400F0C4F96F
:10AE280025464FF0000A4FF0000BDFF82493DFF8B7
:10AE38002483484610F007F8A74810F004F8A748FC
:10AE480010F001F840460FF0FEFF0AAA08A906A86C
:10AE5800CDE906ABCDE908ABCDE90AABFEF720F8A2
:10AE68000CA800F0EDF9DDE90D230C999C480DF0D4
:10AE78007FFFDDE910230F999A480DF079FFDDE98E
:10AE88000A239948CDE90223DDE90823CDE9002307
:10AE9800DDE906230DF06CFF40460FF0D4FF934E1A
:10AEA8004FF0FF334FF0FF32022130460DF0CAF861
:10AEB800F36803F4FE13B3F5004F40F0BE80306929
:10AEC800002300220CF06CF90346002840F0B580FE
:10AED80087484FF00C0C1A4619460446B0F852E061
:10AEE800BEF1000F0ED090F85CE001311EF0020FA9
:10AEF8001CBF0132D2B21EF0080F18BF0133C9B20D
:10AF080018BFDBB2BCF1010C00F10C00E6D17948A6
:10AF18000DF02EFF94F85030180702D576480DF042
:10AF280099FF94F85030D90602D574480DF092FF75
:10AF380094F850305A0702D571480DF08BFF7148CC
:10AF48000DF088FF94F85030DB0740F19B8013F038
:10AF580009FE4FF47A72A0FB020302FB0131D4E927
:10AF68000023C00B40EA4140C90BC7E9000166480D
:10AF78000DF0FEFED4E9022364480DF0F9FE2069C5
:10AF8800FDF742FA02460B4661480DF0F1FE606992
:10AF9800FDF73AFA02460B465E480DF0E9FEE06915
:10AFA800FDF732FA02460B465B480DF0E1FE206AD7
:10AFB800FDF72AFA02460B4658480DF0D9FEE06A1A
:10AFC800FDF722FA02460B4655480DF0D1FE94F8DB
:10AFD800373094F83620A18E52480DF0C9FEA38F61
:10AFE8005148009394F83A3094F8392094F838107E
:10AFF8000DF0BEFE206CFDF707FA02460B464B48E3
:10B008000DF0B6FE606CFDF7FFF902460B464848A6
:10B018000DF0AEFEA06CFDF7F7F902460B46454869
:10B028000DF0A6FEE06CFDF7EFF902460B4642482C
:10B038000DF09EFE41480DF00DFF336A03F4FE1338
:10B04800B3F5802F0DD1706A0022002305A90BF0FB
:10B0580045FF30B905993A480DF08AFE059813F076
:10B0680047FFF36840466FF39433F360336A6FF336
:10B07800943333620FF0E7FE00214FF400400CF0E8
:10B0880021FDD6E613F06EFD4FF47A72A0FB0203A1
:10B0980002FB0131D7E90023C00B40EA4140801A86
:10B0A8004FEAD13161EB03014FF47A720023FDF7C7
:10B0B800B5FC014623480DF05BFE234A6B1CDDB24C
:10B0C80003F00303D15C21480DF052FEB2E700BF44
:10B0D8002A0B0300C8FE02004D0B0300520B0300AD
:10B0E8009A0B0300B00B0300C60B030058C60020E0
:10B0F800C8CF0020060C03002E0C03004C0C0300E4
:10B108006B0C0300950C0300B90C0300D00C030072
:10B11800E70C0300000D0300190D0300340D0300B4
:10B128004F0D03006A0D03008A0D0300AF0D0300E5
:10B13800C60D0300DD0D0300F40D0300370E0300F8
:10B14800D83003000B0E0300470E0300270E030040
:10B15800460B0300690B03001FB50E480E4B186021
:10B1680013F0B1F9044658B90C4B0122CDE901039B
:10B1780003460B4900900FF061FB204604B010BD58
:10B18800084B03220293002305491846CDE90033F2
:10B19800F1E700BF04FC020040DC0020570E03006A
:10B1A80068FF02006C0E03002DE9F04F95B0984639
:10B1B800DDE91EABCDE90C324B1E0E93A0F26C7389
:10B1C8000F934FF0FF334FF00009CDE9103312937E
:10B1D800174B05460E461746CDE90ABA1868CDF84A
:10B1E8004C9083680AA91B689847044678B1114BAC
:10B1F8000390CDE9019301224B4648460E49CDF80C
:10B2080000900FF01BFB204615B0BDE8F08F0B4BEC
:10B218000322CDE90103CDE907AB0346CDE9057863
:10B22800CDE90356044900900FF008FBEBE700BF97
:10B2380040DC0020830E030068FF02009E0E03001E
:10B2480030B5194B04468FB01868836804A95B6849
:10B258009847C8B10025154B02221549039002935F
:10B2680028462B46CDE900550FF0E8FA032340F2B3
:10B27800E9721321C4E900231423C4E90213192332
:10B28800236165610FB030BD099B049D03F26C73A7
:10B298002360089B01336360079BA360069BE36000
:10B2A800059B2361EDE700BF40DC0020CC0E0300C6
:10B2B80068FF0200024B034A01201A60704700BF72
:10B2C80044DC002040FC02002DE9F04F91B00093CF
:10B2D80002F004030293C2F3C20301338407054654
:10B2E8000E46DDF868900392059340F0BB81041D7B
:10B2F80030B1072909D86FF01B0011B0BDE8F08FF5
:10B3080001F00706341DC6F10806009B4FF000083F
:10B318004FF0040A591E4FF0FF3347460193C346C6
:10B328005346CDF810800DB100982060059800288C
:10B3380000F3E8809848009A824203D397488242F3
:10B34800C0F0E080039AA4EB050E92074FEA9E0036
:10B3580000F103810F2F00F2B180002D00F005816C
:10B3680007F140020DEB020C019A0CF8200C0CF8C6
:10B37800102C049801300490E7E07A285DD84B2817
:10B388000ED8472859D829282DD8252852D054D83E
:10B3980020287AD02338D0F1000B4BEB000B74E057
:10B3A8004C382E2849D8DFE800F07048484848480B
:10B3B8004848484848484B484848484848484859F1
:10B3C800484B4B595959704B6D487048184B1848A1
:10B3D80048827F4B48484B487F0000204FF0000BC5
:10B3E8004FF0040A38E001222A38C0B202FA00F00D
:10B3F80010EA0E0F49D110F0625C2FD110EA020B4F
:10B4080043D06046013C5444B4FBFAF40AFB04F40C
:10B41800002D61D0A3EB050CA444B4453FF66BAFF7
:10B42800002868D1042B47D159F8043B2360042332
:10B4380004342AE0019A013A01924FF0000B24E00B
:10B4480011F8010C6C2834D1002011F8023C834615
:10B458006C2BC5D14FF0080A5346D3E709F1070909
:10B4680029F00709073424F00704F9E802AB35B1DD
:10B4780006982044B0423FF63EAFC4E900AB4FF017
:10B48800000B08344FF0080A534611F8010F002842
:10B4980078D0BBF1000F7FF470AF2528F5D14FF0BD
:10B4A800010B019B013301934FF0040AECE7584666
:10B4B80094E700208346A5E7082B02D06FF015001B
:10B4C8001BE709F1070929F00709B9EC027B84EDAC
:10B4D800007B08230834D8E768B9042B02D109F1A6
:10B4E8000409A4E7082BE9D109F1070929F007099C
:10B4F80009F10809EDE705980138059059F8040B9A
:10B50800009010E7039A900720D54FF0010CA4EBA8
:10B51800050E4FEA9E00BEF5007FCFD20F2FCDD883
:10B52800F5B107F140020DEB020E019AC0B20EF818
:10B53800200C0EF8102CBCF1000F3FF41AAF60F08D
:10B548007F000EF8200C08F101080137C5F1080248
:10B558004FF6DA7E0434069297E74FF0000CDAE7EC
:10B56800BCF1000F01D00136EFE7029A0236002A3B
:10B57800EBD10098CDE90631FDF788FCDDE906310D
:10B588000644E2E7631BB3F5806F97D245B9A6F18D
:10B598000804E018B1E600BF8CFA02002038030066
:10B5A800029A9B0828602B709DF81030C2B1EB708E
:10B5B80085F80280B8F1000F05D0002208A8C5F16F
:10B5C800010C97420ED14FF0000AC5F101030DF1AD
:10B5D800200901930DF1300B574512D1601B8CE601
:10B5E8006B70E5E710F8013B190608D504EB0C0E63
:10B5F800B64503F07F033FF67EAE04F8013B013207
:10B60800DFE7B8F1000F03D099F90020002A17DB13
:10B61800029BD3B11AF80B2004F8012B0022019BDE
:10B6280098182044B0423FF666AE99F80000009999
:10B6380004F8010B2046039213F094FC039A144477
:10B648000AF1010A09F10109C6E799F8002055F83D
:10B6580022300093029B009845F82230FDF716FC33
:10B66800421CDCE76FF00D0047E600BF014B186095
:10B67800704700BF80C6002030B5002587B0CDE9EF
:10B6880003010446009503A905480595FDF770FCDC
:10B69800DDE904309842B8BF255407B030BD00BF7B
:10B6A80029AE02000F2808B506D90FF06EFF09234E
:10B6B80003604FF0FF3008BD2822044B02FB003323
:10B6C800D3E8AF3F002BF0D00020F4E78CC6002071
:10B6D8002823434330B50D4908330B44D3E8AF2F33
:10B6E80092B1541ED3E8EF5F954204D1C3E8EC4F02
:10B6F800BCF1000FF6D1F1D1012A05D12823584316
:10B7080000230A180B50536030BD00BF84C60020C8
:10B7180070B504460E461546FFF7C4FF00280DDB3A
:10B7280028236343064AD1184968316015B10C33A0
:10B7380013442B6028235C43105970BD0020FCE79C
:10B7480084C6002070B500254FF0FF334FF0FF325C
:10B7580017480BF01BFC174BD3E8AF2F7AB1013514
:10B76800102D03F12803F7D10FF00FFF17234FF027
:10B77800FF3503600E480FF0A7FB284670BD28244C
:10B788006C43D3E8EF0F0130C3E8E10F0029F8D18B
:10B79800094E331932515A6004F10C00304412F04A
:10B7A8006AFF04F12000304413F074F8E2E700BFA8
:10B7B80030CE00208CC6002084C6002010B4044679
:10B7C800104628225443094B1A191951506048B1A0
:10B7D800C2683AB10C34234440F205125DF8044BB8
:10B7E8000FF063BB5DF8044B704700BF84C60020B0
:10B7F8002DE9F04104460F469046FFF753FF002815
:10B808001ADB28235C430E4E04F10C0535444FF037
:10B81800FF324FF0FF3328460BF0B8FB33195B6853
:10B828003059424639461B689847044628460FF067
:10B838004BFB2046BDE8F0814FF0FF34F9E700BF2D
:10B8480084C600202DE9F04104460F469046FFF7D4
:10B8580029FF00281ADB28235C430E4E04F10C054F
:10B8680035444FF0FF324FF0FF3328460BF08EFB84
:10B8780033195B683059424639465B689847044635
:10B8880028460FF021FB2046BDE8F0814FF0FF3439
:10B89800F9E700BF84C60020F8B50546FFF702FFA8
:10B8A80000281ADB28246C430D4F04F10C063E4493
:10B8B8004FF0FF324FF0FF3330460BF067FB3B1978
:10B8C8005B6838599B689847044630460FF0FCFA85
:10B8D8002846FFF7FDFE2046F8BD4FF0FF34FAE793
:10B8E80084C6002073B504460D461646FFF7DAFEF7
:10B8F80000280EDB282303FB04F0074900960C18E8
:10B908002B46095840F2011260680FF0CEFA02B0D7
:10B9180070BD4FF0FF30FAE784C60020F0B502464C
:10B9280001680A270020074E0B461C780131355D57
:10B938006D0701D41360F0BD07FB0043A3F130008D
:10B94800F2E700BF363503002DE9F84F15469A4651
:10B95800D378224A6F2B12F803B080460F460BF0BB
:10B96800030B29D024D8582B0CBF10260A26DDF843
:10B9780028903246002340463946FDF74FF8092AF9
:10B98800D4B21ED83034B045E4B277F1000709F8D4
:10B99800014D01D3D14511D82B789B0605D5082E2A
:10B9A80015D1AB7843F00803AB704846BDE8F88F73
:10B9B80003F0F703702BD7E70826D8E780460F4631
:10B9C800D7E7BBF1010F0CBF37345734DBE7102E34
:10B9D800EBD1AB7843F01003E6E700BF3635030040
:10B9E8002DE9F84340F26C7344690569E1170135A4
:10B9F800E41841F10001022D8CBF00230123E41A51
:10BA0800C76861F100010029064607F1FF374EDAE1
:10BA18006FF4C7704FF4C8720023201861F1000159
:10BA2800FCF7ACFF244B4FF03C0E03FB0044D6E977
:10BA380000834FEAE37C99466346022D02468CBF99
:10BA48006FF002000920B6680544C6FB0E93A9FBF7
:10BA58000EC60EFB036640F26D1E9920A3080EFB6E
:10BA680004333B44642745430520B4FBF7F402350F
:10BA7800B5FBF0F51B1B114C1CEB080CA2FB0420BA
:10BA880004FB01012B4446EBE87698180C4A41F177
:10BA9800000380180B4A63F10003A0FB020102FBBC
:10BAA800031110EB0C0041EB0601BDE8F8834FF4DD
:10BAB800C87200232046B3E770FEFFFFB13A0200C8
:10BAC8009405F5FF805101002DE9F047058B0446E8
:10BAD8002807904611D4022905F0070540F0CC80CC
:10BAE80020460FF08BFA78B10138218B042811D841
:10BAF800DFE800F0C2106D85950001290CBF45F004
:10BB0800100545F02005258388F31188BFF36F8F52
:10BB1800BDE8F08701F0070AAA4500F0A5800027D4
:10BB2800B9463E46A368002B00F0BC8041F00801EE
:10BB3800218388F31188BFF36F8FA168002900F073
:10BB4800BA800D68002900F0B68033465246204678
:10BB5800D1F80480C047002D76D02B6829461D46B1
:10BB6800F0E701F007035A1F012A1BD8002221F031
:10BB78000701062B276889B2C4E9002209D13B4690
:10BB880003E0628B013262831B68002BF9D141F01C
:10BB98000201204621830FF031FA00287AD041F0C3
:10BBA800200176E0042B0AD121F0070189B2204652
:10BBB80021830FF023FA10B141F020012183218B5A
:10BBC80001F0070AAA454FD00027B946AAE723691A
:10BBD80021F0070141F00601062DD3F800902183DA
:10BBE8002DD1B9F1000F3FD041F00801218388F32E
:10BBF8001188BFF36F8F20463949C84729E021F0E3
:10BC08000701236941F0040189B2042DD3F8049097
:10BC18002183E6D000274FF0040A3E4682E721F050
:10BC28000701236941F0050189B2052DD3F8089071
:10BC38002183D6D000274FF0050A3E4672E7002739
:10BC48004FF0060A3E466DE72B4687E7B9F1000F2D
:10BC5800D1D1EFF31188202383F31288BFF36F8FBC
:10BC6800238B23F008032383258BEA062ED525F0A2
:10BC78001003238305F007056669218B002EBFF6A4
:10BC880070AF00232768C4E9003321F0070141F0B1
:10BC980001012183218B4FF0000901F0070AAA4511
:10BCA8007FF440AF002F9CD041F00801218388F336
:10BCB8001188BFF36F8F002FC8D03D6839463346CF
:10BCC800524620460FF0C6F92F46F4E7AB067FF53B
:10BCD8001BAF25F02003238305F0070500E700BF0D
:10BCE80089B002002DE9F84F81462F480F460FF022
:10BCF80071FA064670B92D4C0546A0464FF0010B67
:10BD0800DFF8ACA0544507D3B9F1000F02D04FF0CB
:10BD1800010AE5B9BDE8F88F237B6BB12368DB68BE
:10BD28000BB12046984723681B6943B9636804220E
:10BD38002046196800F0C4F801361034E2E72046BE
:10BD480098470028F2D00BFA06F31D43F4E7A946FA
:10BD580095FAA5F4B4FA84F40AFA04F3260108EB78
:10BD680004146FEA030B25EA0305237B63B158F833
:10BD780006301B6993B94644736804222046196843
:10BD880009EA0B0900F09CF8002DE1D127B14FF426
:10BD9800A47000210BF096FE4D46BAE7204698475E
:10BDA8000028F1D1E7E700BF50DC002090FF020037
:10BDB800A0FF0200014B53F8200070470801030060
:10BDC80008B5034608462BB1044A136000F06CFA24
:10BDD800002008BD6FF01500FBE700BF04C9002074
:10BDE8000023054A4FF400411370044A04481360C5
:10BDF800044A1360FFF7E4BFF2E5002048DC0020A6
:10BE0800D9B102004CDC002070B50B4D297841B93E
:10BE18000120FFF767FF094C094EB44202D3012302
:10BE28002B7070BD63685B791BB1236820469B68E3
:10BE380098471034F1E700BFF2E5002090FF0200B8
:10BE4800A0FF020010B5044606480FF0C3F93CB144
:10BE5800054BD3E8EF1F0139C3E8E21F002AF8D1E8
:10BE680010BD00BF48DC00204CDC002070B50A4B38
:10BE780005461B689847094C094EA860B44200D390
:10BE880070BD63685B7923B12368294620461B6827
:10BE980098471034F2E700BF04C9002090FF020061
:10BEA800A0FF0200044A054B9B1AB1EBD30F34BF25
:10BEB80052F831000020704780FE020090FF020017
:10BEC800084B10B4C31A44681B110133237143682B
:10BED8009A7101224368196043685A715DF8044BEE
:10BEE8000FF096B990FF02002DE9F04F85B002AF30
:10BEF8000446D7E90EA90E46934698463D6BBAF11B
:10BF0800000F33D0C7F80490CDF8009010215346A5
:10BF180000207A6BFFF7D8F90146154A04F00704A8
:10BF28000BF0070BE40044EA8B1402EA41221443A5
:10BF380044EA055417350D4425F00705ADEB050D0A
:10BF480002ADBAF1000F07D0CDF8009053467A6BD6
:10BF580005F11000FFF7B8F9434622463146284656
:10BF68000FF059F90C37BD46BDE8F08F5146D4E7BC
:10BF780000FE0F00406820B1034BC01A40F3CF0009
:10BF880070474FF0FF30704780FE02000EB403B5D3
:10BF980003AB53F8042B0146044801930FF07EF9D4
:10BFA80002B05DF804EB03B0704700BF51B2020065
:10BFB800CA0605D48B064CBF02490349FFF7E6BF02
:10BFC800704700BF040C0300142E03002DE9F04F46
:10BFD8008BB09A46169B9DF854B00693179B04465F
:10BFE8000593189B0D469046199E0493BBF1000FCC
:10BFF80000F09E8006F00103089306F008030793FB
:10C0080006F4807309930FF004F906F0020902465A
:10C0180000283BD020468F49FFF7B8FF0746B9F103
:10C02800000F08D016F0440F32D12A4620468A491C
:10C03800FFF7ACFF0744089B53B1884B204653F8E1
:10C048002B20874B8749002A08BF1A46FFF79EFF17
:10C05800099B002B48D0079B002B62D1B8F1000F39
:10C0680064D0424620468049FFF790FF0546069B6C
:10C078003D44002B6BD1049B002B71D1F30700F1D9
:10C08800E38031462046FFF793FFD7E00746C6E72F
:10C09800764B18680028CDD0754B4FF47A791B6819
:10C0A8004FF46161B5FBF3F5B5FBF0F300FB1355F5
:10C0B80009FB05F5B3FBF1F2B5FBF0FE4FF03C0CC4
:10C0C80001FB123100FB1E55B1FBFCF309FB05F522
:10C0D800B5FBF0F50CFB131120460091CDE901E505
:10C0E8006449FFF753FFA5E7079BEBB1624B204676
:10C0F80053F82B206149FFF749FF0546B8F1000FB7
:10C1080005D0424620465849FFF740FF0544BAF19A
:10C11800000FACD0524620465949FFF737FF054477
:10C12800A5E74FF0000AE1E7079DE7E745469EE7E8
:10C13800BAF1010F069B06D1002B65D1049B002B99
:10C148007CD000250CE0002BF8D04E485DE04E482E
:10C15800069B22464D490EF030FE049B002B69D009
:10C16800DFF83C81DFF83C91049F3146102F2046D0
:10C1780028BF10274FF0000AFFF71AFF554546DC85
:10C18800059B494620461A78FFF700FF4FF0010A41
:10C198001AF0070F03D141462046FFF7F7FE57452F
:10C1A8003CD9059B4946204613F80A20FFF7EEFEC6
:10C1B8000AF1010ABAF1100FEAD14FF0000A20463D
:10C1C8003349FFF7E3FE5246059B20469A5C314B04
:10C1D800995C11F0970F08BF2E222F49FFF7D6FE62
:10C1E8000AF1010ABAF1100F1DD01AF0070F03D196
:10C1F80041462046FFF7CAFE57455246E4D8414615
:10C208002046FFF7C3FEEBE71F485D46A0E741461F
:10C218002046FFF7BBFE0AF1010AAFE720461F4997
:10C22800FFF7B4FEC4E7059B3B440593049BDB1B67
:10C23800049399D1BBF1000F7FF420AF20460BB0D7
:10C24800BDE8F04F0FF031B82046054A0549FFF721
:10C258009DFE16E71B0F03001F0F030018010300C4
:10C26800160F0300D8300300440F030058DC0020E9
:10C2780054DC0020280F03002C010300480F0300A2
:10C288004E0F03006DB2020051B20200A5B20200C7
:10C298005D0F030036350300AD230300590F03007B
:10C2A8005B0F0300530F030000210123064A90424D
:10C2B80006D8064A01B901231360054B1860704778
:10C2C800012140085B00F2E740420F0054DC0020E7
:10C2D80058DC0020F8B50D460446064F4618B4420F
:10C2E80001D12846F8BD14F8011BBB6801485B68FA
:10C2F8009847F4E7F0FB0200014B03600020704709
:10C3080074010300F0B504469BB00F4615460021A2
:10C31800302202A812F033FE002C00F0A080002D7D
:10C3280000F09D809DF8083023F03F0343F01B0385
:10C338008DF8083012F016FC4A4A0026A0FB0203CA
:10C3480002FB013110F5804041F10001C00B40EAC9
:10C3580041400023434AC90BFCF710FB41F2C603D6
:10C368004FEA106C5A4303024CEA012C03F47F0392
:10C3780043EA0C03C4E9040143EA0063000A00F439
:10C388007F400343A26112BAE0680C930D923022F9
:10C398003346CDE9006602A90FF083F900280FDBC8
:10C3A800314630220EA812F0EAFDA1683A4620462E
:10C3B8000FF0DFF9B04205DA0FF0E7F80068404205
:10C3C8001BB0F0BD42D0E06830223346CDE90066AC
:10C3D8000EA90FF09AF90028EEDB302839D1D4E9FC
:10C3E8000412149B1BBA964208BF8B4202D06FF00E
:10C3F8001500E5E7159BA2691BBA9342F7D19DF892
:10C40800383003F00703042BF1D19DF839301BB302
:10C41800189B199A1BBA12BA53EA0201E7D0AA600C
:10C42800002293420DDA10498B4202D8C5E9003246
:10C43800DDE70E4A9B1862EB02020020C5E90032D4
:10C44800BEE70A495B1842F10002F6E76FF0730095
:10C45800B6E76FF07900B3E76FF00F00B0E76FF061
:10C468000D00ADE740420F007F7EAA838081557C96
:10C4780008B504480EF0E7FCBDE8084002480EF095
:10C48800E2BC00BF990F0300CE0F03002DE9F0476F
:10C4980080460D468CB0002966D000248B680122A6
:10C4A80005934B68204604930B683B4903933B4B29
:10C4B800CDE90044029323460EF090FF6B690122F8
:10C4C80005932B6920460493EB6833490393344B57
:10C4D8000094CDE9014323460EF080FFEB69012269
:10C4E8000393304B2046CDE901432B492346009462
:10C4F8000EF074FF2F462646DFF8B8A0DFF89890B4
:10C50800FB6A01220A93E31C0993BB6A4946089314
:10C51800A31C07937B6A10370693631C05933B693A
:10C52800CDE9016ACDE90343002300961846043497
:10C538000EF054FF102CE3D12B6E012203931A4BFB
:10C548001549CDE901630023009618460EF046FF11
:10C55800AB6901220393154B0F49CDE90163002311
:10C56800009618460EF03AFFB8F1010F0DD1EFF31F
:10C578000583103B03930E4B424602930023064962
:10C588001846CDE900330EF029FF294640460CB085
:10C59800BDE8F0470AF09ABA28FF0200FC0F030032
:10C5A8002B1003005A100300AC100300BB1003004B
:10C5B800E91003006910030030BFFFF7FDBF00BF9B
:10C5C800074A936893F90E10002907DB9269934292
:10C5D8001FBF044A536843F080535360704700BF3D
:10C5E800A0E5002000ED00E0F0B50024414B85B047
:10C5F8000293074623460E4601222046CDE9004411
:10C608003D490EF006FF3D4B9B6ADD066FD53C4B5E
:10C618002046CDE9014301222346374900940EF014
:10C62800F8FE1120354B9B6A1C070AD5354B0122B1
:10C638000293002330491846CDE900330EF0E9FE95
:10C6480012202E4DAB6A99071FD500242E4B0122CC
:10C65800029320462346CDE9004427490EF0D9FE2F
:10C668006B6BAA6A12060FD50393284B0122CDE9FA
:10C67800014320462346204900940EF0CAFE1FB10C
:10C68800AB6A23F08003AB6213201C4B9B6ADD0767
:10C698000AD51F4B01220293002317491846CDE9FA
:10C6A80000330EF0B6FE1420144B9B6A9C060AD584
:10C6B800184B0122029300230F491846CDE9003395
:10C6C8000EF0A7FE15200D4B9A6AD10658BF9A6A3C
:10C6D8009A6A920642BF5A6A22F400525A629A6AC9
:10C6E80042F0FF029A620023337005B0F0BD1020BB
:10C6F80098E700BFFC10030028FF020000ED00E0EF
:10C7080012110300451103005811030070110300B2
:10C7180086110300A5110300F0B50024434B85B032
:10C728000293074623460E4601222046CDE90044DF
:10C738003F490EF06EFE3F4B9B6ADB0465D53E4BCE
:10C748002046CDE9014301222346394900940EF0E1
:10C7580060FE1720374B9B6A1D050AD5374B01220F
:10C768000293002332491846CDE900330EF051FEFA
:10C778001820304DAB6A9C051FD50024304B012290
:10C7880020460293CDE90044234629490EF041FE94
:10C79800AB6BAA6A10040FD503932A4B0122CDE98B
:10C7A800014320462346224900940EF032FE1FB171
:10C7B800AB6A23F40043AB6219201E4B9B6A5905F0
:10C7C8000AD5214B01220293002319491846CDE9C5
:10C7D80000330EF01EFE1A20164A936A13F4807373
:10C7E80015D01A4B01220293002311491846CDE9AE
:10C7F80000330EF00EFE1B200E4A936A43F47F436B
:10C8080093620023337005B0F0BD1620A2E7926A48
:10C818009204F1D50E4A1846CDE9013204490122A5
:10C8280000930EF0F6FD1C20E6E700BFD4110300CC
:10C8380028FF020000ED00E0EA11030045110300A3
:10C84800FB11030014120300291203004412030011
:10C85800A51103001FB500243E4B3F490293012256
:10C8680023462046CDE900440EF0D3FD3B4B9B6A9E
:10C8780099016DD53A4B2046CDE901430122234663
:10C88800354900940EF0C5FD1E20344B9B6ADA0131
:10C898000AD5344B0122029300232F491846CDE9CB
:10C8A80000330EF0B6FD1F202C4B9B6ADB020AD525
:10C8B8002D4B01220293002327491846CDE9003366
:10C8C8000EF0A7FD0220254B9B6A1C030AD5274BB7
:10C8D80001220293002320491846CDE900330EF0C7
:10C8E80098FD21201D4B9B6A59030AD5204B012234
:10C8F8000293002318491846CDE900330EF089FD4C
:10C908002220164B9B6A9A030AD51A4B01220293DE
:10C91800002311491846CDE900330EF07AFD232093
:10C928000E4B9B6ADB030AD5134B012202930023AB
:10C9380009491846CDE900330EF06BFD2420074A5B
:10C94800936A6FEA03436FEA1343936204B010BD1E
:10C958001D209AE75C12030028FF020000ED00E0AA
:10C968007412030087120300A1120300CB12030004
:10C97800E91203000E130300281303002DE9F04306
:10C98800754B0546D3F80480894614460026A3B0A3
:10C99800C8F3080786F31188BFF36F8F02F07F434F
:10C9A800B3F17F4F25D112F0010322D1510603D4F0
:10C9B80022070DD401260DE0684A1846CDE9013258
:10C9C8006749012200930EF024FD14F0040400D0FE
:10C9D8004D4600264FF00009FB1E8DF81F90092BCD
:10C9E80000F2A080DFE803F0079498919E9E9E9E37
:10C9F8009E9C3546EEE75B4B0122CDE9019300236F
:10CA080057491846544FCDF800900EF002FD8DF8A6
:10CA18001F90FC6A14F0020405D0534BCDE9019332
:10CA2800CDF8009006E0FB6A002B0BDA4F4B009420
:10CA3800CDE9014300230122184649490EF0E9FCDB
:10CA4800002430E0FB6A5B00FAD5494B0122CDE9AE
:10CA5800014320462346424900940EF0DAFC7B69E4
:10CA6800AA6943F480737B61BFF34F8FBFF36F8F65
:10CA78007B6932F8022C23F480737B61BFF34F8FFC
:10CA8800BFF36F8F4DF602739A4226D12B6820466A
:10CA98000393384B0094CDE90143012223463049E2
:10CAA8000EF0B7FC2C689DF81F309BB96822294608
:10CAB80008A812F057FA0F9B002E47D0C3F30802BC
:10CAC80022B96FEA53236FEA43230F93204608A93C
:10CAD800FFF7DCFC23B0BDE8F083BB6ADBB233B1FF
:10CAE80001200DF11F01FFF77FFD0446DBE7BB6A5C
:10CAF80013F47F4F05D001200DF11F01FFF70CFE45
:10CB0800F3E7BB6AB3F5803F9AD3FFF7A3FEECE7E0
:10CB180000200DF11F01E6E700200DF11F01EDE7F0
:10CB2800154B7BE7154A18F4F87F154B18BF1346C9
:10CB3800103FCDE90337134B012202930023084924
:10CB48001846CDE900330EF064FC79E723F4FF734F
:10CB580023F00103B9E700BF00ED00E081130300F3
:10CB680028FF0200A4130300BB130300DC13030017
:10CB7800EA130300091403002514030068130300D3
:10CB88005313030049140300044B5A6942F010027E
:10CB98005A615A6942F480625A61704700ED00E0B8
:10CBA800EFF30880EFF3098101B57246FFF7E6FE5F
:10CBB80001BD00BF002080F31488BFF36F8F0020F1
:10CBC80080F30A8880F30B8806F0FAFA00200E49F1
:10CBD8000860BFF34F8F0D4880F3088800F02CF8E9
:10CBE800202080F311880A484FF40061401880F330
:10CBF8000988EFF314800221084380F31488BFF3F7
:10CC08006F8F00F023F9000094ED00E0E822012086
:10CC1800A8090120002318460649D1F89020C2F33C
:10CC28000722934200DB7047C1F89830C1F8A00092
:10CC38000133F6E700ED00E010B572B6002484F386
:10CC48001388FFF7E7FF23464FF0FF300C4A03F144
:10CC580020010133102B42F82100F8D100234FF0B6
:10CC6800FF30074A03F160010133102B42F821001D
:10CC7800F8D162B6BFF34F8FBFF36F8F10BD00BFFF
:10CC880000E100E0084B9B6883420BD1EFF305837A
:10CC980043B1064B5A6842F080525A605A6A22F4ED
:10CCA80000425A6211F001BFA0E5002000ED00E04B
:10CCB8006FF00A01084A9368D967084998674B6872
:10CCC80043F080534B60002383F31188BFF36F8FC9
:10CCD8009368D86F704700BFA0E5002000ED00E022
:10CCE8000E4A936883F8C100EFF31183202383F37E
:10CCF8001288BFF36F8F4FF00061936920F0FF0037
:10CD08009360074A5160002193F8C12010439A6F3D
:10CD1800996782F31188BFF36F8F7047A0E50020F1
:10CD280000ED00E01D498A6882F8C1E04FF030004C
:10CD38001044EFF3098C80E8F01F1EF0100F03D1A8
:10CD480002F1800080EC108A74467046FFF7C8FF35
:10CD5800A64612498A6886461EF0100F03D00023A3
:10CD6800E1EE103A03E002F1800090EC108AEFF354
:10CD7800148323F0040383F31488BFF36F8F02F145
:10CD8800300090E8F01F8CF3098802F1000004B528
:10CD98000EF081FBBDE8044070470000A0E50020CC
:10CDA8001EF0040F0CBFEFF30880EFF309808169D0
:10CDB80011F8021C0229FFD001B50EF01FFB01BDBE
:10CDC80040B2002807DB01234109034A00F01F0095
:10CDD800834042F82130704700E100E040B200286B
:10CDE8000CDB01220649430900F01F008240203372
:10CDF80041F82320BFF34F8FBFF36F8F704700BFF9
:10CE080000E100E0054B420953F82220012300F01D
:10CE18001F0003FA00F01040704700BF00E100E077
:10CE280040B2002801F10101ACBF00F16040064B9F
:10CE38004FEA4111C9B2ABBF00F5614000F00F00E5
:10CE480080F800131954704714ED00E0144A08B52F
:10CE5800144B22F07F029A60BFF34F8FBFF36F8F9E
:10CE6800D3F8882022F47002C3F88820D3F88820E9
:10CE780042F4A002C3F888204FF04042C3F834229D
:10CE8800BFF34F8FBFF36F8F0023E1EE103A09F025
:10CE9800F9FE0AF0D3FE00F07BF809F033FF00BF7B
:10CEA8000080010000ED00E042F8203C009B0D49A5
:10CEB80042F81C3C019B21F0010142F8183C029BFE
:10CEC80042F8081C42F8143C4FF0807342F8043CC6
:10CED800002383674FF43C43203A0265C0F8C03012
:10CEE800704700BF83AE0200104B9B6883421AD183
:10CEF800EFF30580B8B9EFF31181202282F312888D
:10CF0800BFF36F8F1A7B22F002021A73EFF31483B8
:10CF180023F0040383F31488BFF36F8F81F3118820
:10CF2800BFF36F8F70476FF015007047A0E50020C2
:10CF38000E4615460023E1EE103AEFF3148323F072
:10CF4800040383F31488BFF36F8FBFF36F8F0A4B0B
:10CF58009860836E83F30B882C4686F309884FF01C
:10CF68000000064B984720464FF000014FF00002A2
:10CF78004FF00003024C2047A0E50020A7B40200B0
:10CF880083AE02001022014B1A61704700ED00E0E9
:10CF9800002320210348C2180133412B82F80013D3
:10CFA800F9D1704700E100E008B5EFF30583064AC0
:10CFB800103B02EBC30152F8330049688847BDE8CB
:10CFC8000840FFF7FDBA00BF68FC02001FB5094C16
:10CFD800094A23460121094800F020F90023039358
:10CFE800074B0121E41A01A80193029400F020F9EB
:10CFF80004B010BD0000042080C5002074010300A7
:10D00800C0CF002010B50C7A0B6804F01F0223F083
:10D018001F031A43CB68640923F01F03054943EA39
:10D02800440343F00103C1F89800C1F89C20C1F8FB
:10D03800A03010BD00ED00E01FB50E4B0446D3F83C
:10D048009030C3F30723013B98420FD90A4B039052
:10D058000293002301221846CDE9003307490EF058
:10D068004AFA6FF01504204604B010BDFFF7CAFF56
:10D07800F9E700BF00ED00E06014030008FF0200BC
:10D088002DE9F04F8946144606464FF00008544DE6
:10D0980089B0C8452DDAD6F804A0BAF1000F4AD0F5
:10D0A800BAF11F0F17D91AF01F0F14D1D6F800B014
:10D0B8001BF01F0F0FD158460EF014FA07460AEB63
:10D0C8000B0001380EF00EFA874216D06FF01507E4
:10D0D800444B039702E0444BCDF80C8002930023A5
:10D0E80001221846CDE9003340490EF004FA6FF0EA
:10D0F8001504204609B0BDE8F08F17F1160FE7D0E8
:10D10800BC42E5DDC5F89870D5F89C10C5F8987054
:10D11800D5F8A03021F01F0143F01F0BD6E90032EB
:10D128001A44994202F1FF3A1DD1D34507D131463D
:10D13800F8B20EF0F0F908F101080C36A9E731460B
:10D14800C5F89870D5F89C3022F01F0203F01F0331
:10D158001343C5F89C30E0B20EF0DDF910F1160F5C
:10D16800C5D0441CE7E7C5F89870D5F8A020013B66
:10D1780023F01F0302F01F021343D3453146E0B2E8
:10D18800C5F8A030E8D00EF0C6F910F1160FAED0F1
:10D19800C5F89870D5F89C209DF818300BF1FF3B26
:10D1A80062F304038DF81830D5F8A0309DF81820E4
:10D1B8005B0863F347128DF81820D6E90032134450
:10D1C800049323F01F035B44A3EB0A03013023F00D
:10D1D8001F0304A9C0B20793FFF72EFFBEE700BFE5
:10D1E80000ED00E0A91403008614030008FF020004
:10D1F8000522044BC3F89420BFF34F8FBFF36F8F02
:10D20800704700BF00ED00E0BFF35F8F0022024BC4
:10D21800C3F89420704700BF00ED00E010B5034C40
:10D228002278FFF72DFF207010BD00BFF4E5002025
:10D238002DE9F74F294D8A4606464FF00008AB46C0
:10D24800274FD0451BDAD6F80490B9F1000F3FD02C
:10D258003168084601910EF045F90199044609EB39
:10D26800010001380EF03EF984424FF014021D4BC4
:10D2780008D002FB08F36FF015024BF8032003B047
:10D28800BDE8F08F14F1160F2C60F8D01978A14280
:10D29800F5DD02FB08B0C7F89840C7F89840D7F802
:10D2A8009C4000F10801007B64F304000871D7F882
:10D2B800A0000C79400860F347140C71D7F89C1053
:10D2C80021F01F016960D7F8A01021F01F01296122
:10D2D80008F1010814350C36B3E700BF88DC0020DC
:10D2E80000ED00E0F4E50020F0B54149414CD1F8EB
:10D2F80090302568C3F307239D4287B075D8002076
:10D30800FFF782FF3C4BC1F8C030854216D13B4C39
:10D3180001A82570FEF7F0FF00250646384FAE42FB
:10D3280013D1002023783249D1F89020C2F3072284
:10D33800934254DBFFF75CFF00202FE0616801EBAC
:10D348000011FFF75FFE0130DFE70199280101EBCB
:10D358000513DA683A40B2F5001F21D0B2F5800F04
:10D368002BD0B2F5801F38D15A689B680958013B09
:10D3780022F01F0003440120844623F01F0340EAE3
:10D388004C10CDE902218DF8100002A920780593F0
:10D39800FFF752FE00281DDA6FF0150007B0F0BD48
:10D3A8005A689B680958013B22F01F0003444FF05C
:10D3B800020C012023F01F03E1E75A689B68095813
:10D3C800013B22F01F0003444FF0000C062023F01D
:10D3D8001F03D4E723780133237001359FE7C1F891
:10D3E8009830C1F8A00001339EE74FF0FF30D5E731
:10D3F80000ED00E080010300AAFF4400F4E50020EE
:10D408000000F0FF014B1860704700BF10C90020F2
:10D41800F8B50D46094F461EC0F10104A3199D42F7
:10D4280001DC2846F8BD73780A2B02D10D203B6831
:10D4380098473B6816F8010F9847EFE710C9002096
:10D4480010B5074C2368C2180648C0F1005101F511
:10D4580080218A4236BF22604FF0FF30C01810BDCD
:10D468009CDC00201031012008B505480DF0EBFCCC
:10D47800002383F31188BFF36F8F0423184602DF5C
:10D48800DB14030038B50025074C204611F0F3F8EB
:10D4980004F11400013511F0FDF9052D04F12404FF
:10D4A800F3D1002038BD00BFA0DC002038B500242F
:10D4B800054D2846013411F0EDF9052C05F1080554
:10D4C800F7D1002038BD00BF54DD002038B5002456
:10D4D800054D2846013411F0CEF8052C05F1140548
:10D4E800F7D1002038BD00BF7CDD0020002230B518
:10D4F8001546094B09494C68013203F1D000052A49
:10D50800C3E93414206003F5807303F8085C4860AD
:10D51800F1D1002030BD00BFC0D0002014C90020C8
:10D528000122024B0020C3F84025704700900340B9
:10D5380020B1034B800143F001031847704700BF37
:10D548000000030070B5334B86B004AE93E80300C7
:10D5580086E80300304810F0B6FF0446002838D1AA
:10D568002E4B0122CDE901032D49034600900EF010
:10D578000EF86FF0120303932A4B0122CDE9014301
:10D5880020462346264900940EF001F8264B93E8DE
:10D59800030086E80300204810F095FF054640BBCD
:10D5A8006FF01204214B0122CDE901031C49034607
:10D5B80000900DF0ECFF1E4B0122CDE901532846E7
:10D5C8002B461749039400950DF0E1FF204606B05D
:10D5D80070BD30464FF420210DF0E8FF154B0322B3
:10D5E800029300230E491846CDE900330DF0CFFF12
:10D5F800CCE7002430464FF4C0210DF0D7FF0E4B86
:10D608000322029320462346CDE9004404490DF045
:10D61800BEFFDBE7A0FF0200B4FB020032150300E7
:10D6280080FE020057150300A8FF020095150300AD
:10D63800BE15030084150300EF1503002DE9F04122
:10D6480005460E461746104CDFF84080444507D380
:10D658000DF09BFF6A2303604FF0FF30BDE8F081B7
:10D668002368AB4200D063B93A4631462846A368DE
:10D67800984730B13A4631462846E368BDE8F0415C
:10D6880018471034E2E700BF70FE020080FE020077
:10D698002DE9F04F4FF0000846469DB0CDE9060150
:10D6A80008A814461D4611F05FFADDE90823DDE9F4
:10D6B800069BCDE904230DAB0A93CDF80C80BBF192
:10D6C800000F22D1002E6ED0B5F1FF3F08BFB4F194
:10D6D800FF3F17BF4FF47A724FF0FF34A4FB0243A9
:10D6E80002FB05331CBFE40B44EA4344079B4FF499
:10D6F800827200934146069B039801940DF06FFFD8
:10D70800074638461DB0BDE8F08FD9F8000000285C
:10D7180029DB0CAA0BA9FDF7FBFF074618B34FF04E
:10D72800FF324FF0FF330C980DF068FF1CAB0193EC
:10D738000AAB00934FF481724B4639460B980DF0B3
:10D748004EFF10F1780F824612D10022002308A85C
:10D7580011F00AFADDE90834CDE9043400240C9804
:10D768000DF04EFF254609F108090BF1FF3BA6E72E
:10D778001AF1120F0C980BD1039B1BB10DF040FF4F
:10D788000126F0E70B9BB84603930DF039FFF7E746
:10D798000DF036FFBAF1000FE5DA0DF0F6FECAF12A
:10D7A8000003036021E0DDE9042308A811F000FA72
:10D7B800DDE9084522462B46DFF8CC800A990DACF6
:10D7C800091B891008FB01F120460AF03BFC00F117
:10D7D8000B030B2B054604D82A4F1F4117F00107EE
:10D7E80006D00DF0D2FE6D4205604FF0FF3788E796
:10D7F800B9460A94DDE906458DB9B9F1000F80D024
:10D80800002F7FF47EAFDDE9042308A811F0D0F9DA
:10D81800DDE908452B4625432246CFD171E720682C
:10D82800E680002827DB0CAA0BA9FDF771FF8246CA
:10D8380018B92023E38001371DE04FF0FF324FF085
:10D84800FF330C980DF0DAFE0AAB514640F2031292
:10D8580000930B9823460DF0C2FE82460C980DF0FB
:10D86800CFFE1AF10B0F09D0BAF1000F95D1B4F918
:10D878000630002BDFD10834013DBDE74FF0010928
:10D88800F9E700BF7EF7FFFFCDCCCCCC014B186089
:10D89800704700BFE0DD002010B4034C2468246802
:10D8A800A4465DF8044B6047E0DD0020014B1B688F
:10D8B8005B681847E0DD00202DE9F0410D4606467B
:10D8C800E8B1E1B10846FBF7E1FA08281AD8104F89
:10D8D800DFF84080441C474507D322462946301DBF
:10D8E80011F040FB0020BDE8F081B74205D0224688
:10D8F8002946381D11F026FB38B13C37EBE76FF0AD
:10D908001500F0E76FF05A00EDE76FF07700EAE7EF
:10D9180050CF00208CCF0020F0B54FF0FF324FF0F1
:10D92800FF33274885B00DF076FF0025254C264E9D
:10D93800B44205D3224805B0BDE8F0400DF089BFD8
:10D94800C4E90155236825731B689F6897B13B6834
:10D9580083B104F1100010F08EFE04F1240010F0E1
:10D968008AFE3B682046984794F8383023F0030332
:10D9780084F83830237903BB2046CDE901338DF88C
:10D988000C300DF0E1FF40B1104A01A81368591C92
:10D99800116008210E4A0DF063FA9DF8043043B96E
:10D9A8000C4A01A81368591C116008210A4A0DF095
:10D9B80057FA204601A9FFF77FFF3C34B8E700BFBC
:10D9C8006CCE002050CF00208CCF0020E8DD002056
:10D9D80034160300E4DD00203B16030038B5074C7D
:10D9E800074DAC4200D338BD032120460DF01CFF83
:10D9F80010B920460DF076FF3C34F2E750CF0020F6
:10DA08008CCF002013280ED8084A12F8103053B1D2
:10DA180002EB4002527832B10868434393FBF2F3B9
:10DA280000200B6070476FF0150070474116030027
:10DA38000122054BC3F8002590F8861009B1DA6079
:10DA480070471A605A60704700E00040F0B50A79E4
:10DA58008D7902F01F00072885B025D80F780B2F85
:10DA680018D8DFE807F00707070717061717111375
:10DA7800171504274B78032B1AD0042B4FF00003FB
:10DA880028D02E4A029208E00527F3E70627F1E797
:10DA98000727EFE72A4B0293002301221846CDE916
:10DAA800003328490DF05DFF6FF0150005B0F0BD9B
:10DAB800012644F20A034C889C4239D00CD844F21F
:10DAC80003039C4216D044F205039C422ED07CB33B
