:020000040000FA
:10000000306100201D2F00000B8E0000092F000022
:10001000092F0000092F0000092F0000092F000000
:10002000000000000000000000000000013100009E
:10003000092F00000000000085300000092F00009B
:1000400009330000093300000933000009330000C0
:1000500009330000093300000933000009330000B0
:1000600009330000093300000933000009330000A0
:100070000933000009330000093300000933000090
:100080000933000009330000093300000933000080
:100090000933000009330000093300000933000070
:1000A0000933000009330000093300000933000060
:1000B0000933000009330000093300000933000050
:1000C0000933000009330000093300000933000040
:1000D0000933000009330000093300000933000030
:1000E0000933000009330000093300000933000020
:1000F0000933000009330000093300000933000010
:1001000009330000093300000933000009330000FF
:1001100009330000093300000933000009330000EF
:1001200009330000093300000933000009330000DF
:1001300009330000093300000933000009330000CF
:100140000933000053B94AB9002908BF00281CBF71
:100150004FF0FF314FF0FF3000F00CB8ADF1080C5C
:100160006DE904CE00F008F8DDF804E0DDE90223D3
:1001700004B07047704700BF2DE9F04786468C46B3
:100180000846089E154674461946002B40F0C1806B
:100190008542B2FA82F245D94AB1C2F1200300FA8F
:1001A00002FC954094402EFA03F343EA0C0C4FEA0C
:1001B000154EA8B2230CBCFBFEF80EFB18CC08FBB6
:1001C00000F943EA0C43994528D9EB1808F1FF37A9
:1001D00004D2994502D9A8F102072B44A3EB0903E5
:1001E000A4B2B3FBFEFC0EFB1C330CFB00F044EA94
:1001F0000344A04214D92C190CF1FF3304D2A042BD
:1002000002D9ACF102032C44241A43EA07401EB180
:10021000D440002334607360BDE8F0874746DDE7D3
:100220006346F1E792BB431B01214FEA154EAFB283
:10023000200CB3FBFEFC0EFB1C330CFB07F840EA62
:100240000343984561D9EB180CF1FF3004D298456F
:1002500002D9ACF102002B44A3EB0803A4B2B3FB18
:10026000FEFC0EFB1C330CFB07F744EA0344A742D9
:100270004DD92C190CF1FF3304D2A74202D9ACF1AD
:1002800002032C44E41B43EA0040C0E7C2F1200310
:100290009540944020FA03F12EFA03F34FEA154EED
:1002A0009040AFB20343B1FBFEFC0EFB1C10190CD7
:1002B0000CFB07F841EA0041884522D969180CF186
:1002C000FF3004D2884502D9ACF102002944A1EBE9
:1002D00008019BB2B1FBFEFC0EFB1C110CFB07F7E7
:1002E00043EA01439F420ED9EB180CF1FF3104D2CF
:1002F0009F4202D9ACF102012B44DB1B41EA0041D1
:1003000093E76046E3E76146F7E76046A4E76346A4
:10031000B8E7834206D916B9002108467CE7C6E94A
:1003200000E0F9E7B3FA83F78FB9834201D372454E
:1003300008D8BEEB020460EB030301209C461EB903
:10034000002169E73846FAE7C6E9004CF8E7C7F14B
:10035000200CBB400EFA07F522FA0CF42EFA0CF131
:10036000BA401C4320FA0CF3B8404FEA1449014349
:100370001FFA84FEB3FBF9F809FB18300B0C08FBDD
:100380000EFA43EA00439A4540D9E31808F1FF30DA
:1003900004D29A4502D9A8F102002344A3EB0A0330
:1003A00089B2B3FBF9F809FB183308FB0EFE41EAEA
:1003B00003418E452CD9611808F1FF3304D28E45D4
:1003C00002D9A8F10203214443EA0040A1EB0E0147
:1003D000A0FB02984145CE46434602D306D14D4587
:1003E00004D20138B9EB020E68EB0403002EA7D04B
:1003F000B5EB0E0261EB030101FA0CFC22FA07F3E4
:10040000F9404CEA0303C6E9003199E74046C5E7E5
:100410004346D9E7F0B53E4B3E4A85B0C3F80026C7
:100420004921C3F804263C48C3F80826C3F80C2623
:10043000C3F81026C3F81426C3F81826C3F81C26E0
:1004400008F0F7FB07F07EFF00F078F878B14FF086
:100450005023D3F800340BB1DB0708D549212F48CE
:1004600008F0E7FB01F0A0FF2D4802F09FFB00F031
:10047000C1FA054601A800F065FD0446284600F0D3
:10048000C9FA284B1B68A34205D04521264808F02D
:10049000D0FB08F059F8039A4921244808F0C9FB19
:1004A0004921234808F0C5FB4FF48031002004F0B7
:1004B00067FA044620B145211E4808F0BAFBFEE762
:1004C00069469DF8080000F05DF8009B039D1D44FF
:1004D000019B1E8904F03CFAAF1901F0A3F801F06A
:1004E00073F801F08DF884F30B8884F30A88AB5914
:1004F00083F3088884F31488BFF36F8FBFF36F8F83
:100500007B68984745210C4808F093FBFEE700BF45
:10051000008001503546526EC8B20000E1B20000C2
:1005200008AE00000800002005B3000028B300005A
:1005300057B300007CB30000AFB3000073B50F4C9D
:1005400020460AF00AF9B8B12569A6682B6805218A
:1005500043F020032B6020463368094A9847204621
:10056000736801A9984720B92B6801985840C0F3D7
:100570004010003818BF012002B070BD48AB000029
:1005800011000100024608B538B105480023452195
:1005900008F04FFB6FF0150008BD0860FCE700BFD6
:1005A000D2B3000021B1012906D06FF015007047C9
:1005B000044B53F830007047024B03EBC0035868FC
:1005C000704700BF10AE00002DE9F04FDFF848B2D1
:1005D000DDB01646DDE968891C466A9FDBF80050ED
:1005E00000F0BCFF0122884B3CA8C3F8002506F0B0
:1005F000C7FDB8F1000F07D0B9F1000F04DD4A467E
:1006000041463CA808F0F4F94FF00008338972899C
:10061000D6F80CA013449A44C24565D80FA93CA84B
:1006200006F020FE0022784BC3F80025C3F8002511
:1006300027B1202238460FA908F047FC0023314695
:10064000009322464FF6FF7309A807F07CFE06468A
:1006500000285AD120460E9F00F0B6F9874254D8A0
:100660004FF0FF37DFF8B4A1DFF89C810DF11E03D6
:1006700007AA08A909A807F0B4FE002845DB40F046
:10068000BA80089909A807F0F8FE50B94FF6FF7133
:10069000BDF81E005D4A32F8023B8B4235D09842CD
:1006A000F9D1BDF81E90B9F1100F38D1BDF81C90EA
:1006B000B9F1200F29D14B46204608993CAA08F0F1
:1006C000C6FA10BB00F096F94A4606463CA90FA8A8
:1006D00000F028F98146304600F09CF94C4B1B682D
:1006E0004B4512D10126C1E7679BAAEB0809994542
:1006F00028BF994641464B462046669A08F0A7FA1D
:1007000030B10022404BC3F80025DBF8005074E004
:100710004A4666993CA808F06BF9C8447CE7B9F1F1
:10072000010F41D1BDF81C30202BEED8204608998E
:100730003CAA08F08CFA07460028E6D19DF81C3048
:10074000202B039309D8DAF80020324B0492049A44
:10075000974205DB0023C8F800354FF0FF3785E7E7
:10076000059300F0FBFEC8F800951FA806F008FDF1
:10077000059B1FA85A6853F8081B1268059308F0D8
:1007800037F917A91FA806F06DFD0022C8F800254B
:10079000039A3CA917A808F071FB059B10B9C8F88B
:1007A000000563E70137D2E7B9F1220F7FF45EAFAE
:1007B0007B1C3FF45BAFDAF80030BB42CDDDBDF807
:1007C0001C30802BA1D8204608993CAA08F03FFA9B
:1007D00000289AD100F00EF9FFB281462021BDF821
:1007E0001C303CAA00970FA800F01AF805464846AE
:1007F00000F010F9B1E7002E87D000F003F9284689
:100800005DB0BDE8F08F00BF000084509CB20000D6
:10081000080000201CAE00000400002018AE0000FC
:100820002DE9F04796B016461D469DF87820384BC6
:10083000074653F8321003EBC2035B680191186856
:10084000DFF8DC800144302302AA01A8D8F8009028
:1008500008F05CF8002851D1DDE901431C44214631
:1008600006AB03AA01A808F079F8002846D1049A3B
:10087000072A43D12749059808F000FB00283DD1FD
:10088000079A082A3AD12449089808F0F7FAA8BB31
:10089000214602AA01A808F04DF878BBDDE901A3C2
:1008A0000AEB0302944229D1412B27D1354430234E
:1008B000294603AA02A8029608F028F8E0B9DDE963
:1008C000023213449D4217D32A4602A906A807F014
:1008D000E2FD88B92A4602A90EA807F0DCFD58B946
:1008E0009AF80030042B07D12023384606AA0AF1D3
:1008F000010100F04BFE38B1D8F8009000F082F80A
:10090000484616B0BDE8F087044BD3F80090F5E7F1
:100910001CAE000001B40000F8B300000800002085
:100920000400002070B5094B04461D680023934263
:1009300005D1074B1D6800F065F8284670BDE65CE0
:10094000C85C8642F7D10133F1E700BF0400002004
:1009500008000020094A40000B7852F820108B4212
:1009600009D0013052F82000834214BF4FF0FF300D
:100970004FF4407070474FF44070704724AE000051
:100980001FB50F4B0C4613F8300001F011FB50B9A6
:100990002068102381686A46103908F058F928B198
:1009A000206808F053F94FF0FF3006E01022684647
:1009B000044908F063FA0028F2D104B010BD00BF6A
:1009C00024AE0000B8B2000013B5044607F094FD51
:1009D0006A460146204607F09CFC30B10448452198
:1009E00008F027F9002002B010BD0098FBE700BF17
:1009F00009B40000024B1868421C1A60704700BF1F
:100A0000B8040020024A1368013B1360704700BF1E
:100A1000B8040020034B1B68834201D007F094BD4B
:100A2000704700BFB80400202DE9F04F414B8BB058
:100A3000064600200D461C68FFF7B4FD08A9C0B2A9
:100A400001F0B6FA28B1FFF7DDFF20460BB0BDE894
:100A5000F08F2946FFF7A6FD4FF02C0B09A9C0B275
:100A60000BFB056B01F0A4FA002844D02C276F4340
:100A700006EB0708D8F8104014F010044CD1FFF72B
:100A8000B9FF089B81460793FFF7B4FF4FF48072CC
:100A90000192294A21468246CDE90344079B0294EC
:100AA000009220465A46FFF78FFD04465046FFF756
:100AB000B1FFFFF7A7FF4846FFF7ACFF1F4BF25906
:100AC00008989A420CD1D8F80C20B8F808309B1836
:100AD00006D28268934203D2194B1B68A34222D0EC
:100AE0002DB38268002108F0DCF8164A452116482B
:100AF00008F09FF815E0099808F0F0F80446099806
:100B000008F0A4F80BF1FF330BF1030213F8011FF7
:100B1000A142ABD19342F9D11DB13046089907F0FB
:100B2000E9FD0A4B1C68089808F090F88BE7084A22
:100B3000DCE700BF04000020EE2500203DB8F3965E
:100B4000080000204CB4000056B400000000002053
:100B500044B400007FB50D46002104462846CDE987
:100B6000021107F086FD28B32368194EB34203D162
:100B7000204603AA07F011FDE36AB34204D1012124
:100B8000204602AA07F009FDDDE90232934288BF40
:100B90000393039BAB60039A2946204600F0DCFBDD
:100BA0000C4B1A68002A03DD57210B4808F041F866
:100BB00004B070BD01A9FFF7E3FE019805F108013B
:100BC00007F0A5FCAB680198039308F03FF8E2E753
:100BD0003DB8F3961C1900207EB400002DE9F84FB3
:100BE000884691469A460026DFF870B0194C1A4D97
:100BF0000B9B9E4201D300200FE00B9B40469F1BA6
:100C0000B7F5806F28BF4FF48067144A3B4606EB68
:100C10000A0108F01CF810B10120BDE8F88F0A990C
:100C20003B465A464846711808F026F80028F3D18A
:100C3000C4F800563E44C4F80456C4F80856C4F834
:100C40000C56C4F81056C4F81456C4F81856C4F814
:100C50001C56CDE7008001503546526EBC14002072
:100C60002DE9F0410E460021AC4B04464362AC4BEB
:100C700088B003650846FFF795FC04F1200105469E
:100C8000C0B201F095F948B100232A4645210190F0
:100C90000093A44807F0CDFF07F056FC0121002087
:100CA000FFF780FC04F14C010546C0B201F080F969
:100CB00050B101232A464521019000939948002311
:100CC00007F0B7FF07F040FC204607F0A7FC0546F9
:100CD00068B900222046114607F049FC054608B3D2
:100CE00000225721904807F0A4FF01239FE04FF412
:100CF000807257218D4807F09CFF01239D4284F8A4
:100D00005830E6D194F85830042B8DF8173000F2A3
:100D10009180012B00F2958000F0A880FF2384F8D9
:100D20005830A3E0204600F029FA0028DDD004A8BE
:100D300007F096FC0146204607F031FD18B12A461F
:100D400057217B48CFE704A807F093FC80F001010E
:100D500004AA2046C9B207F00AFC02460028BFD107
:100D600004A807F086FC054660BB204604A9FFF7EF
:100D7000F1FE9DF8173084F85830033B012B06D85C
:100D8000284600F00FF910B1FF2384F858309DF881
:100D90001730023B022B0BD8002000F0EDF838B1E1
:100DA000FF2384F858304521624807F042FFFEE7F0
:100DB00094F85830FF2BF6D00021204604AA07F003
:100DC000D6FB92E79DF81770012F1ED1104603F055
:100DD0006BFE831E022B054614D8FFF70BFE394627
:100DE00080462046FFF720FE07464046FFF712FEEA
:100DF000514B1B689F4205D0504B1D68AF4214BF3A
:100E00000525012584F858507CE7FFF7F3FD012103
:100E100007462046FFF708FE05463846FFF7FAFD6D
:100E2000454B1B689D4214BF05239DF8173084F87D
:100E3000583067E7052B7FF471AF002000F0B2F85F
:100E400011E0204604A9FFF785FE94F85830DA1E19
:100E5000012A34D8002000F0A5F800287FF45EAF06
:100E6000002000F089F800287FF458AF94F858303B
:100E7000FF2B05D145212F4807F0DBFE07F064FB6F
:100E8000002294F858302E4F012B03921AD01146AD
:100E9000204607F06CFBA8B13D68102200210DEB45
:100EA000020008F01DF8E06C07F0D0FE206A07F0A1
:100EB000CDFEFFF7A7FD284608B0BDE8F081022B64
:100EC000D4D1CDE7FFF796FD002180462046FFF7FD
:100ED000ABFD05464046FFF79DFDDFF85C80D8F886
:100EE00000309D42D8D13B689D42D5D0134B1B6842
:100EF0009D42D1D0039B01330393039B012B01D06F
:100F000007F022FB206A07F002FA3071236A5B685F
:100F10003460D8F80050B360BFE700BFBC0C0020BD
:100F2000BC040020ADB400003CB50000FAB40000E1
:100F300068B5000092B50000080000200000002005
:100F40000400002070B50B4E04466022002130469C
:100F500007F0C6FFFFF74EFD214605463046FFF776
:100F60007FFE04462846FFF755FDFFF74BFD204660
:100F700070BD00BFBC18002013B5094B01A913F8C0
:100F8000300001F015F848B9019808F01FFF044639
:100F9000019807F05BFE204602B010BD0124FAE77D
:100FA0002CAE00001FB50F4B01A913F8300000F064
:100FB000FFFFA8B9019802A903F020FD044668B913
:100FC0009DF80B30032B03D1019808F0CDFE0446A9
:100FD000019807F03BFE204604B010BD0124F7E75E
:100FE0000124F8E72CAE00002DE9F34106460C463B
:100FF00017461D460BB9002628E0184607F039FBB6
:101000000028F8D16946FFF7BBFC009838B90124E5
:10101000009807F01BFE204602B0BDE8F08101A950
:1010200007F075FA0028F2D1009807F00FFE30465D
:10103000019907F002FC736A5E686B79012B21D17C
:10104000002CD8D12B68834298BF0026214600206F
:10105000FFF7A8FA6946C0B200F0AAFF0028D6D16F
:1010600020233A463146009807F0F1FD0446002857
:10107000CDD1002DCCD03C680D4BE41A18BF4FF0F9
:10108000FF34C5E7022BB6D12B68012B05D983426B
:10109000B1D8B4FA84F46409ADE7ACD1002CD5D052
:1010A000012CA8D12C79023C18BF0124A3E700BF72
:1010B0003DB8F3962DE9F04F07460C4685B0014642
:1010C00000201646FFF746FC051E51DB3846E46D4E
:1010D00007F012FA5FFA84F94FF0000A4FF0010BA3
:1010E0004FF0FF346B1E09FB03089DB9BAF1010FE5
:1010F00003DD4521204807F09CFD631C06D0FF2C32
:101100002ADC40F2011301343460B380284605B074
:10111000BDE8F08F6B1E00934146012338460DF168
:101120000F0207F094FD031E019323DB01223846D2
:101130000DF10F0108F0B3FD019B40B15B4501D0FB
:101140000AF1010A9B46009DA8EB0908CDE7B4F11E
:10115000FF3F08BF2C46F5E70223A4F580747371A6
:10116000631004F001040133013433603471CDE7BE
:101170000725CBE70125C9E79EB5000070B5866A53
:10118000456D044607F048FBAE420AD06B1CB342E3
:1011900007D0834205D05721134807F04AFD0020AD
:1011A00070BDB6F5807F1CD957211048F5E7626AFB
:1011B000216D02EBC30201EBC30152684968914201
:1011C00002D057210A48E8E701339D42EFD1AE42F1
:1011D00005D9636A03EBC5035B689342F1D1012033
:1011E000DEE700231A46F0E7C1B50000F9B50000BC
:1011F00028B6000000B589B0032004A908F0C1FD9D
:101200009DF81020012A41D0254B2649032A08BF0A
:101210000B469DF81320492102929DF81220224886
:1012200001929DF811200092204A07F002FD09204A
:1012300006A908F0A6FD9DF81820012A28D0184B11
:101240001849032A08BF0B469DF81B20492102922A
:101250009DF81A20144801929DF819200092144A12
:1012600007F0E7FC9DF81030012B13D19DF81230E8
:10127000032B0FD19DF81830012B0BD00D484921BD
:1012800007F0D7FC022009B05DF804FB0A4BC0E769
:10129000094BD9E70948492107F0CBFC0020F2E7C8
:1012A00054B600005DB6000071B6000063B60000E1
:1012B000B2B60000C2B6000058B60000E1B60000A9
:1012C00070B54B6814461E4A03F0FF23934206464E
:1012D0000D4686B02FD10B68012B2CD1204604A9D6
:1012E00003F08CFB9DF81020012A26D0154B1649DF
:1012F000032A08BF0B469DF81320492102929DF84E
:101300001220124801929DF811200092104A07F015
:1013100090FC9DF81030032B0DD12146304607F08C
:10132000E9F9204608F020FD2046A96807F0FDF8FD
:10133000204603F043FB06B070BD064BDBE700BF61
:101340000001000454B600005DB6000071B6000054
:10135000B2B6000058B600002DE9F04F164605461B
:1013600089B00C467448492107F063FC3146284691
:1013700007F063FA6B6A824620465E6807F079F9E7
:10138000E8B1E86D07F0B3F80023AF6A013F3344DA
:10139000834201D2013FFAE7BA4510D3572167488B
:1013A00007F047FC07FB06F357210AFB0662644877
:1013B00007F03FFC0123E37109B0BDE8F08F06A9F7
:1013C000032000F0F5FD07A9092000F0F1FD2146FA
:1013D0002846079AFFF774FF6379012B4BD15746D4
:1013E000DFF860B141E02268C2F1010353449F423B
:1013F0003AD86B6A012A196853F8370003EBC70320
:1014000053F8083CA0EB0109A3EB0103049311D1AD
:10141000079B0393E368022B08D04146284607F058
:1014200069F922464146284607F09AF92846039969
:1014300007F060F932464946404607F059F9049BE7
:10144000424641462846CDE90096FFF7C7FB2146B4
:10145000284607F01BF923680133236020B1DBF82D
:1014600000300133CBF80030013FDDF81880002F49
:10147000B9D101232360022301276371BA45DDF846
:10148000189006D2484607F0E1FB079807F0DEFB0C
:1014900092E723689F424DD36A6AFB0052F83710E7
:1014A000083B04911168DDF81CB00391D1582A6DF6
:1014B000D0581368A0EB03082379012B38D1039B84
:1014C0003246C91A4846059107F012F90599434674
:1014D0004A460091284659460196FFF77FFB214670
:1014E000284607F0D3F80223237118B1154A136870
:1014F0000133136032464146584607F0F9F8DDE9FA
:10150000032349469B1A28465A46CDE90086FFF731
:1015100065FB2146284607F0B9F8236801332360AC
:101520000123237130B1074A13680133136001E0CE
:10153000022BDFD00137A1E7F8B6000021B7000089
:1015400050B700001C1900200A4619B1024B0021B7
:101550001B681847704700BF0C00002070B5094D8C
:101560002B780BB1002070BD0126074CC4F8006534
:1015700005F0A8FE18B92E70C4F80005F2E74FF088
:10158000FF30F0E7EE260020000084502DE9F04106
:10159000ACB01F4606460C461546FFF7DFFF012399
:1015A000DFF820802A46C8F80035214633460097E8
:1015B00003A809F05BFA0023C8F800352CB0BDE899
:1015C000F08100BF00008450BFF36F8F72B600231C
:1015D0004FF0FF30094A03F120010133102B42F88C
:1015E0002100F8D100234FF0FF30044A03F16001DD
:1015F0000133102B42F82100F8D1704700E100E0E0
:10160000002318460649D1F89020C2F307229342DE
:1016100000DB7047C1F89830C1F8A0000133F6E74D
:1016200000ED00E02DE9F8434FF0FF3501274FF0C2
:101630000008204BDFF884905F60C3F84853C3F87C
:10164000085303F580535F60C3F84853C3F8085349
:1016500059F8044B002644F30730C4F8085301F04E
:101660006DFD80226760C4F84C61D4F84C31C4F839
:101670001061D4F81031C4F844613146D4F84431D3
:10168000A018C4F8006507F02BFC8022314604F551
:10169000C07007F025FCB8F1000F08D0064BC3F866
:1016A00008554FF05023C3F80853BDE8F8834FF0B6
:1016B0000108CDE7004001500070015038AE000035
:1016C000014B1B68184700BF1000002007B50B46F0
:1016D000002102460091034800F006F803B05DF8CF
:1016E00004FB00BFC11600002DE9F04F82464FF009
:1016F00000098DB01D46531E01910393039B58783A
:101700005C1C252819D100204FF0FF381E464446A6
:1017100003460236029031780396392955D81F299D
:1017200014D8002900F0EF8101992520D0470199B4
:101730003078D04709F10209E0E7002800F0E381A2
:101740000199D04709F101090394D7E7A1F12002DB
:10175000192AE9D801A757F822F000BFC5170000E1
:101760002917000029170000C517000029170000DD
:10177000451800002917000029170000291700004C
:101780002917000091180000C51700002917000054
:10179000A518000051180000291700005F1800006C
:1017A0007F1800007F1800007F1800007F180000DD
:1017B0007F1800007F1800007F1800007F180000CD
:1017C0007F18000008460136A5E7582900F0EB8095
:1017D000A1F16302D7B2172FA6D8172AA4D801A760
:1017E00057F822F04D1A0000CB180000291700000E
:1017F0002917000029170000AB180000CB180000C3
:101800002917000029170000AB1800002917000055
:10181000291700002917000081190000291700006E
:1018200029170000211A000029170000CB1800001A
:10183000291700002917000081190000291700004E
:10184000AB18000025200199D04709F1010955E79F
:10185000029A4FF0000802F0FE020292B3E7002C59
:101860000DDAB8F1000F0DDA029A002A00F0438178
:101870000A2224EAE47402FB0414303CA3E7B8F122
:10188000000FF5DB0A2202FB0812A2F130089AE7EA
:10189000B8F1000F55F8042B80F22F81002A80F256
:1018A0002E815442022202928DE7682903D1682BCF
:1018B00006D1482387E76C2902D16C2B00F02181E7
:1018C000002B7FF431AF0B467DE77A2B06D17529CB
:1018D00055F8046B14D14FF0000B0CE06C2BF6D0D4
:1018E0004C2BF4D1073525F00703752903F10805C2
:1018F000D3E9006B06D120283BD1854F013C09E09C
:101900004FEAE67BBBF1000FF5DA7642814F6BEBD5
:101910004B0B013C0DF12D0305930023049330463E
:1019200059460A220023FEF70DFC059BB4463032CF
:1019300003F8012D5A460593049BBCF10A0F8B4610
:1019400072F1000203F1FF3106460491E7D2C3F1C0
:10195000010B30330DEB0306B8F1000FA6F10406BE
:101960006DDA029BD9077DD4A8EB0B03A4EB0B0423
:1019700013E02B280ABF684F684F04F1FF34C9E712
:1019800070290FD155F8042B0023FAB96FF0040326
:101990004FF0050B614F624E053C029A920770D4DE
:1019A000A04666E078216C2B03D1002355F8042B68
:1019B00008E04C2BF9D1073525F007031D465B687D
:1019C00055F8082B232825D1880621D5554F023CF0
:1019D000002601F06001A1F1390B0DF12D0E02F08E
:1019E0000F01092988BF594430310EF8011D102A12
:1019F0004FEA121141EA03714FEA131C73F100031D
:101A000006F1FF3008D2C6F1010B06F13003A1E761
:101A1000454FDCE7414FDBE706460A466346DEE713
:101A200055F8046B304607F022FAB8F1000F8346F0
:101A300002DB4045A8BFC3464FF00008374FA8EB74
:101A40000B03002B92DDA4EB0804A6E755F8043B3A
:101A50004FF0010B8DF81830304F4FF0FF33013C41
:101A600006AE9AE7A046EAE7029320200199D04704
:101A7000029BB8F10108F7D524EAE472013C9144D5
:101A8000A41AB84606E0049302920199D047029A3C
:101A9000049B9046424612F8010B0028F3D11A46E7
:101AA000013A15D5002BACBFC7EB03077F425B465D
:101AB000013B15D5BBF1000FA8BF5F4426464F443C
:101AC000013E14D5002CA8BF3F1907EB080915E605
:101AD0000493029230200199D047049B029ADFE7D9
:101AE0000293019916F8010BD047029BE0E7019998
:101AF0002020D047E4E70122D5E6904663E614466D
:101B000061E64C235FE648460DB0BDE8F08F00BFAC
:101B1000DEB70000DCB70000E0B70000EAB9000063
:101B2000E8B70000E2B70000E5B70000044608B5DA
:101B3000EFF31183202383F31288BFF36F8F02F03A
:101B400007FF204601F01AFA024806F082FF07F06C
:101B500072F9FCE7EEB700002DE9F043079D15B9D7
:101B60001560002012E00324B5FBF4F404EB4407F5
:101B7000BD4218BF0134B4F1804F09D2A400013432
:101B80008C4200D838B96FF00B001460BDE8F083C8
:101B90004FF0FF34F7E704460021DFF8B4E0B94224
:101BA00003F1030C04F104062BD3A942274623D2E8
:101BB00001F1010CAC451F7828BF002324494FEAEE
:101BC000A70E38BF5B7811F80EE0AC4584F800E052
:101BD00001EB131E2EBF3D239B0003F03C034FEA95
:101BE000071738BFCB5C07F030071EF80770A370EB
:101BF0003D2367703746E3700023381A10603B704E
:101C0000AFE71CF8034C1CF8023C4FEAA4091EF88D
:101C1000099024011CF8018C04F0300406F8049C9F
:101C20000EEB131919F804409B0006F8034C03F05F
:101C30003C030EEB9814E35C08F03F0806F8023C06
:101C40001EF80830344606F8013C03316346A6E727
:101C500097B800002DE9F04300273C463D46DDF8EB
:101C60001CE0DFF8288175451FD3E4BB0020146019
:101C7000BDE8F0830136764533D013F806C0BCF1D9
:101C8000200FF7D0AEEB0609B9F1010FA6EB050561
:101C90000DD0BCF10D0F0AD103EB060999F80190A4
:101CA000B9F10A0F6ED1751CDDE72E46E3E7BCF1F2
:101CB0000A0FF8D02DB9BCF13D0F05D10137022F25
:101CC0000DD96FF01500D3E71CF0800FF9D118F88B
:101CD0000C507F2DF5D03F2D01D8002FF1D10134CC
:101CE000E1E73546C1E74FF0060C04F00706E408CB
:101CF0000CFB06F60CFB04F40736E41B04EBD604DD
:101D000070B18C420CD80027014603263C46DFF810
:101D10007CE0DFF87C801D449D4205D10C1AA5E7CC
:101D20006FF00B001460A3E713F8019BA9F10A0CF4
:101D30005FFA8CFCBCF1160F04D848FA0CFC1CF0BE
:101D4000010FE9D01EF809C00134BCF1400F08BFF3
:101D5000013E0CF03F0C042C4CEA8717DCD17EB11D
:101D60003C0C012E0C7002D101310024D4E7022E6C
:101D70004FEA17244C7016BF8F7002310331F4E71D
:101D80003446C9E7002DA2D09BE700BF17B800007A
:101D9000F6FFBFFF2DE9F047058B04462807904664
:101DA00011D4022905F0070540F0CC80204606F04A
:101DB00067FE78B10138218B042811D8DFE800F0E4
:101DC000C2106D85950001290CBF45F0100545F046
:101DD0002005258388F31188BFF36F8FBDE8F08756
:101DE00001F0070AAA4500F0A5800027B9463E4643
:101DF000A368002B00F0BC8041F00801218388F328
:101E00001188BFF36F8FA168002900F0BA800D68B8
:101E1000002900F0B680334652462046D1F80480AF
:101E2000C047002D76D02B6829461D46F0E701F00B
:101E300007035A1F012A1BD8002221F00701062B95
:101E4000276889B2C4E9002209D13B4603E0628BCE
:101E5000013262831B68002BF9D141F00201204658
:101E6000218306F00DFE00287AD041F0200176E0B3
:101E7000042B0AD121F0070189B22046218306F004
:101E8000FFFD10B141F020012183218B01F0070AF1
:101E9000AA454FD00027B946AAE7236921F00701D8
:101EA00041F00601062DD3F8009021832DD1B9F120
:101EB000000F3FD041F00801218388F31188BFF360
:101EC0006F8F20463949C84729E021F0070123696F
:101ED00041F0040189B2042DD3F804902183E6D0A7
:101EE00000274FF0040A3E4682E721F007012369EC
:101EF00041F0050189B2052DD3F808902183D6D091
:101F000000274FF0050A3E4672E700274FF0060A09
:101F10003E466DE72B4687E7B9F1000FD1D1EFF3CD
:101F20001188202383F31288BFF36F8F238B23F054
:101F300008032383258BEA062ED525F0100323837F
:101F400005F007056669218B002EBFF670AF0023F0
:101F50002768C4E9003321F0070141F00101218322
:101F6000218B4FF0000901F0070AAA457FF440AF2A
:101F7000002F9CD041F00801218388F31188BFF322
:101F80006F8F002FC8D03D683946334652462046F1
:101F900006F0A2FD2F46F4E7AB067FF51BAF25F058
:101FA0002003238305F0070500E700BF058B000031
:101FB00070B5114B0D461C68DCB1104B196800233D
:101FC0008B4202DB6FF0010070BD224612F8106BED
:101FD000864202D014460133F2E7E06810B96FF090
:101FE0001200F1E708F0B9FB0028F8D000202C60BF
:101FF000EAE76FF00C00E7E71400002040AE0000B5
:1020000070B588B005460C46C0B269461646FFF763
:10201000CFFF00281BDB0098C8B1436822680293F9
:1020200083680195CDE903360023CDE906230593A6
:10203000C56806F00BFE6DB12846084901AA07F0F5
:10204000ADFA079808B9059B236008B070BD6FF022
:102050001500FAE76FF01200F7E700BFEB8C000005
:1020600008B5054806F0F5FC044806F0F2FCBDE8AA
:102070000840034806F0EDBCD7B8000008B90000DE
:102080003BB90000014804F093BD00BFE4AE00007E
:1020900038B5044618B90F4B0F485B68984761681C
:1020A000B1F5683F10D0B1F5680F0DD00B4DA942C6
:1020B0000AD011F46861206807D00146084808F08A
:1020C000A2FB00232360656038BD142206F008FFE0
:1020D000F9E700BF7801002069B900002C5F5CA916
:1020E000201E002008B500B34368B3F5683F0CD14B
:1020F00001220368D3E8EF1F002903D1C3E8E02FD2
:102100000028F7D10DD1002008BD094A93420AD01A
:1021100000684FF0FF324FF0FF3303F027FF002835
:10212000F1D00448F0E70448EEE76FF4E040EBE755
:102130002C5F5CA9E98FFFFFEA8FFFFF08B5B8B1FC
:102140004368B3F5683F0CD100220368D3E8EF1F62
:10215000012903D1C3E8E02F0028F7D10BD10020DB
:1021600008BD074A934208D0006803F077FFF6E7FE
:102170006FF4E040F4E70348F2E70348F0E700BFFC
:102180002C5F5CA9E98FFFFFEA8FFFFF10B50446C3
:1021900018B91D4B1D485B6898476368B3F5683FE5
:1021A0002FD0B3F5680F2CD0194A934219D1236868
:1021B00003BB4FF0FF324FF0FF332146154803F0C9
:1021C000A7FE08B923681BB90F4B13485B689847F3
:1021D00014220021206806F083FE4FF468636360D8
:1021E00008E0B3F5683F0DD83A2B03D040F6BA6249
:1021F0009342DED1206808F03EFB636843F03A0367
:10220000636010BD054AF3E77801002069B900005A
:102210002C5F5CA9201E00208FB900003A00003A14
:1022200008B5064940231422054808F0DEFABDE847
:1022300008400449044804F02DBD00BF20190020C7
:10224000201E0020ECAE000000AF0000F7B5254EC8
:1022500030688368DB6B03B1984730688368DB6A5A
:10226000002B31D1204C214D306883681B69002B35
:102270002DD001220DF107019847012827D12368AD
:1022800043B92B682BB369681A688B422A6000D166
:102290006A602360164A9DF8070011887F2904D8D8
:1022A00023684F1C0B44178018720A28DCD10020C9
:1022B00023681188186059600E494D6875B9C1E9E5
:1022C000003310802060CEE798470028CAD103B0C1
:1022D000F0BD4521084806F0ACFCF8E72B604B60E8
:1022E000EFE700BF942200203C1E00204C1E00207F
:1022F000EC250020441E0020BCB9000010B5044BA2
:10230000044618688368E1B25B689847204610BDB0
:10231000942200202DE9F041054690460846EFF34F
:102320001187202383F31288BFF36F8F1B490B683B
:102330004BB11B4C62689A4205D000221A60626859
:1023400072B9C4E90033174A136863B987F3118877
:10235000BFF36F8F18460B60C8F80030BDE8F081FE
:1023600013606360EFE756681C68B342146008BFEF
:10237000546087F31188BFF36F8F5C680B60A042D5
:10238000D8BF00F1FF3403F108012246284606F0C9
:102390009CFD0023601C2B550123DDE7401E00201F
:1023A0004C1E0020441E0020002313B51C4620496B
:1023B000204AC1E90033C2E900331F4A486814606B
:1023C00020BBC1E900220133082B02F18802F5D1BC
:1023D0001A4C1B48206008F0C0F928B320688368B5
:1023E00023B11B6C13B100221649984720688368FB
:1023F000DB6A0BB1984760B1206883681B69002BCA
:10240000FAD001220DF107019847F4E702604A6013
:10241000D9E700220C4B20681A8083681B6A03B13D
:102420009847002002B010BD4FF0FF30FAE700BF20
:102430004C1E0020441E0020541E00209422002028
:1024400070AB00004D220000EC25002041F2044357
:102450002DE9F043EFB0ADF8083040F60613002543
:10246000ADF80C30DFF82491434BD9F800101B680D
:10247000424E4D70A3EB06080B7828465A1C62F3B7
:1024800002030B7098FA98F34B808B8808225BBA92
:102490008B8006F0C8FA31464246ADF8100006F0CF
:1024A000C2FA02271FFA88F440BA04F10A035BBAA1
:1024B0000222ADF810000DF1120106A8ADF812309D
:1024C00006F003FD0822D9F800100DF11A00ADF84E
:1024D000127006F0FAFCBDF8120006AB083080B2AC
:1024E00031464246ADF81200184406F0EEFCBDF845
:1024F00012303A461C44A0B22C4606ABADF812008E
:1025000004A9184406F0E1FCBDF81230ED213B446B
:102510009BB2ADF81230009305AA06AB32A8FFF7C4
:102520001BFB059B164E174FADF81230BDF812304D
:10253000A34206DC4921144806F07BFB6FB0BDE8DE
:10254000F083336802215B68A4B903A89847BDF8FB
:10255000125033682D1B7C2DA8BF7C2532AA101980
:1025600029465B6898473368012138465B682C44EC
:102570009847DBE702A8E9E7B0220020EF26002019
:10258000FC220020E9B90000FAB90000F82200207E
:1025900038B505460A4C0A21204608F0C5F8022243
:1025A0002046084908F0B3F82946204608F08CF880
:1025B00020460A2108F0C0F8BDE83840FFF746BFC2
:1025C000B022002002BA0000F0B583680C469A429F
:1025D0000646114685B01DD294421DDC02AA05F0C4
:1025E00098FEB8B9DDE902531D446B1ECDE90030F9
:1025F000224649210B48E3172F1B06F01AFB3A46E7
:102600002146304606F04DFB024640B145210648C2
:1026100006F00FFB6FF01504204605B0F0BD2C4608
:10262000FAE700BF05BA000024BA00002DE9F04720
:102630004FF0FF34D4B00B46059406940794012163
:1026400000240246CDE90144009130A80421CDE9DF
:10265000084407F07EFD2146402220A806F040FCF9
:10266000904B03211C93052304221D938E4B06AF30
:10267000CDE91E378D4B8E4821938E4B05AE2393AB
:102680008D4B07AD26938D4BCDE92B01CDE9283538
:10269000CDE92D360AAC279109AB1CA930A82292AE
:1026A000249406F056FB48B303252A464921844862
:1026B00006F0BFFA0A21834808F036F88249022260
:1026C000804808F024F829467E4807F0FDFF4DB900
:1026D000774903227B4808F01AF87C4B794819683F
:1026E00007F0FCFF0A21774808F026F8FFF7AEFE56
:1026F000089806F0ABFA54B0BDE8F0873368D4E927
:1027000000845A1CD0D0B8F1000FCDD0704A2BB93C
:102710003968B1F1FF3F18BF0B4613600021106804
:10272000FDF740FF08A9C0B2FFF742FC0028BBD16B
:102730003368664F002B53D1089E3B603046D6F875
:10274000089005F0D9FE634A0146304605F0E1FDE8
:1027500028B14521604806F06CFA0125A5E72B68F1
:102760004B45A1D85D4A10605D4A13603A685B4DE5
:10277000224429680898013AFFF726FF00282860BC
:1027800092DB089806F0A3FAB4FBF0F303FB1040C9
:102790003A68C1B2DFF84891641A1319D9F80050A9
:1027A0001944A94238BF002049215FFA80FA4D48F8
:1027B00006F03FFA089806F08AFA012806D9089828
:1027C00006F085FA013818EA000F4BD1234642463D
:1027D0003968089806F050FA00287FF465AF2EE0BB
:1027E0003A68934201D000255FE73D4A23441268CE
:1027F0009342BBD958E7A642089888BFE6B206F0D4
:102800006DFA402201460CA806F06AFB32464146AA
:102810000CA806F05AFB3346396808980CAA06F053
:102820002BFA054600287FF440AF3B68B0443344A0
:102830003B60A41B089806F04AFAA042DBD9BAF123
:10284000000F11D13B68D9F8002053442344934230
:102850003B60C8D11F4B08981A681146FFF7B4FEB9
:10286000C50F22E74026E5E7089806F037FA082268
:1028700001460CA806F034FB524608EB04010CA8F4
:1028800006F023FB089E39683046651806F01FFAEB
:10289000294603460CAA304606F0EEF900287FF4DC
:1028A00003AFCFE7BCB60000FDA3000046BA0000AE
:1028B0004FBA000007A400004BBA000003A40000B8
:1028C00073BA0000B022002002BA0000A822002043
:1028D000AC220020A022002009B400009C2200208D
:1028E0009822002053BA0000F0B50C68164F85B04E
:1028F00002380D46C4F580610090144B381903AAC4
:102900000131FFF7A7F90446D0B92B68039A1344A5
:10291000022B2B6011D93E88023B76BAB6B29E429A
:102920000BD13246B91C06F07EF830B9022E04D91C
:102930002B689A1E2A60FC540124204605B0F0BD85
:102940004FF0FF34F9E700BF94270020972B0020B9
:10295000002307B502210093034AA423034807F08C
:10296000EDFE03B05DF804FBEF260020B02200204E
:102970002DE9F04707290446B0B071D9037813F068
:10298000050F6DD14388A1F108055BBA9BB2AB423C
:1029900066D37B4B186083885BBA8380FFF7D8FFD0
:1029A000A088012840F0D780E37943B1012B00F0E3
:1029B000CA80082030B0BDE8F047FFF7E9BD2478B1
:1029C00014F00704F5D101466E4807F0ADFE06226B
:1029D0006D496C4807F09BFE05216A4807F0A0FE90
:1029E0006A4E6B4FDFF8C08121460020D6F8009078
:1029F000FDF7D8FD08A9C0B2FFF7DAFA054620BBFB
:102A00002023014610AA089806F021F9109BBB422A
:102A100013D1FDF7EFFF4023019320AB82462946F7
:102A2000009310AA089B2846CDE903550295FDF7AF
:102A3000CBFD81465046FDF7EDFFD8F80030089DEC
:102A40004B4512D0284606F001F964B105214D48E6
:102A500007F06EFE01214B4807F06EFEFFF7F6FC13
:102A600030B0BDE8F0870124BEE700232A4600937A
:102A700010A94FF6FF730AA805F065FC002847D09F
:102A80004FF0FF35089806F0E1F814213D4807F0B3
:102A90004BFE404904223B4807F039FE21463948A5
:102AA00007F01CFE4DB904223B49364807F02FFEC3
:102AB0002022344818A907F021FE0722374931485F
:102AC00007F025FEBDF85630402101939DF85530A2
:102AD000334A009320A89DF8543000F027FC169B41
:102AE0004BB1421E3E2A06D820ADC0F140012D4A0E
:102AF000284400F01BFC20A806F0B9F920A90246E2
:102B0000204807F004FE14211E4807F015FE9CE73C
:102B10000DF11E0307AA09A90AA805F062FC002806
:102B2000AED1BDF81E30102BF2D1BDF81C30202BD9
:102B3000A6D12846099918AA06F089F8051E18BFDB
:102B400001256D429EE7294604F1080030B0BDE83A
:102B5000F047FFF76BBD00287FF42BAFE379012B23
:102B60003FF428AF052B7FF424AFFFF711FD4FF49E
:102B70000050002103F0D0FD0120FEF7D7FF00BF79
:102B8000F8220020B022002081BA000004000020BA
:102B90003DB8F39688BA00008DBA000092BA0000E2
:102BA0009ABA0000A6BA00000800002001232DE90F
:102BB000F34100240546264FDFF8A8803B70254BE3
:102BC000254E009418603B7813B902B0BDE8F0813F
:102BD000224BC4F58061C3F80086C3F80486C3F8AD
:102BE0000886C3F80C86C3F81086C3F81486C3F8A9
:102BF0001886C3F81C862B6801AA01313019984742
:102C00000028019B01DC002BDDD004442BB940F2ED
:102C100001439C42D7D10024D5E73378062B09D154
:102C20007378092B0BD1002300936946A01EFFF790
:102C30005BFE04E0042B02D17378142BF5D001283D
:102C4000E9D1009906480239FFF792FEE3E700BF99
:102C500093270020FC220020952B002000800150AB
:102C6000962700203546526E30BFFFF7FDBF00BFEC
:102C7000074A936893F90E10002907DB9269934283
:102C80001FBF044A536843F080535360704700BF2E
:102C9000DC23002000ED00E0154B9A6A12F0007F63
:102CA0009A6A14BF1E201D2012F0807F9A6A18BFF6
:102CB0001F2012F4801F9A6A18BF022012F4002FFE
:102CC0009A6A18BF212012F4802F9A6A18BF222016
:102CD00012F4003F9A6A18BF232012F4803F9A6AC8
:102CE00018BF24206FEA02426FEA12429A627047CC
:102CF00000ED00E010B5194B0246986A9C6A10F48A
:102D0000805F14BF1720162014F4006F9C6A18BF50
:102D10001820A40509D5986B986A000404D51AB147
:102D20009A6A22F400429A6219200C4B9A6A12F4B1
:102D3000806F9A6A18BF1A20D2050CD49B6A13F4CC
:102D4000005F18BF1C20054A936A43F47F439362D7
:102D500000230B7010BD1B20F5E700BF00ED00E065
:102D600010B51C4B0246986A9C6A10F0100F14BFF5
:102D70001120102014F0080F9C6A18BF1220A4071D
:102D800009D5586B986A000604D51AB19A6A22F0E0
:102D900080029A6213200F4B9A6A12F0010F9A6A0E
:102DA00018BF142012F0200F9A6A18BF1520D406FD
:102DB00058BF9B6A074B9A6A920642BF5A6A22F42E
:102DC00000525A629A6A42F0FF029A6200230B7024
:102DD00010BD00BF00ED00E070B5444B06465B68D7
:102DE00000259CB0C3F3080385F31188BFF36F8FF0
:102DF00002F07F40B0F17F4F11D102F00C000828A3
:102E00000DD010074CBF0E4601250022033B8DF864
:102E10000720032B05D8DFE803F01E5C60592E461F
:102E2000F3E700249DF807309BB96822314602A8D9
:102E300006F04BF8099B002D53D0C3F3080222B9CA
:102E40006FEA53236FEA43230993204602A905F052
:102E5000D2FF1CB070BD254BDA6A9107E1D4DA6A63
:102E6000002ADEDBDA6A5200DBD55A69B16942F426
:102E700080725A61BFF34F8FBFF36F8F5A6931F879
:102E8000021C22F480725A61BFF34F8FBFF36F8F21
:102E90004DF60272914209D09A6AD2B242B1012033
:102EA0000DF10701FFF75CFF0446BBE73468B9E7A3
:102EB0009A6A12F47F4F05D001200DF10701FFF748
:102EC00019FFF1E79B6AB3F5803FAAD3FFF7E4FE51
:102ED000EAE700200DF10701E4E700200DF107010A
:102EE000EDE723F4FF7323F00103ADE700ED00E00D
:102EF000044B5A6942F010025A615A6942F48062E6
:102F00005A61704700ED00E0EFF30880EFF30981AC
:102F100001B57246FFF760FF01BD00BF002080F3DE
:102F20001488BFF36F8F002080F30A8880F30B882A
:102F300001F078FE00200E490860BFF34F8F0D4866
:102F400080F3088800F02CF8202080F311880A48CC
:102F50004FF40061401880F30988EFF314800221D8
:102F6000084380F31488BFF36F8F00F01FF900004F
:102F700094ED00E030610020F02F0020BFF34F8F70
:102F80000549064BCA6802F4E0621343CB60BFF305
:102F90004F8F00BFFDE700BF00ED00E00400FA0521
:102FA00072B6002383F313884FF0FF300C4A03F10D
:102FB00020010133102B42F82100F8D100234FF0FB
:102FC000FF30074A03F160010133102B42F8210062
:102FD000F8D162B6BFF34F8FBFF36F8F704700BF5A
:102FE00000E100E0084B9B6883420BD1EFF30583BF
:102FF00043B1064B5A6842F080525A605A6A22F432
:1030000000425A6207F0F5BCDC23002000ED00E02E
:103010006FF00A01084A93689967084958674B6836
:1030200043F080534B60002383F31188BFF36F8F0D
:103030009368986F704700BFDC23002000ED00E02C
:103040000E4A936883F8BD00EFF31183202383F3C6
:103050001288BFF36F8F4FF00061936920F0FF007B
:103060009360074A5160002193F8BD2010435A6FC6
:10307000596782F31188BFF36F8F7047DC230020FC
:1030800000ED00E01D498A6882F8BDE04FF0300095
:103090001044EFF3098C80E8F01F1EF0100F03D1ED
:1030A00002F17C0080EC108A74467046FFF7C8FF7E
:1030B000A64612498A6886461EF0100F03D00023E8
:1030C000E1EE103A03E002F17C0090EC108AEFF39D
:1030D000148323F0040383F31488BFF36F8F02F18A
:1030E000300090E8F01F8CF3098802F1000004B56D
:1030F00005F096FEBDE8044070470000DC23002088
:103100001EF0040F0CBFEFF30880EFF30980816914
:1031100011F8021C0229FFD001B505F072FE01BDB5
:1031200040B2002807DB01234109034A00F01F00D9
:10313000834042F82130704700E100E040B20028AF
:103140000CDB01220649430900F01F0082402033B6
:1031500041F82320BFF34F8FBFF36F8F704700BF3D
:1031600000E100E0054B420953F82220012300F062
:103170001F0003FA00F01040704700BF00E100E0BC
:1031800040B2002801F10101ACBF00F16040064BE4
:103190004FEA4111C9B2ABBF00F5614000F00F002A
:1031A00080F800131954704714ED00E0144A08B574
:1031B000144B22F07F029A60BFF34F8FBFF36F8FE3
:1031C000D3F8882022F47002C3F88820D3F888202E
:1031D00042F4A002C3F888204FF04042C3F83422E2
:1031E000BFF34F8FBFF36F8F0023E1EE103A02F071
:1031F000D3FD03F03BFB00F07BF802F00DFE00BFB7
:103200000000000000ED00E042F8203C009B0D496A
:1032100042F81C3C019B21F0010142F8183C029B42
:1032200042F8081C42F8143C4FF0807342F8043C0A
:10323000002343674FF47D43203A0265C0F8BC3059
:10324000704700BF6D8A0000104B9B6883421AD103
:10325000EFF30580B8B9EFF31181202282F31288D1
:10326000BFF36F8F1A7B22F002021A73EFF31483FD
:1032700023F0040383F31488BFF36F8F81F3118865
:10328000BFF36F8F70476FF015007047DC2300208D
:103290000E4615460023E1EE103AEFF3148323F0B7
:1032A000040383F31488BFF36F8FBFF36F8F0A4B50
:1032B0009860436E83F30B882C4686F309884FF0A1
:1032C0000000064B984720464FF000014FF00002E7
:1032D0004FF00003024C2047DC230020298E000021
:1032E0006D8A00001022014B1A61704700ED00E06A
:1032F000002320210348C2180133412B82F8001318
:10330000F9D1704700E100E008B5EFF30583064A04
:10331000103B02EBC30152F8330049688847BDE80F
:103320000840FFF7A5BC00BFC0AB00000CB410B54F
:1033300086B009B90DF10B000024CDE9040109ABF9
:10334000089A009404A905480393FEF7CDF9049B5D
:103350001C7006B0BDE8104002B07047F38E00004C
:103360000122024B0020C3F8402570470090035013
:1033700020B1034B800143F001031847704700BFA1
:1033800000AE000013B56C46104B93E8030084E8D0
:1033900003000F4807F0E1F920B14FF42021204647
:1033A00005F0B4FD0B4B93E8030084E803000848E4
:1033B00007F0D3F938B120464FF4C02105F0A6FD3F
:1033C000002002B010BD6FF01200FAE7E0AD00007F
:1033D00048AB0000E8AD0000084B70B5C31A0D46BD
:1033E00007499B10044659434022064805F0ACFDAE
:1033F0002B4601462046BDE87040184714230020A4
:10340000B76DDBB634AB0000402373B50B4C0093B3
:10341000041B0B460D460A49A41061430646094A9F
:10342000094805F0BCFD011E05DA30462B4602B006
:10343000BDE87040184702B070BD00BF14230020E3
:10344000B76DDBB60790000034AB000010B5EFF3AA
:103450001184202383F31288BFF36F8F074A136808
:1034600023F00201DB07116002D4012006F03AFDCF
:1034700084F31188BFF36F8F10BD00BF6423002059
:1034800070B50022012104460520FFF779FE0F48A0
:1034900001F0CAFC0E4B984215D101F0D5FC26690B
:1034A0000C49304605F03CFB00280BDB0125356458
:1034B0002469084904F11C0005F032FB002801DBF7
:1034C0000020E56470BD6FF00400FBE7D535000017
:1034D0000000AD0B10AF00001FB500220123CDE9A5
:1034E00002236B46084ACDF800D0CDF804D005F091
:1034F00083FD002805DB4FF480420023684602F07C
:103500000DFE05B05DF804FB279000000C22104B67
:10351000014602FB0033002030B4D3E90E52986319
:10352000EFF31180202484F31288BFF36F8F1C6C9B
:1035300004F0C00444F002041C6480F31188BFF35B
:103540006F8F1DB12B4630BC0248184730BC704706
:103550001423002034AB000010B4EFF311822023B9
:1035600083F31288BFF36F8F1848016841F002049B
:103570000460C80708D482F31188BFF36F8F01205D
:103580005DF8044B01F074BC4FF05021D1F80C04ED
:10359000D1F80C14C907EED5EFF3118083F312882C
:1035A000BFF36F8F0A490B6C03F0C00343F00203B3
:1035B0000B6480F31188BFF36F8F82F31188BFF320
:1035C0006F8F00205DF8044BFFF7A0BF642300203D
:1035D0001423002010B1012804D07047034B1B6C4A
:1035E0005B0701D1FFF792BF704700BF1423002093
:1035F0002DE9F041012207463649D1E8EF3FC1E805
:10360000E02F0028F9D133B9334934484B60CB60FF
:103610008A6005F098FA7B1E012B2BD8012F07D169
:103620004FF05023D3F81C3403F00303022B21D0B6
:1036300007F034F90546F8B9294B1B78E3B14FF090
:10364000502302220646C3F808234FF05024DFF827
:103650009480D4F81824D4F81834D20315D503F084
:103660000303022B01D0012F0FD16DB386F3118814
:10367000BFF36F8FBDE8F081EFF31186202383F352
:103680001288BFF36F8F0125DFE7C5B1304605F023
:10369000DFFBD4F81835DBB2012BDAD1D4F80421E2
:1036A000002AD6D00022C4F80421D4F80421022232
:1036B000C4F818252022C8F88021A360C9E700219A
:1036C000212003F029F8E4E74FF050230222C3F849
:1036D0000423CFE710230020002300203023002004
:1036E000EA2F002000E100E00048704798AF00009A
:1036F0002DE9F74F43680F1E05461646D3F818A06C
:1037000077DBBB18534574D847EA0209C9F30B09A4
:10371000B9F1000F6DD1006905F090FC49462846CB
:1037200005F0D9FC4FF0FF3B0446002E5AD1012191
:10373000284605F0D0FC002C08BF0446286905F097
:103740007BFC204603B0BDE8F08F23468022062193
:103750002846CDE9004405F077FCB2450FD1234659
:103760008022C7212846CDE9004405F06DFC26469D
:1037700040F267620023284605F04AFDD5E721465E
:10378000A0461D4B5A7882B10BFA02F037EA0000CE
:103790000BD101209040B04207D8B8F1000F1CD0E7
:1037A00098F80100904238BF98460131042903F18E
:1037B0000203E7D1B8F1000F11D03B46812298F8FF
:1037C00000102846CDE9009905F03EFC012398F849
:1037D000012093401F44F61ACAE79846E5E76FF0C8
:1037E0001504C5E7002CB0D00121284605F073FC74
:1037F000A4E76FF01504A4E7CCBA0000024B0B60FD
:1038000001231360704700BF8023002000487047E9
:10381000B4AF000010B501220648114607F032F897
:1038200006F0C7FB044C206006F0C0FB606000207F
:1038300010BD00BF882300208023002070B50C46F7
:10384000154606F0B3FB29460646204605F04AFE1B
:1038500008B3B4FBF6F306FB1343E3B9B5FBF6F389
:1038600006FB1353BBB9AE4201D9002070BD4FF027
:10387000FF324FF0FF33094802F050FC06F096FB90
:103880000646204601F016FFAD1B3444F9D103482B
:1038900002F020FCE9E76FF01500E7E7882300203D
:1038A000F8B50E461946304617461C4605F01AFE76
:1038B00008B344EA060515F003051CD1A4B14FF086
:1038C000FF324FF0FF330D4802F028FC24F00304D0
:1038D000A54206EB050009D1094AD2F80034DB07FE
:1038E000FBD5064802F0F6FB0020F8BD795901F03F
:1038F000FFFE0435ECE76FF01500F6E788230020A3
:103900000090035038B545682B69B3B1103528468F
:1039100001F0ACFD044680B90146284601F074FD73
:10392000084B98420BD122462846074901F054FD26
:10393000224605210D20FFF723FC002038BD6FF043
:103940000400FBE70000AD0B4D390000430970B5E2
:1039500007D10B4B596821B101250C68094E8540F0
:1039600001B970BD8A682A4002D030464B6898473A
:103970001CB1236821461C46F2E72346FAE700BF44
:103980009823002048AB00002DE9F04340F20635B3
:103990004668D00648BF0320337B02EA050558BFBE
:1039A000C2F3401087B001F01F07B5F5837F1446BE
:1039B00047EA43178DF8030041D00FD8062D18D0E1
:1039C00007D8B5B1022D3CD06FF0150007B0BDE8A7
:1039D000F083B5F5807FF7D101250AE040F202229D
:1039E000954230D0B5F5407F2FD0B5F5007FEBD1B3
:1039F000022522032BD5012372688B409360326924
:103A000062BB07F01F037F0975D13D4A84F4803102
:103A100002EB8302D2F80032C1F30041C4F3404408
:103A200023F4E16344EA410423F007031C4344EA1E
:103A3000800444EA0524C2F800420020C6E70725B6
:103A4000D7E70425D5E70525D3E70325D1E76303A9
:103A500041BF012372688B40D360D0E710363946EE
:103A600030460DF1020201F0BDFC14F4403F8046E7
:103A70000CD13946304606F08FFA224B9845DCD1FE
:103A800030469DF8021001F0FBFCD6E74FF000092C
:103A900001AB3946304603AACDE90439CDE9019995
:103AA000CDF80C9001F072FB164B98428CD114F4B7
:103AB000003315D09DF8033084F48034C4F30044FF
:103AC0008DF80E3039464B46304603AA8DF80C501F
:103AD0008DF80D4001F008FC0A4B9842CDD073E7F9
:103AE000CDE9043339460DF10303304603AA0393AD
:103AF00001F04CFBF0E7803352F82330FFDE00BFCB
:103B0000002584500000AD0BF0B5406801F01F04A3
:103B1000057B87B044EA45140569002D5FD0B2F5F6
:103B2000001F00F1100506D12146284606F036FA9E
:103B3000002007B0F0BD0027B2F5800F01AE01975D
:103B4000776037D1B3F1007F14BF052304238DF8CC
:103B500004300023CDE904630393836823FA01F161
:103B600011F0010118D1B2F1A07F15D104F01F03AB
:103B7000620903F1800338D11D4A52F82330DB0774
:103B80000AD40DF1030632462146284601F02AFCEC
:103B9000184B984219D002962146284603AA01F0F4
:103BA000F5FA154B98421DD101222146284601F015
:103BB00073FCBDE7B3F1C06F05D0B3F1007F14BF54
:103BC00001230223C3E70323C1E73146284601F05E
:103BD0005DFC094B9842DED06FF00B00A9E76FF057
:103BE0008500A6E76FF01500A3E751F82330FFDE4C
:103BF000002584500400AD0B0000AD0B2DE9F0470B
:103C000040F2FF16594FDFF868C1DFF868E100EBBA
:103C10008101814202D10020BDE8F087046814F4DC
:103C2000804FC4F3C325C4F3080340F08C80640CB8
:103C3000B34208BF4FF0FF337D5D192C00F2868040
:103C4000DFE804F00D13191C1F251C8484848436BE
:103C50006084848484848484848463787B7EC2F8D2
:103C60000C355C1C5BD10430D3E7C2F814355C1C06
:103C7000F9D000245CE0C2F80835F2E7C2F810354C
:103C8000F5E75C1CC2F80835EDD0002404E05C1CAC
:103C9000C2F80C35E7D001245FEA531859D14FF030
:103CA0000109DFF8CC8009FA03FAC8F80CA008E093
:103CB000C2F80835002DDAD15C1CD4D000240625CA
:103CC000A146D0F800A00AF40048B8F1000F1CBFCC
:103CD0004FF00009012403F01F085B093FD10CEBF2
:103CE0008808D8F80032CAF3412A03EA0E0343EAEF
:103CF0008A0343EA052343EA090343EA4403C8F875
:103D00000032B0E7C2F80C35D4E7C2F86035B3F141
:103D1000FF3F0468A7D0C4F30044002CBBD05C096B
:103D20001AD10124DFF8488004FA03F9C8F8089092
:103D3000A146C6E7C2F86435E9E7C2F86835E6E7A8
:103D4000C2F86C35E3E76FF0150065E76FF08500AA
:103D500062E70023DB60FFDE00239B60FBE70023BC
:103D600008F1800853F82830F5E700BFF7BA0000E3
:103D700000258450F0F8FCFF2DE9F7434FF00008D0
:103D8000476805693C680646C4F800852860D7F88E
:103D90000C904146484601AA05F079FC00283CDB1E
:103DA000019BD9F8002019791868FFF727FF002830
:103DB00033DB6B7A3169012B03D0032B2BD14FF00E
:103DC0001008AB7A032B26D195F80BC0BCF1000F7D
:103DD00002D0BCF1010F1ED12A7A12B1022A1AD1E7
:103DE0000E226B687068B3F5164F006800F0B28061
:103DF00034D8B3F5165F00F0B0801AD8B3F5966FDB
:103E000000F0AD800CD8B3F5967F00F0AB80B3F531
:103E1000167F00F0AA806FF0850003B0BDE8F08344
:103E2000B3F5166F00F0A480B3F5965FF3D15C4B49
:103E300043E0B3F5E14F00F09E8008D8B3F5615F31
:103E400000F09B80B3F5964FE5D1564B35E047F631
:103E5000122E7345DFD14FF400032EE0B3F5613F1E
:103E600000F08D8015D8B3F5963F00F08B800AD80E
:103E70004DF6C02E734500F08780B3F5614FCAD16F
:103E80004FF46B0319E0B3F5E13FC4D14FF0EB738E
:103E900013E0B3F5612F7AD009D8DFF820E173453C
:103EA00078D0B3F5E12FB6D14FF0E86305E0DFF845
:103EB00010E17345AFD14FF08053C0F824357368DB
:103EC00048EA0C081B6842EA0802C3F86C250B1D7F
:103ED000D5E9010183E803007B68990712D505F154
:103EE0001C0001F04FF8304B984256D1287F04F166
:103EF0000C0204F5907105F095FF01202B7F98408E
:103F000000F08CFF0823C4F800353B7A53B9C4F89D
:103F10001031D4F81031AB69C4F834350123C4F83A
:103F2000383523607B6800209A075CBF4FF48073AC
:103F3000C4F804337B68DB0644BF4FF48003C4F845
:103F400004336B69C4F844350123C4F84805A36001
:103F5000E36062E74FF41D03AFE7144BADE74FF4A6
:103F60009E23AAE74FF4A033A7E74FF41C33A4E73E
:103F70004FF41D23A1E70E4B9FE70E4B9DE74FF03B
:103F80006C739AE70C4B98E74FF4650395E74FF095
:103F9000706392E74FF080638FE76FF004003CE7B7
:103FA00000B0130000A04E000000AD0B0050270031
:103FB00000C0750000F03A0000903A0190D0030074
:103FC00040420F002DE9F04104460D46076906F016
:103FD00065FC4FF02008B0B91F4B1B789BB16426DD
:103FE000606805F02DFCF0B9012005F019FF013ED5
:103FF000F6D10021212002F08FFBF0E781F3118838
:10400000BFF36F8FF5E7EFF311810E4688F3128847
:10401000BFF36F8F606805F013FC80B981F31188DE
:10402000BFF36F8FEFE7EFF311810E4688F312882D
:10403000BFF36F8F606805F003FC0028DED07B695A
:1040400001221D702046796905F03BFB86F311883B
:10405000BFF36F8FBDE8F081EA2F00202DE9FF410B
:1040600005690646D0F80480A86C2B6D002835D170
:10407000002B53D0B8F830406A6C9C4228BF1C46D5
:10408000EF6CEB6C53B1296D41B107F06041B1F1B8
:10409000005F03D0082C28BF08246F6E00926A6C62
:1040A000AC651AB1AA6C002A18BF2246CDE90127D7
:1040B0001BB12B6D002B18BF2346002269464046DA
:1040C000039301F0CDFC184B984229D06FF0040106
:1040D000304604B0BDE8F04105F048BD696CEF6CB6
:1040E0000A46B8F83040ABB1834228BF03469C4231
:1040F00028BF1C460029C4D001F06043B3F1005F23
:10410000BFD0082C28BF0824286E224604F0DDFE0C
:104110002A6EB6E7844228BF0446EBE71946D7E784
:1041200004B0BDE8F08100BF0000AD0B2DE9F04FF9
:10413000984643688DB001938B880F4699040546D5
:104140009146046900F10E814FF0FF324FF0FF33CA
:1041500004F1100001F0E2FF6760D5F804B0D5F873
:1041600010A0DBF8083003939AF85D301BB1DAF841
:1041700000309F427AD0B7F804E01EF4006F40F0A0
:104180001E811EF0090F40F01781CEF34513082B56
:1041900040F012813B680293029AA04B9A4240F28F
:1041A0000B8104AE0BF10C0CBCE80F000FC69CE8B1
:1041B0000F0086E80F00DDE902329A4228BF1A4656
:1041C000974B9A4215D2974B9A4200F2D480964B65
:1041D0009A4200F2D280954B9A4200F2D080944BE2
:1041E0009A4200F2CE809348934B9449824288BF12
:1041F0000B461EF0020F09930EF0040300F0C3807B
:10420000002B14BF032302238DF82830CEF30013B4
:104210008DF82930DBF800301EF0020FD3F80825A6
:1042200087484FF00103CEF340014FEA521640F0A9
:10423000AE80002E40F0ED809340C3609AF85D3070
:104240002BB1584601F0D0FB00238AF85D302B4695
:1042500058467C4A04A901F093FB7B4B984240F0FE
:104260009B800123CAF800708AF85D30012384F82E
:104270005C30019B996B4A1C03D003F13C0000F0B9
:104280001DF9B9F1000F40F09D80C4F8349000236F
:10429000A36304F1480204F1380104F1340005F08D
:1042A00099FB6064B8F1000F40F09580C4F83C8041
:1042B0000023236404F1500204F1400104F13C00A6
:1042C00005F088FB002601213246E0642663204683
:1042D00005F0A7FB2846FFF7C1FE32463346A06B28
:1042E000834240F0818000231946266CB14240F0A1
:1042F0008280934238BF134627464FF4FA524FF05C
:10430000000802FB03F657F8203B4FF4004C1B68F3
:104310004146B6FBF3F640F2E730C8364FF47A7206
:104320000023E6FB0C01FBF70DFF02460B46384667
:1043300001F0F4FE024618B9266B16F1740F61D134
:104340000198C4F8588001F04FFB6FF073012846C4
:1043500084F85D8005F00AFC384601F005FF6FF037
:1043600073061BE0A369002B7FF4EEAE63689F42E7
:104370007FF4EAAEF1E6354B3BE7354B39E7354B99
:1043800037E7354B35E7003B18BF01233CE7002EEC
:1043900041D19340836051E76FF0040623689B8806
:1043A00013F4005304D1636004F1100001F092FE95
:1043B00030460DB0BDE8F08F6FF01506EEE76FF0F8
:1043C0008506EBE7D9F800306363002B3FF45FAF5D
:1043D000D9F804305CE7D8F80030E363002B3FF4F1
:1043E00067AFD8F8043064E7616B01EBC30149683B
:1043F00001330A4474E7E06B00EBC100406801310F
:10440000034473E7002EC9D00146286905F009FB73
:10441000C4E7C960FFDE00239B60FBE747E80100BB
:1044200000127A00FF083D007F841E003F420F000B
:104430001FA107008FD0030048E8010090D00300BF
:10444000002584508F9B00000000AD0B00093D004B
:1044500080841E0040420F0020A107000123F0B518
:1044600087B08DF80230022300248DF804306B44AD
:1044700003930F4601AB0DF103010493054602912E
:10448000059401F003F80C4B064698420FD13946CB
:10449000284603AA00F07AFEB0420BD028469DF8C9
:1044A000031000F0EDFF6FF0040007B0F0BD6FF0F7
:1044B0001200FAE72046F8E70000AD0B2DE9F041C5
:1044C0000D46064605F06CFD00220746294630469B
:1044D00000F0E2FF6B0905F01F0429D1174B03EB35
:1044E0008404D4F80022164B134043F00C03C4F8A4
:1044F000003205F0B1FB80463368DB597BB1002701
:104500003046294605F04AFDD4F800220C4B3846C7
:10451000134043F00403C4F80032BDE8F08105F015
:104520009BFBA0EB08000628E6D96FF07307E7E7CE
:104530000023803453F82430FFDE00BF0025845070
:10454000F0F8FCFF0123834070B5DC430B4AD2E84E
:10455000EF1F01EA0405C2E8E65F002EF7D14FF431
:10456000803282400648C0F80823BFF35F8FBFF354
:104570006F8F0B4214BF0120002070BDA8230020C4
:104580000050015070B40E4922F07F46D1E900344A
:10459000D01AC31844F10004C1E90034A6F5001391
:1045A000B3F5400F09D2074B1B681A0A1B069C196A
:1045B000054B42F10005C3E9004570BC02F030BA7A
:1045C00048020020AC23002050020020D9B1012372
:1045D0000D4A8340D2E8EFCF4CEA030CC2E8E1CFAA
:1045E0000029F7D14FF48033084A8340C2F80433DE
:1045F000074BD3E8AF3FC340DB0742BF4FF4001285
:10460000044BC3F800217047A8230020005001503C
:10461000A423002000E100E00D4B1868010A000609
:10462000BFF35F8F0B4BD3F80435181841F100012D
:10463000B3F5801F0AD2084BD3E90023904271EBF7
:10464000030303D210F1807041F10001704700BFF5
:10465000AC23002000500150500200202DE9F04F03
:1046600085B016461F4604469DF840A0FFF76AFF36
:104670000190FFF7D1FFB04271EB070352D23B4BE1
:10468000301A67EB0101984271F100014DD2384BAD
:1046900003EB0413D3E902239F4208BF964258D08C
:1046A0004FF48038334908FA04F8204626F07F4B4F
:1046B000C1F8488305F0C4FA4FF00309584604F1E5
:1046C0005005AD00ADB205F1502504F5A87305F510
:1046D00080350293029A20F07F4341F82230C1F8DE
:1046E0004483D1F80435244AC01A033820F07F40AF
:1046F00090422ED9286868B1D1F80435A3EB0B009D
:1047000020F07F40B0F5000F039322D9204605F03A
:1047100097FA039BBAF1000F07D109EB030009F1E7
:104720000109D7E7BAF1000F09D06FF0150520464F
:104730000199FFF74BFF284605B0BDE8F08F012334
:104740000E4AA340D2E8EF0F1843C2E8E10F002958
:10475000F8D107490E982301C8500F9B01EB0412B2
:104760000025C2E902675360E1E700BF0100800055
:104770003802002000500150FDFF7F00A4230020DC
:104780007FB500254FF0FF304FF0FF31194C1A4B29
:104790000226C4F80833C4F84833184BC4F8085547
:1047A000C3E902014FF480334FF40012C4F804331C
:1047B000134B0121C4F804631520C3F880212A4655
:1047C000FEF7DEFC1520FEF7ABFC01230D4AA360CB
:1047D000236013600C4B0D4A009328460023CDE95B
:1047E0000155FFF73BFF3046FEF702FF284604B0B5
:1047F00070BD00BF0050015003000F0038020020C0
:1048000000E100E0A823002085450000FFFF7F00B5
:104810002DE9F7432E4BD3F8042390070BD5D3F89B
:10482000042142B10022C3F804212A4AD3F80431FA
:10483000136801331360264AD2F80433D90326D50E
:10484000254BD3E8EF1F21F00100C3E8E40F002C53
:10485000F7D1CB0702D4D2F84031C3B100251C4CAC
:10486000C4F84051D4F84031FFF7D6FEEFF311827F
:10487000202383F31288BFF36F8F184BD3E90267AD
:10488000B042B94106D282F31188BFF36F8F03B0F3
:10489000BDE8F0834FF0FF38D3E900104FF0FF3947
:1048A0001D60C3E902894FF48033C4F84833C4F86B
:1048B0004051D4F8403182F31188BFF36F8F002943
:1048C000E5D0009032463B4628468847DFE700BFE8
:1048D00000500150AC230020A42300203802002007
:1048E00030B5431C124C85B005D08442A8BF0446A5
:1048F000012CB8BF0124FFF78FFE0E4B0C4DD3E9FE
:104900000013401AB0F5000F0FD22218AA4228BF98
:104910002A46002052180849CDE90100009143F1D0
:104920000003FFF79BFE05B030BD2A46F1E700BF4C
:10493000FFFF7F00480200208545000008B5FFF713
:104940006BFE024B1B68C01A08BD00BF4802002066
:10495000012310B5074C15206360FEF7EFFB4FF401
:104960000012054BC4F80833C4F84833034BC3F8AE
:10497000802110BD0050015003000F0000E100E055
:1049800040EA0103C3F30E0330B58BB940F21515AD
:10499000094CC90BC0F3C730994201D1002030BD8A
:1049A000C218D2B202F5C07244F822500133F3E7C4
:1049B0006FF01500F3E700BF0030005030B581689C
:1049C00085B0103921F00704054604F087F910225C
:1049D0000146684604F084FA10226846064904F04D
:1049E00074FA10236A462146284604F045F9003837
:1049F00018BF012005B030BDB8B2000030B50D467B
:104A0000816887B0102302AA1039044604F01FF908
:104A1000002802DA012007B030BD1022204602A98A
:104A200005F03DF900283AD110221E4902A804F0F1
:104A300025FA00280CBF012302232B70204605F025
:104A40001AF9012301460DF10702204604F0FFF890
:104A50000028DFDB9DF80730204603F00F021B091A
:104A60006A702B7101220DF1070105F018F910B9D8
:104A70006B78042B03D901236B7000232B71A26880
:104A80002046183A22F00702083AA91C05F01AF944
:104A90000028BFD12046E91C05F06DF9BBE70323D0
:104AA000CBE700BFB8B20000F0B5354F85B0460087
:104AB0000546694657F8260005F063F9044610B12B
:104AC000FF2005B0F0BD013657F8260002A905F019
:104AD00058F9012837D12A4649212A4804F0A9F873
:104AE000294B8DF80C40029300229DF800609DF840
:104AF0000870264C3146207805F0C3F850B339468B
:104B0000607805F0BEF828B3A378042B03D09DF895
:104B1000031099421ED1E378042B03D09DF80B10AB
:104B2000994217D12379042B10D16279022A1DD121
:104B3000174B18482A46492104F07BF86079831EF8
:104B4000022BBED9BCE70028CED0B9E79DF80210F1
:104B50009942EAD00132032A04F10604CAD10E4870
:104B60002A46492104F065F80120AAE7032A05D066
:104B70000A4B0B49042A08BF0B46DAE7094BD8E772
:104B800008B100003FBB000003010303D4BB0000D9
:104B900021BB00008ABB0000AEBB000026BB0000AA
:104BA00038BB00001CBB000008B5EFF31083012BDD
:104BB0000C4A07D1126ABFF34F8F511C4A424A4137
:104BC000104608BD05F00AF900B172B6126ABFF3CB
:104BD0004F8F531C5A425A4105F000F90028EFD07C
:104BE00062B6EDE70080FF0008B5EFF31083012BFC
:104BF0000B4A06D1D269BFF34F8F02F00102104673
:104C000008BD05F0EBF800B172B6D269BFF34F8F63
:104C100002F0010205F0E2F80028F0D062B6EEE7FB
:104C20000080FF0010B505F0D9F830B14FF05023E7
:104C30000022C3F81421C3F8182105F0DEF828B1CA
:104C40000122524BC3F8382AC3F878254FF47F026B
:104C5000D2F83031D2F83421BFF34F8FC3F30B03B6
:104C6000092B05D1012A1EBF0122484BC3F8782524
:104C700005F0C3F818B10E22454BC3F8E42E05F039
:104C8000ADF830B10022414BC3F80C270122C3F824
:104C900010270022D30003F57F03D3F80013BFF3DE
:104CA0004F8F013108D0D3F800130132D3F8043309
:104CB000B2F5807F0B60EDD1EFF31084FFF794FF26
:104CC00000284DD0BFF34F8F324BD3F80024012A78
:104CD000FBD1C3F80425D3F80024012AFBD1012C11
:104CE00003D005F07BF800B172B6FFF77DFF58B135
:104CF000294AD36923F00103D361BFF34F8F254ABB
:104D0000D2F80034012BFBD1FFF74EFF68B1224AE5
:104D1000136A23F0FF0343F020031362BFF34F8FA6
:104D20001C4AD2F80034012BFBD1012C03D005F032
:104D300055F800B162B60022164BC3F80425D3F82B
:104D40000024012AFBD1BFF34F8F1449144BCA68CA
:104D500002F4E0621343CB60BFF34F8F00BFFDE767
:104D6000FFF722FF0028ADD10C4BD3F88C2042F482
:104D70004062C3F88C20D3F8882042F47002C3F854
:104D80008820BFF34F8FBFF36F8F10BD00400050DE
:104D900000A00350009003500080FF0000ED00E0F1
:104DA0000400FA0530B50468ACB1B4FA84F301220A
:104DB000C3F11F03DBB29A4024EA0202D0E8EF5F9E
:104DC000A54204D1C0E8EC2FBCF1000FF6D1EAD126
:104DD00002480B7030BD0248FCE700BF0000AD0B7D
:104DE0000200AD0B10B50368CB40DB0710D40123E4
:104DF0008B40026843EA0201D0E8EF4F944204D1AD
:104E0000C0E8EC1FBCF1000FF6D1F2D1014810BD93
:104E10000148FCE70000AD0B0400AD0B014BC3F8EB
:104E20000405704700700150044B1A7922B9012221
:104E300018601A710248704702487047B02300207A
:104E40000000AD0B0C00AD0B08B5084B1B6833B16F
:104E50000520FEF787F910B90520FEF761F94FF03C
:104E600050230122C3F8182508BD00BFB02300203D
:104E700010B510B1012847D010BD4FF05023D3F822
:104E80001814D3F81824C90322D502F00303022B07
:104E900005D0012B02D0002004F0CBFF01234FF0FE
:104EA00050220220C2F8183508224FF482730021E4
:104EB00003F1502319601C68012402F15022146090
:104EC000164A126822B34FF05023C3F80403D3E705
:104ED000D3F81424D207E1D5D3F81C2402F003023E
:104EE000013A012AD7D80D4A12681AB10222C3F832
:104EF0000423C1E7D3F80421002AFBD00022C3F821
:104F00000421D3F80431B7E700224FF48073CEE7D1
:104F10001A68002AFCD019601B68ADE7B023002096
:104F20004FF0502310B5D3F8002152B10020C3F840
:104F30000001D3F800210122C3F80823104B1B689D
:104F400098474FF05023D3F8042182B10022C3F8D0
:104F50000421D3F80421D3F81824D3F8182402210B
:104F600002F00302012A03D1C3F818159A6010BD9C
:104F7000C3F80813024B0120BDE810401B68184716
:104F8000B023002001460148FFF70CBF08010020B4
:104F9000036803F01F025B090260024818BF00208B
:104FA000704700BF0025845070B50D4C00F1080318
:104FB00034F813300546DA050E4607D5C3F343230C
:104FC00004EBC302526854F833309847A3682BB1FE
:104FD00031462846E268BDE87040184770BD00BF02
:104FE0000C010020024611F0010004D003490B6AB5
:104FF00013600B6203B90020704700BF0025845086
:1050000010B4134AC0B2083032F81030D9051CD59C
:10501000C3F3432123F4F85322F81030002002F1A7
:105020000E0434F8023F13F4807F03D0C3F343230C
:1050300099420AD001302028F3D1002342F83130C0
:1050400004485DF8044BFFF7CDBE5DF8044B704794
:105050000C01002064010020F0B505460020012667
:10506000044607468C420BD1114BD3F87C2132B158
:105070000022C3F87C21D3F87C3140F00040F0BD21
:10508000E3B29B0003F580729B0806FA03F31D420E
:105090000BD002F1A04202F55042D2F800C0BCF1A0
:1050A000000F02D01760126818430134DAE700BF1E
:1050B00000D00050064BC0B2083033F81000830611
:1050C00043BF400B800000F580704FF4BE70704706
:1050D0000C010020CBB2024608460D49083331F8D6
:1050E0001330990611D599070FD4012110685B0B75
:1050F0009940C0F80813126802EB8303D3F8102517
:1051000022F00302C3F810257047002104F035BFD8
:105110000C010020F7B5194ECDB2083536F8153020
:105120000746DB070C4626D5FFF7D4FF36F81530C7
:105130009A0608D55A0B3B6803EB82030022C3F89A
:105140001025C3F810252046FFF75AFF002301A8B9
:1051500026F815300194FFF71BFF019B00EB83003D
:10516000D0F80022064B134043F00203C0F800328F
:10517000044803B0F0BD0448FBE700BF0C01002069
:10518000F0F8FCFF0000AD0B0400AD0B2DE9FF4172
:10519000136807460C461646FBB1DFF84481CDB2D2
:1051A000083538F8152002F02202222A22D00022E7
:1051B0002046CDE900228DF80E208DF80F200DF14C
:1051C0000E010DF10F0204F08FFE38F8153023F0B8
:1051D000020343F0010328F8153073684BB31A78C3
:1051E0005868DFF8FCC0E3B208333CF813108D07B1
:1051F00002D5B0B138481FE021F02001C904C90C24
:105200002CF8131068B1032AF4D870683D68406820
:1052100090F800E005EB8E058AB9C5F81025C5F8B1
:1052200010253CF8131021F01C0141EA82022CF8F1
:105230001320B3682BBB294804B0BDE8F081D5F832
:10524000108541EA4E3128F00308C5F810853D6805
:1052500041F0200105EB8E05D5F810052CF8131050
:1052600020F4473020F44070C5F810052002D5F82E
:10527000107500F4F85040EA02403843C5F81005B4
:10528000CFE72046D3E90067FFF7BAFE002ED2D061
:10529000134DD5E90023964203D19F4201D100224C
:1052A00009E010480DF10F01FFF77CFD0B4B984210
:1052B000C2D19DF80F20E4B205EBC20308345F6051
:1052C00035F8143045F8326043EA422343F48073E2
:1052D00025F81430AFE700BF0400AD0B0000AD0BA4
:1052E0000C010020640100202DE9FF4107460C4617
:1052F0001E4612B3DFF8D480CDB2083538F8153029
:10530000980701D4990621D413F01C0F02D05378CA
:10531000012B1BD001238DF80F3000232046CDE94F
:1053200000230DF10F01931C013204F0DDFD38F86C
:10533000153043F0030328F81530002E44D0234DD8
:10534000E1B2083135F81120930703D4204804B0A6
:10535000BDE8F081002096F800E03B6822F02002D2
:10536000D20403EB8E03D20CC3F8100525F81120EC
:10537000C3F8100596F801C04FEA8E08BCF1000F83
:1053800022D03868B6784044D0F810354FEA0C4C3B
:1053900023F4981323F4F853C0F81035230203F4D0
:1053A000F8530CF4403C3605D0F8107543EA0C0372
:1053B00006F48016334342EA4E323B4342F0200269
:1053C000C0F8103525F811200248C0E70C01002074
:1053D0000400AD0B0000AD0B014BC3E90212704796
:1053E0000C010020054BC9B2083133F81130990681
:1053F00043BF5B0B02481370024870470C0100204A
:105400000000AD0B0400AD0B70B5154D064695F8C8
:1054100060401CBB2146402205F1100003F060FDF6
:10542000214630682E6D8E420ED10023C0F87C31AB
:10543000D0F87C3140F30730FDF772FE01230948B4
:1054400085F86030AB6570BDCBB29B0003F5807210
:105450007C2B04BF845083580131E4E70248F2E713
:105460000C0100200000AD0B0C00AD0B034B93F8BA
:105470006000003818BF0120704700BF0C010020F9
:105480000148FFF7AFBC00BF600100200148FFF7F3
:1054900089BC00BF6001002073B503680C46D3F8D7
:1054A00004130029A4BF4FF00041C3F804131E49A0
:1054B000E3B2083331F8133099061AD513F0020617
:1054C00017D15B0B05689C0004F580716E5069581C
:1054D00001682144D1F8104544F00104C1F8104599
:1054E0002AB10122016802FA03F3C1F8043302B0C1
:1054F00070BDC3F38203042B11D0052B11D001A87A
:105500000194FFF745FD019A0369D34003F00103BD
:10551000991C204602B0BDE8704004F02EBD032166
:10552000F7E70221F5E700BF0C0100202DE9F34762
:10553000534B544FD3F80403396DC0B240F00040D0
:10554000FFF78AFD051E18DA00236846F96D0093FF
:105550004FF00108FFF746FD97F85C30DA0757D4A3
:10556000396D4FF00040FFF777FD6846F96DFFF7A2
:1055700039FD0028F0D125F000450124002D66D129
:1055800002B0BDE8F08794FAA4F4B4FA84F4E00819
:1055900004F1080337F8139004F007021DF80030F7
:1055A00008FA02F223EA02030DF8003001A8019480
:1055B000FFF7EEFC019B4FEA9901803350F823601E
:1055C000C9F3820A4B07D146C6F3014624D52046CB
:1055D0005146FFF7E9FC01A80194FFF7D9FC019BB4
:1055E000F6B2803350F82330C3F301439E4207D113
:1055F0000021204604F0C1FC3146204604F0BDFCE9
:1056000001A80194FFF7C4FC019B08FA03F30362AD
:10561000009C002CB7D1A3E7022E0CD10321204619
:1056200004F0ABFC0AF00503012BE9D14946204602
:10563000FFF7BAFCE4E70221204604F09EFCBAF131
:10564000030FF3D0032EDBD1BAF1020FEDE795FA89
:10565000A5F3B3FA83F304FA03F29B0003F1A0432A
:1056600003F55043D3F81005D3F81015C0F3042008
:10567000C1F3014125EA0205FFF796FC7EE700BF72
:1056800000D000500C0100200022034BC3F88425F9
:10569000C3F80425704700BF00900350044AD2F8B5
:1056A0000834DB07FBD50160BFF35F8F704700BF95
:1056B0000090035008B5C0F30B0383B90222094BD5
:1056C000C3F88425C3F804254FF0FF320260D3F8F5
:1056D0000024D207FBD5FFF7D7FF034808BD0348D6
:1056E000FCE700BF009003500000AD0B0A00AD0BBB
:1056F000012208B5054BC3F88425C3F80425FFF73C
:10570000CDFFBDE80840FFF7BFBF00BF00900350CA
:10571000430904D10123034A834093607047002367
:105720009B60FFDE002584500C4B984213D00AD8B2
:105730000B4B98420FD00B4B98420CD00A4BC31A1C
:10574000584258417047094B984204D0084B984240
:1057500001D0084BF3E70120704700BF40420F0023
:1057600090D0030020A1070048E8010000093D0097
:1057700000127A0080841E00431C14D000F01F0326
:1057800040090BD1084A02EB8302D2F80012074B02
:105790000B4043F00203C2F800327047002280330E
:1057A00052F82330FFDE704700258450F0F8FCFFEC
:1057B000430904D10123034A8340D3607047002387
:1057C000DB60FFDE0025845038B51446421C0546D8
:1057D00016D0012902D1A3B1FFF79AFF05F01F03EC
:1057E0006D0911D10B4A41EA840402EB8303D3F81B
:1057F0000002094A0240144344EA4101C3F800127E
:1058000038BDFFF7D5FFE9E70022803352F8233097
:10581000FFDE00BF00258450F0F8FCFF2DE9F843BF
:10582000504B4D6906469D420C4690F8049000F09E
:10583000848077D84C4B9D4200F082804B4B9D4238
:1058400000F081804A4B9D420CBF4FF000754FF035
:1058500080452422DFF82481E07E02FB0983997FC2
:1058600060F3000199773379217C02FB03839A7FEF
:1058700061F341029A77E77EEFB9237E3A46012B26
:1058800094BF0023012301212068FFF79DFF3B46C1
:105890003A4601216068FFF797FF3B463946A27EF2
:1058A000A068FFF791FF237C3A460121E06883F06E
:1058B0000103FFF789FF242303FB0983E2681A62CF
:1058C000217C9A7F61F341029A77277FA07C217E19
:1058D000637E326847B9D4E900C7A468C2F808C536
:1058E000C2F80C75C2F81045003B18BF012302290D
:1058F000C2F8C005C2F824552BD003292CD00129A9
:1059000001D143F00203C2F85435242233795343C2
:1059100058F803301BB33068BDE8F84340F3073054
:10592000FDF7FEBB134B9D4210D0134B9D420CBFA5
:105930004FF000454FF080458BE74FF0805588E7EA
:105940004FF0806585E74FF0006582E74FF0005526
:105950007FE743F00403D6E743F00603D3E7BDE84F
:10596000F88300BF40420F0090D0030020A1070041
:1059700048E8010080841E0000127A00B82300204D
:105980002DE9F8430746242597F80480124C05FBBF
:1059900008F504EB05091E4699F81C30C3B999B106
:1059A0004869FFF7C1FEA8B138466251C9F80460E2
:1059B000FFF734FF242303FB08440023637701230C
:1059C00006482377BDE8F8836251C9F80460F1E71F
:1059D0000348F7E70348F5E7B82300200000AD0BC4
:1059E0000C00AD0B0400AD0B2DE9F0410446067927
:1059F0000068194D40F30730FDF7A0FB24237343E3
:105A0000EB5853B12368154A06EBC601C3F80823C7
:105A1000206805EB810104F022FB2368242404FBA9
:105A20000654D3F80805D3F80C75D3F81085A37F76
:105A3000DB070AD4FFF7A0FE4046FFF79DFE38467D
:105A4000FFF79AFE206AFFF797FE242303FB065513
:105A500000232B77BDE8F081B82300205201080015
:105A600024232DE9F0430779534D7B439046EA18F0
:105A70000E46517F814685B0002940F09B80EB584F
:105A800023B118F0140F04BF01235377242496E8A0
:105A90000F0004FB075404F10C0C8CE80F00206A83
:105AA000421C04D0A37F9B071AD5FFF731FE336851
:105AB000D9F8004023B103F06043B3F1005F06D191
:105AC000B36883B103F06043B3F1005F0BD02423CC
:105AD000002203FB075339485A7705B0BDE8F0832D
