:020000021000EC
:10800000D01A01204DC401004985020039C4010085
:1080100039C4010039C4010039C4010039C4010068
:1080200000000000000000000000000039C6010050
:1080300039C4010000000000BDC5010039C40100C1
:1080400041C8010041C8010041C8010041C8010008
:1080500041C8010041C8010041C8010041C80100F8
:1080600041C8010041C8010041C8010041C80100E8
:1080700041C8010041C8010041C8010041C80100D8
:1080800041C8010041C8010041C8010041C80100C8
:1080900041C8010041C8010041C8010041C80100B8
:1080A00041C8010041C8010041C8010041C80100A8
:1080B00041C8010041C8010041C8010041C8010098
:1080C00041C8010041C8010041C8010041C8010088
:1080D00041C8010041C8010041C8010041C8010078
:1080E00041C8010041C8010041C8010041C8010068
:1080F00041C8010041C8010041C8010041C8010058
:1081000041C8010041C8010041C8010041C8010047
:1081100041C8010041C8010041C8010041C8010037
:1081200041C8010041C8010041C8010041C8010027
:1081300041C8010041C8010041C8010041C8010017
:0481400041C8010031
:04814400FFFFFFFF3B
:1081480081F0004102E000BF83F0004330B54FEA00
:1081580041044FEA430594EA050F08BF90EA020F6D
:108168001FBF54EA000C55EA020C7FEA645C7FEA00
:10817800655C00F0E2804FEA5454D4EB5555B8BF23
:108188006D420CDD2C4480EA020281EA030382EA94
:10819800000083EA010180EA020281EA0303362D26
:1081A80088BF30BD11F0004F4FEA01314FF4801CF9
:1081B8004CEA113102D0404261EB410113F0004F0B
:1081C8004FEA03334CEA133302D0524263EB4303C2
:1081D80094EA050F00F0A780A4F10104D5F1200E60
:1081E8000DDB02FA0EFC22FA05F2801841F10001BB
:1081F80003FA0EF2801843FA05F359410EE0A5F18F
:1082080020050EF1200E012A03FA0EFC28BF4CF0BF
:10821800020C43FA05F3C01851EBE37101F0004575
:1082280007D54FF0000EDCF1000C7EEB00006EEB82
:108238000101B1F5801F1BD3B1F5001F0CD349080C
:108248005FEA30004FEA3C0C04F101044FEA445263
:1082580012F5800F80F09A80BCF1004F08BF5FEAEA
:10826800500C50F1000041EB045141EA050130BDCA
:108278005FEA4C0C404141EB0101013C28BFB1F5DC
:10828800801FE9D291F0000F04BF01460020B1FA27
:1082980081F308BF2033A3F10B03B3F120020CDAFA
:1082A8000C3208DD02F1140CC2F10C0201FA0CF0D8
:1082B80021FA02F10CE002F11402D8BFC2F1200C3D
:1082C80001FA02F120FA0CFCDCBF41EA0C019040F3
:1082D800E41AA2BF01EB0451294330BD6FEA04043C
:1082E8001F3C1CDA0C340EDC04F11404C4F1200227
:1082F80020FA04F001FA02F340EA030021FA04F339
:1083080045EA030130BDC4F10C04C4F1200220FA8F
:1083180002F001FA04F340EA0300294630BD21FACD
:1083280004F0294630BD94F0000F83F4801306BF93
:1083380081F480110134013D4EE77FEA645C18BF87
:108348007FEA655C29D094EA050F08BF90EA020F1E
:1083580005D054EA000C04BF1946104630BD91EA16
:10836800030F1EBF0021002030BD5FEA545C05D119
:108378004000494128BF41F0004130BD14F5800458
:108388003CBF01F5801130BD01F0004545F0FE41CC
:1083980041F470014FF0000030BD7FEA645C1ABF01
:1083A800194610467FEA655C1CBF0B46024650EA38
:1083B800013406BF52EA033591EA030F41F4002164
:1083C80030BD00BF90F0000F04BF0021704730B5EA
:1083D8004FF4806404F132044FF000054FF00001BF
:1083E80050E700BF90F0000F04BF0021704730B580
:1083F8004FF4806404F1320410F0004548BF404255
:108408004FF000013EE700BF42004FEAE2014FEAA9
:1084180031014FEA02701FBF12F07F4393F07F4F84
:1084280081F06051704732F07F4208BF704793F087
:108438007F4F04BF41F40021704730B54FF460749A
:1084480001F0004521F000411CE700BF50EA01029D
:1084580008BF704730B54FF000050AE050EA010246
:1084680008BF704730B511F0004502D5404261EBB6
:1084780041014FF4806404F132045FEA915C3FF4F7
:10848800D8AE4FF003025FEADC0C18BF03325FEA94
:10849800DC0C18BF033202EBDC02C2F1200300FA45
:1084A80003FC20FA02F001FA03FE40EA0E0021FA6A
:1084B80002F11444BDE600BF70B54FF0FF0C4CF458
:1084C800E06C1CEA11541DBF1CEA135594EA0C0F0A
:1084D80095EA0C0F00F0DEF82C4481EA030621EA45
:1084E8004C5123EA4C5350EA013518BF52EA033580
:1084F80041F4801143F4801338D0A0FB02CE4FF032
:108508000005E1FB02E506F00042E0FB03E54FF061
:108518000006E1FB03569CF0000F18BF4EF0010E59
:10852800A4F1FF04B6F5007F64F5407404D25FEA55
:108538004E0E6D4146EB060642EAC62141EA555108
:108548004FEAC52040EA5E504FEACE2EB4F1FD0C4A
:1085580088BFBCF5E06F1ED8BEF1004F08BF5FEAC8
:10856800500E50F1000041EB045170BD06F000467A
:1085780046EA010140EA020081EA0301B4EB5C0427
:10858800C2BFD4EB0C0541EA045170BD41F480111F
:108598004FF0000E013C00F3AB8014F1360FDEBF44
:1085A800002001F0004170BDC4F10004203C35DA20
:1085B8000C341BDC04F11404C4F1200500FA05F3A3
:1085C80020FA04F001FA05F240EA020001F0004244
:1085D80021F0004110EBD37021FA04F642EB0601BA
:1085E8005EEA430E08BF20EAD37070BDC4F10C04E4
:1085F800C4F1200500FA04F320FA05F001FA04F2A8
:1086080040EA020001F0004110EBD37041F1000193
:108618005EEA430E08BF20EAD37070BDC4F120059E
:1086280000FA05F24EEA020E20FA04F301FA05F206
:1086380043EA020321FA04F001F0004121FA04F2AE
:1086480020EA020000EBD3705EEA430E08BF20EA7E
:10865800D37070BD94F0000F0FD101F000464000B8
:1086680041EB010111F4801F08BF013CF7D041EA3A
:10867800060195F0000F18BF704703F0004652003E
:1086880043EB030313F4801F08BF013DF7D043EA0F
:108698000603704794EA0C0F0CEA135518BF95EAC5
:1086A8000C0F0CD050EA410618BF52EA4306D1D14C
:1086B80081EA030101F000414FF0000070BD50EA6B
:1086C800410606BF1046194652EA430619D094EAF5
:1086D8000C0F02D150EA013613D195EA0C0F05D1DF
:1086E80052EA03361CBF104619460AD181EA030133
:1086F80001F0004141F0FE4141F470014FF00000EB
:1087080070BD41F0FE4141F4780170BD70B54FF085
:10871800FF0C4CF4E06C1CEA11541DBF1CEA135505
:1087280094EA0C0F95EA0C0F00F0A7F8A4EB0504E7
:1087380081EA030E52EA03354FEA013100F08880DE
:108748004FEA03334FF0805545EA131343EA1263A7
:108758004FEA022245EA111545EA10654FEA00265C
:108768000EF000419D4208BF964244F1FD0404F515
:10877800407402D25B084FEA3202B61A65EB030571
:108788005B084FEA32024FF480104FF4002CB6EB2E
:10879800020E75EB030E22BFB61A754640EA0C00AE
:1087A8005B084FEA3202B6EB020E75EB030E22BFEE
:1087B800B61A754640EA5C005B084FEA3202B6EB2F
:1087C800020E75EB030E22BFB61A754640EA9C00EE
:1087D8005B084FEA3202B6EB020E75EB030E22BFBE
:1087E800B61A754640EADC0055EA060E18D04FEA7C
:1087F800051545EA16754FEA06164FEAC30343EA1C
:1088080052734FEAC2025FEA1C1CC0D111F4801FE8
:108818000BD141EA00014FF000004FF0004CB6E7E1
:1088280011F4801F04BF01430020B4F1FD0C88BF80
:10883800BCF5E06F3FF6AFAEB5EB030C04BFB6EB8B
:10884800020C5FEA500C50F1000041EB045170BD7E
:108858000EF0004E4EEA113114EB5C04C2BFD4EBAB
:108868000C0541EA045170BD41F480114FF0000E2F
:10887800013C90E645EA060E8DE60CEA135594EAAB
:108888000C0F08BF95EA0C0F3FF43BAF94EA0C0FAE
:108898000AD150EA01347FF434AF95EA0C0F7FF423
:1088A80025AF104619462CE795EA0C0F06D152EA77
:1088B80003353FF4FDAE1046194622E750EA41065B
:1088C80018BF52EA43067FF4C5AE50EA41047FF46C
:1088D8000DAF52EA43057FF4EBAE12E74FEA4102CF
:1088E800B2F1E04324BFB3F5001CDCF1FE5C0DD906
:1088F80001F0004C4FEAC0024CEA5070B2F1004F50
:1089080040EB830008BF20F00100704711F0804F52
:1089180021D113F13872BCBF01F00040704741F417
:1089280080114FEA5252C2F11802C2F1200C10FA1B
:108938000CF320FA02F018BF40F001004FEAC123FF
:108948004FEAD32303FA0CFC40EA0C0023FA02F3A3
:108958004FEA4303CCE77FEA625307D150EA013379
:108968001EBF4FF0FE4040F44000704701F0004049
:1089780040F0FE4040F40000704700BF53B94AB9C8
:10898800002908BF00281CBF4FF0FF314FF0FF300F
:1089980000F00CB8ADF1080C6DE904CE00F0CEF88B
:1089A800DDF804E0DDE9022304B07047704700BF3A
:1089B8004FF0FF3C06E000BF4FF0010C02E000BFA3
:1089C8004FF0010C4DF804CD4FEA410C7FEA6C5C86
:1089D8004FEA430C18BF7FEA6C5C1BD001B050EA29
:1089E800410C0CBF52EA430C91EA030F02BF90EA14
:1089F800020F0020704710F1000F91EA030F58BFD3
:108A0800994208BF90422CBFD8176FEAE37040F034
:108A1800010070474FEA410C7FEA6C5C02D150EAD2
:108A2800013C07D14FEA430C7FEA6C5CD6D152EA8D
:108A3800033CD3D05DF8040B704700BF8446104652
:108A480062468C461946634600E000BF01B5FFF751
:108A5800B7FF002848BF10F1000F01BD4DF808ED21
:108A6800FFF7F4FF0CBF012000205DF808FB00BFF2
:108A78004DF808EDFFF7EAFF34BF012000205DF84C
:108A880008FB00BF4DF808EDFFF7E0FF94BF012099
:108A980000205DF808FB00BF4DF808EDFFF7CEFF9A
:108AA80094BF012000205DF808FB00BF4DF808EDD9
:108AB800FFF7C4FF34BF012000205DF808FB00BFAA
:108AC8004FEA410C7FEA6C5C02D150EA013C0AD1C2
:108AD8004FEA430C7FEA6C5C02D152EA033C02D1B4
:108AE8004FF0000070474FF0010070474FEA410215
:108AF80012F5001215D211D56FF47873B3EB6252E8
:108B080012D94FEAC12343F0004343EA505311F00E
:108B1800004F23FA02F018BF404270474FF00000A0
:108B2800704750EA013005D111F0004008BF6FF0DE
:108B3800004070474FF00000704700BF2DE9F04734
:108B480086468C460846089E154674461946002BEC
:108B580040F0C1808542B2FA82F245D94AB1C2F1E9
:108B6800200300FA02FC954094402EFA03F343EAEE
:108B78000C0C4FEA154EA8B2230CBCFBFEF80EFBFA
:108B880018CC08FB00F943EA0C43994528D9EB189F
:108B980008F1FF3704D2994502D9A8F102072B44FE
:108BA800A3EB0903A4B2B3FBFEFC0EFB1C330CFBC6
:108BB80000F044EA0344A04214D92C190CF1FF3305
:108BC80004D2A04202D9ACF102032C44241A43EA8D
:108BD80007401EB1D440002334607360BDE8F087BD
:108BE8004746DDE76346F1E792BB431B01214FEAA5
:108BF800154EAFB2200CB3FBFEFC0EFB1C330CFB76
:108C080007F840EA0343984561D9EB180CF1FF30A7
:108C180004D2984502D9ACF102002B44A3EB080317
:108C2800A4B2B3FBFEFC0EFB1C330CFB07F744EAB3
:108C38000344A7424DD92C190CF1FF3304D2A742A3
:108C480002D9ACF102032C44E41B43EA0040C0E71C
:108C5800C2F120039540944020FA03F12EFA03F361
:108C68004FEA154E9040AFB20343B1FBFEFC0EFB3A
:108C78001C10190C0CFB07F841EA0041884522D961
:108C880069180CF1FF3004D2884502D9ACF1020012
:108C98002944A1EB08019BB2B1FBFEFC0EFB1C11A1
:108CA8000CFB07F743EA01439F420ED9EB180CF17E
:108CB800FF3104D29F4202D9ACF102012B44DB1BE5
:108CC80041EA004193E76046E3E76146F7E760461B
:108CD800A4E76346B8E7834206D916B900210846D7
:108CE8007CE7C6E900E0F9E7B3FA83F78FB9834276
:108CF80001D3724508D8BEEB020460EB03030120E0
:108D08009C461EB9002169E73846FAE7C6E9004CD7
:108D1800F8E7C7F1200CBB400EFA07F522FA0CF46D
:108D28002EFA0CF1BA401C4320FA0CF3B8404FEA73
:108D3800144901431FFA84FEB3FBF9F809FB183004
:108D48000B0C08FB0EFA43EA00439A4540D9E31896
:108D580008F1FF3004D29A4502D9A8F10200234451
:108D6800A3EB0A0389B2B3FBF9F809FB183308FB34
:108D78000EFE41EA03418E452CD9611808F1FF33F4
:108D880004D28E4502D9A8F10203214443EA0040E7
:108D9800A1EB0E01A0FB02984145CE46434602D303
:108DA80006D14D4504D20138B9EB020E68EB040335
:108DB800002EA7D0B5EB0E0261EB030101FA0CFC03
:108DC80022FA07F3F9404CEA0303C6E9003199E7B0
:108DD8004046C5E74346D9E710F8012B11F8013B97
:108DE800012A28BF9A42F7D0D01A7047034613F8D1
:108DF800012B002AFBD1181A013870470000000027
:108E08002DE9F04F824616461C4600259FB0039177
:108E1800307810B9284600F089BD731C25280693C0
:108E280006D00399D0470028C0F2808501351FE29B
:108E38001822002110A812F05CFB7378252B00F093
:108E4800BC80002398469E469C461846711C0F46D7
:108E580011F8012B2B2A00F0E38000F2DA80202A97
:108E680000F0E180232A00F0E1802BB19DF8483022
:108E780043F040038DF84830B8F1000F05D09DF855
:108E8800483043F020038DF84830BEF1000F05D07C
:108E98009DF8483043F010038DF84830BCF1000FBE
:108EA80005D09DF8483043F008038DF8483028B1C4
:108EB8009DF8483043F004038DF848309DF8483059
:108EC80003F04401442903D16FF386138DF8483029
:108ED8009DF848302A2A43F080030E978DF84830D1
:108EE80040F0A9809DF8493043F001038DF84930DE
:108EF8007B1C1A782E2A0CBF012100219DF84920DD
:108F080061F341028DF849200CD15A1C0E925A780F
:108F18002A2A40F0A0809DF84920023342F004023A
:108F28008DF849201A786C2A00F0C18000F2A380DD
:108F3800682A00F0A9806A2A00F0C2804C2A00F052
:108F4800C78013F8012B782A06938DF84B2000F27E
:108F580009816D2A00F2C980692A00F20381572A23
:108F680000F2E280412A04D0A2F14503022B00F26C
:108F7800F98004219DF84A3002F0DF02A2F141088D
:108F880061F30203D8F100029DF8491042EB080290
:108F980062F3C7110A068DF84A308DF84910CBB232
:108FA80000F11F8103F07802182A40F009816FF35D
:108FB800C6038DF849300023F8E0B21C06928DF8FC
:108FC8004B309DF849309DF84A20DF0702F0070032
:108FD80040F1098154F8041B0029049108DA9DF82E
:108FE800481041F004018DF8481004994942049151
:108FF800590740F1008154F8047B002F80F2FF806C
:109008009DF849306FF341038DF849304FF0FF3731
:10901800F5E02D2A0DD0302A7FF427AF012316E77B
:109028004FF0010C13E74FF0010E10E74FF0010865
:109038000DE701200BE70EA802F0E2F90E9BBB42F8
:109048003FF457AF9DF848201390C00F60F34102DA
:109058008DF848204DE70EA802F0D2F99DF8483067
:109068001490C3F3400242EAD07262F341038DF8D0
:1090780048300E9B56E7742A26D07A2A7FF461AFCF
:1090880006219DF849200CE05A78682A9DF8492065
:1090980006D1012161F3C6028DF84920023350E759
:1090A800022161F3C6028DF84920013349E75A7855
:1090B8006C2A9DF8492001D10421EBE70321F0E750
:1090C80005219DF84920ECE707219DF84920E8E7AC
:1090D800BDF8482022F4F04222F0020242F4804215
:1090E80042F00202ADF84820DFE76E3AD3B201221F
:1090F8009A4040F282431A429DF8493039D112F021
:10910800240F61D1D1072DD503219DF84A2003F002
:109118007803A3F1400C61F30202DCF100038DF83F
:109128004A2043EB0C0341E00120A2F15801C9B2E7
:1091380000FA01F111F4624F7FF41BAF40F601030E
:1091480019429DF849301AD111F4043F0AD09DF80C
:109158004A2060F3020203F07803402B8DF84A207E
:109168007FF429AF9DF8483043F001038DF848306B
:1091780021E702219DF84A2061F30202EBE7022071
:109188009DF84A1003F0780360F30201402B8DF834
:109198004A1002BF9DF8481041F001018DF84810AF
:1091A800632A7FF408AF003B18BF01239DF84820CD
:1091B800C2F340010B4363F341028DF8482000E7F6
:1091C80013F0380FCED1F6E603219DF84A2013F0AC
:1091D800780F61F3020214BF012300238DF84A209F
:1091E800E4E70123E2E79DF948100029ACBF4FF0FE
:1091F800FF311399FBE69F077FF508AF149F002303
:109208000428CDE913339DF8493007D1980705D4D0
:109218009DF949100029ACBF06270D2702F0070267
:10922800012AC3F3C30333D1DA1E042A04D8DFE8C2
:1092380002F02146462121002268012B4FEAE27103
:10924800CDE910211CD19DF94020D117CDE910217D
:1092580004349DF848209107079250D03246504672
:10926800069B03990EF085FF0028C0F25F83054432
:10927800069ECDE554F8042BD117CDE91021E8E777
:10928800022BE5D111B242F3C032CDE91012DFE76B
:10929800022A24D1DA1E042A04D8DFE802F01810C2
:1092A80010181800012B4FF0000154F8042B14D0AB
:1092B800022BCDE91021CCD192B21092C9E7073424
:1092C80024F00704F4E80201CDE91001C1E754F8DD
:1092D800042B109200221192BBE7D2B2CDE7042AE8
:1092E80008D1073424F00704D4E900010834CDE993
:1092F8001001AEE7032AACD154F8042BDDE79DF842
:109308004BB0BBF1780FB3D8BBF1570F49D8BBF1BD
:10931800250F00F09180BBF1240FA9D9BBF1410FB3
:1093280003D0ABF14503022BA2D8DDE91013002BC3
:10933800C0F23781079A160700F13681C2F3001987
:109348004FEA4919C3F30A50C3F31303002840F046
:109358002E8151EA030614BF01260026DB0243EAE8
:109368005153C902BBF1460F40EA010E43EAE07CC3
:1093780008BF4FF0660B5EEA0C0CCDE90C1300F049
:109388009C81002E40F04A810D9BA0F2FE3843F0EC
:1093980000430D930020DDE90C1306464FF0050C41
:1093A80056E1ABF1580120293FF662AF01A050F811
:1093B80021F000BF499501007992010079920100DE
:1093C8007992010079920100799201007992010065
:1093D800799201007992010033930100799201009A
:1093E800CD940100E194010033930100339301000F
:1093F8003393010079920100E19401007992010010
:109408007992010079920100799201008395010017
:10941800499501004F950100799201007992010068
:109428004794010079920100499501007992010061
:10943800799201004995010058460399F2E4002FFA
:10944800109E3BDB3946304612F014FA002E3FF4EA
:109458000FAF4FF000093718BB1B9DF84A2012F0D8
:109468001001059100F05782023312F04002DDF836
:109478004C80089218BF149A434418BF9B18049A4A
:10948800CDF81C80002A40F36182D31A04939DF81A
:1094980048305807C3F3800B00F15882590640F151
:1094A8004882B9F1000F07D048460399D0470028F1
:1094B800C0F23C82D946013530233BE23046FFF703
:1094C80095FCC6E7109B4FF000098DF85C300DF154
:1094D8005D07012317AEC0E7079B1A0754BFC3F304
:1094E80000194FF02B09DDE9102358BF4FEA49193D
:1094F800002B06DA4FF02D09524263EB4303CDE906
:109508001023DDE910010DF17503009312AA17ABC2
:1095180001F08CFF0646002F0CDB9DF848200DF16A
:1095280075039B1B6FF386129F428DF8482001D963
:10953800FB1A1393002E3FF49BAE0DF175075BE009
:109548004FF00009DDE71098002800F0DF810DF1E9
:1095580075030093002117AB12AA01F067FFBDF84D
:109568004A30064603F0EF0343F4F04343F0100398
:109578004FF00009ADF84A30CDE7109A072B3FF6B7
:1095880077AEDFE803F00C04060C08080C0C157025
:109598006EE615806CE6EB17C2E9005368E61560C5
:1095A80066E64FF02D09CDE64FF02B09CAE640F2EA
:1095B800FF76B0422FD1A0480BF10102D2B2825CF3
:1095C8000B4302F003021ED1012A0BBF4923692372
:1095D8004E216E210CBF462266228DF85C309DF824
:1095E80048308DF85D106FF386138DF85E208DF886
:1095F80048300DF15F0717AEBB1BB9F1000F3FF400
:109608002CAF013329E7012A15BF6E234E236121B0
:1096180041211A46E1E70026A0E6013849185B41D6
:10962800002BFADACDE90C13AEE6490841EAC3711A
:109638005B08B3F1333F404608F10108F5D200F169
:10964800020801200CFB03FEA1FB0C13013E73442E
:1096580018F1020FE9DB08B1CDE90C13DDE90C3193
:10966800B8F1000F2CDCC8F10400A0F1200C08F1BF
:109678001C08C34001FA08F821FA0CFCC1400BF0A1
:10968800DF0043EA0803472843EA0C0338D1F01CFB
:1096980001DBB7422ADAABF10202002F5FFA82FB44
:1096A8007BDD9DF84800013F820676D43A1E18BF3C
:1096B8000122059207F101082CE04FF0000869E645
:1096C800023341F100010CA808F1FF380136CDE959
:1096D8000C310EF01FFDDDE90C31DB184941002982
:1096E80008F1FF38F9DACDE90C31B7E79DF84820E1
:1096F800BF1B90064FD43A1E18BF0122059204E002
:109708000022BBF1660F0592D4D117EB06084FF083
:10971800660B44D4B8F1100FA8BF4FF010089FEDA6
:10972800447B10208DED0E7B0B90DDE90E02B8F125
:10973800000F37D1C01842EB0103B3F1805F41D26B
:10974800CDE90C03079BBBF1660F03F0200340F043
:10975800BC80002E41DC30218DF85C10002B6DD1CF
:10976800002F40F3B4812E238DF85D3086B173420B
:10977800BB42A8BF3B46002B1393A7EB0307D4BFFC
:10978800002301239DF84A1063F345118DF84A1010
:109798000DF15E0839E00022B0E7002289E74FF0BA
:1097A8000008BCE7400840EAC2705208CDE90E0242
:1097B8000EA8CDE9083108F1FF380EF0ABFCDDE961
:1097C8000831B2E7400840EAC3705B08CDE90C03F2
:1097D8000CA80EF09FFC0136B4E70DF15C080B995C
:1097E800002909DD0BA90CA807930EF0ABFC013E7C
:1097F800079B08F8010BF2D113969BB9002F40F391
:1098080064812E2108F8011B0026002F1FDD0B9B09
:10981800002B1CDD0BA90CA80EF094FC013F08F8E6
:10982800010BF2E72E2308F8013BEDE7AFF30080C8
:10983800000000000000000833EC02002E238DF821
:109848005D30002EA4D0002F91DC0DF15E08059B41
:10985800002B4ED1149747460BF0DF03452B23D13D
:10986800002EBABF76422D232B23632EC8BF642156
:109878007B70C4BFB6FBF1F301FB13664FF00A011E
:10988800C8BF03F13000B6FBF1F3D2BFBA1CFA1C13
:10989800B87087F800B0174603F1300001FB136376
:1098A800303307F8020B5370139B002B2CDC149BEE
:1098B800002BD4BF002301239DF84A2063F38612AE
:1098C80000238DF84A203B7095E60BA90CA8079356
:1098D8000EF038FC079B30288DF85C0018BF06F1A5
:1098E800FF3613B9002F40F3F2802E238DF85D3038
:1098F8004EE7474617F8013C08F1FF38302BF8D0FF
:109908002E2B08BF4746A7E70123D5E7714F8146AD
:1099180005237E1FA1E5110748BF0133A5E51846B9
:1099280009930399D0470028099B05DA1FB0BDE8C1
:10993800F08F2023DDF810B05A46002A0BF1FF3BC8
:10994800EDDC049BCDF810B02B449D1AB9F1000F43
:1099580005D048460399D0470028E7DB0135089B26
:10996800002B77D09DF94930002B28DB3346DFF8F0
:10997800689118789B4619F80020013352073FD4A4
:109988009DF84A30AE1B98065E4407D44246002A2A
:1099980008F1FF383BDC079B33449E1A9BF8000014
:1099A8002E280AD10399D0470028BFDBB8F1000F51
:1099B80006F1010631DC0BF1010B5D4638E0B146DA
:1099C80099F80000C846702809F1010913D1AE1BA7
:1099D800149D46443544AB1B002B33DC3B464246C2
:1099E800504603990EF0C5FB00289FDB3044049EC7
:1099F8000546064464E00399D0470028E0DA95E775
:109A080005930399D0470028059BB2DA8EE73020EA
:109A18000399D0470028B9DA88E730200399D0475E
:109A280008F1FF38C0E70399D0470028FFF67EAF5A
:109A38002878A84619F8003001355907F3D4A6EB61
:109A48000B06C5E730200399D0470028FFF66EAF14
:109A58000136C0E79DF84A30DA0601D41B0706D55F
:109A680030200399D0470028FFF660AF0135059BE9
:109A78003BB103999DF84B00D0470028FFF656AF3D
:109A88000135A84406E030200399D0470028FFF6A6
:109A98004DAF0135A8EB0503002BF4DC3B463246FD
:109AA800504603990EF065FB0028FFF63FAF2844A7
:109AB8009DE720200399D0470028FFF637AF0135EE
:109AC800731B002BF5DCFFF7D3BB1E46BFE60DF179
:109AD8005D08BCE6A8CE020034EC020000000000DD
:109AE8002DE9F0432DED028B1F46002504238BB092
:109AF8000E4690468146CDE908550593002800F0AA
:109B0800D580002900F0D280062108A80FF014FCA7
:109B1800044680B16A4B0390CDE9015301222B46DC
:109B28002846684900950FF05FFD20460BB0BDEC54
:109B3800028BBDE8F083014608AA48460FF0D7FB20
:109B4800044670B1604B0390CDE901532B46009554
:109B5800012218465B490FF047FD08A80FF016FCD4
:109B6800E3E7012104AA08A80FF0C2FC044610B1DB
:109B7800564B0390E8E7049BDBB1042B22D0052B5E
:109B88000CBF0923FF233370032105AB06AA08A8DD
:109B98000FF0DAFC0546B8B14D4B03900293002351
:109BA80001221846CDE9003346490FF01DFD2C4629
:109BB800D3E7DFED487A0023C6ED017A3370C6EDAE
:109BC800027ACAE70723DEE7059B002BF1D028338A
:109BD8006B4403F8100C06A9404611F01EFE022241
:109BE800294606A80CF03AFF3378C2B2092B0AD1ED
:109BF8000F2A28D96FF01504374B039402930023DA
:109C0800CDE90033A4E70F2AF4D8072B23D19FED21
:109C1800338A334B33F81200D8B1FEF7E3FB26A39F
:109C2800D3E90023FEF748FCFEF758FE04217060D4
:109C380005AB06AA08A805910FF086FC054668B191
:109C4800284B0390AAE7284B9FED288A33F8120087
:109C5800E2E72748EAE76FF07F04CDE7059B06A90E
:109C680028336B4403F8100C384611F0D6FD022255
:109C7800294606A80CF0F2FEC2B20F2A0DD91D4BD8
:109C88000392CDE9015301222B4628460D49009540
:109C98000FF0AAFC6FF015045FE70132D2B207EEAD
:109CA800902AF8EEE77A67EE887A88E76FF015046D
:109CB8003BE700BFAFF300807B14AE47E17A244056
:109CC800D2DE02000CC20200FBDE020024DF02002A
:109CD80046DF02000000000072DF02000AD7A33F3F
:109CE8005CCA020096DF02003CCA02000AD7234081
:109CF8000AD7A340C1DF02002DE9F04F476A97B0A9
:109D08008346209E08910C92129355EC104B8DEDD2
:109D1800000B7FB910200BF023FF0246CBF824007C
:109D280020B9A74BEA21A7480DF06CFEC0E90177DE
:109D38000760C760DBF82430196859B15A680123F5
:109D4800584693404A608B600DF06EFADBF8243079
:109D580000221A602B1EB7BF23F000430023012204
:109D68000193A8BF3360019F974BB8BF3260BB43D4
:109D780019D142F20F73129A1360C7F313032343E6
:109D880000F0DB85219B53B9904B21E0904B039366
:109D98000833219A1360039817B0BDE8F08F8B4BF6
:109DA80003930333F5E79DED007B0022002351EC7C
:109DB800170B8DED0A7BFEF751FE804650B101234B
:109DC800129A1360219B13B1824B219A1360824B24
:109DD8000393E0E7C7F30A5614AA15A958469DED60
:109DE8000A0B0DF0A9FC0290002E76D00B9BA6F270
:109DF800FF36CDF84C80C3F3130343F07F53DDE9FE
:109E08000A0143F4401319460022744BFEF79CF9EB
:109E180065A3D3E90023FEF74FFB65A3D3E900232D
:109E2800FEF794F904460D463046FEF7DBFA62A3C6
:109E3800D3E90023FEF740FB02460B46204629469D
:109E4800FEF784F904460D46FEF750FE0022074649
:109E5800002320462946FEF70BFE40B13846FEF7A0
:109E6800C1FA22462B46FEF7F9FD00B9013F162F2D
:109E780052D85B4B03EBC703DDE90A01D3E90023A2
:109E8800FEF7F6FD002849D0013F00231193149BEB
:109E98009B1B5A1E4CBFC3F101030023079245BF09
:109EA8000693002306930793002F39DB079B10972F
:109EB8003B44079300230993089B092B66D8052B7D
:109EC800C5BF043B002401240893089B023B032BD5
:109ED80067D8DFE803F02D3A3859DDE914631E44EA
:109EE80006F23243202BC9BFC3F14003C3F120035C
:109EF8009F4006F21243D8BF04FA03F006F1FF367A
:109F0800C4BF24FA03F347EA0300FEF75BFA012211
:109F1800A1F1F873139276E70123B7E71190B6E73A
:109F2800069BDB1B06937B42099300231093C3E730
:109F380000230D930C9B002B56DC012399461A46EF
:109F480004930C920CE00123F3E700230D930C9B80
:109F5800FB1803F1010904934B46012BB8BF0123F9
:109F6800DBF824000021042202F114059D423FD9A8
:109F7800416058460DF018F9039000283BD1194B61
:109F880002464FF4D571CEE60123DFE70124002312
:109F98000D9408934FF0FF3300229946049312233F
:109FA800CFE701230D93F5E761436F63A787D23F9E
:109FB800B3C8608B288AC63FFB799F501344D33FB0
:109FC80080ED020097ED02000000F07F7CED0200BA
:109FD80073ED020073DE020072DE02000000F83F3B
:109FE80020C302000BEE02000C9B99460493B7E7CE
:109FF80001315200B8E7DBF82430B9F10E0F039AAB
:10A008001A606FD8002C6DD0002F36DD07F00F02D4
:10A01800A04BF8054FEA271403EBC20393ED007B2E
:10A028008DED0E7B17D59C4B04F00F044FF0030801
:10A03800D3E90823DDE90A01FEF768FBCDE9000151
:10A04800954D5CB9DDE90E23DDE90001FEF75EFB05
:10A05800CDE900012BE04FF00208F1E7E10709D54F
:10A0680008F10108DDE90E01D5E90023FEF724FA1D
:10A07800CDE90E0164100835E3E700F007817C4262
:10A08800844B854D4FF0020804F00F02241103EBB6
:10A09800C203DDE90A01D3E90023FEF70DFA002324
:10A0A800CDE90001002C40F0E580002BD0D1119BB8
:10A0B800DDE90045002B00F04C810022774B20465B
:10A0C8002946FEF7D5FC002800F04381B9F1000FBE
:10A0D80000F03F81049B002B00F3E480DDE90A34A3
:10A0E800CDE90034159B002B02DB0E2F40F3428292
:10A0F8000D9A002A40F06782099C0025DDF8188037
:10A10800B8F1000F0DD0079B002B0ADD4345069AD6
:10A11800A8BF4346D21AA8EB03080692079AD31A97
:10A128000793099B0BB30D9B002B00F0A682002C14
:10A1380000F0A1822946224658460DF09FF9029A5E
:10A148000146054658460DF0EFF80299064658466E
:10A158000DF06AF8099B1B1B099300F09182099A7C
:10A16800314658460DF08AF90290012158460DF003
:10A17800C5F8109B0446002B00F084821A4601465D
:10A1880058460DF07BF9089B0446012B03DC009B25
:10A19800002B00F07C820026236904EB83031869F6
:10A1A80011F039FDC0F120001096079B184410F0FB
:10A1B8001F0000F09182C0F12003042B40F381823C
:10A1C800C0F11C00069B034480440693079B03448C
:10A1D8000793069B002B05DD1A46029958460DF099
:10A1E800A7F90290079B002B05DD21461A46584621
:10A1F8000DF09EF90446119B002B00F07682214653
:10A20800029811F057FD002880F26F8200230A227D
:10A21800029958460DF02AF80D9B7E1E0290002BDD
:10A2280000F05C82002329460A2258460DF01EF8E9
:10A23800049B0546002B03DC089B022B00F35E827F
:10A24800B8F1000F05DD2946424658460DF070F971
:10A258000546109B002B00F0D082696858460CF028
:10A26800A3FF0746002840F07F820D4B024640F2CC
:10A27800EA2158E5E20706D508F10108D5E90023E7
:10A28800FEF71AF90123641008350BE74FF00208AE
:10A298000DE700BF20C30200F8C202000000F03F33
:10A2A8000BEE020020460022AC4B2946FEF704F9CB
:10A2B8007E1E08F10108049CCDE900014046FEF726
:10A2C80091F8DDE90023FEF7F7F8A54B0022FDF72A
:10A2D8003DFFA1F15073CDE90E010F93002C3BD146
:10A2E8000022A04BDDE90001FDF72EFF02460B46D8
:10A2F800CDE90023DDE90E23FEF7D8FB002840F066
:10A308005781DDE90E2101F10043DDE90001FEF787
:10A31800AFFB00283FF4E2AE002425460C9BDDF895
:10A328000CA0DE434FF00008214658460CF07CFF95
:10A33800002D00F0A980B8F1000F05D0A84503D082
:10A34800414658460CF070FF294658460CF06CFF01
:10A358009AE03E464C46B1E7834B03EBC40353E90E
:10A368000201039B1C440D9B002B4AD002460B465E
:10A3780000207E49FEF7CAF9DDE90E23FDF7E4FE69
:10A38800DDF80CA0CDE90E01DDE90001FEF7AEFB1A
:10A398000546FEF727F8024630350B46DDE9000191
:10A3A800FDF7D2FE0AF8015B02460B46CDE9000133
:10A3B800DDE90E01FEF77AFB002865D100206C4923
:10A3C800DDE90023FDF7C0FE02460B46DDE90E017C
:10A3D800FEF76CFB002840F00D81A24500F0EA80F2
:10A3E80000225E4BDDE90E01FEF766F800225B4BAA
:10A3F800CDE90E01DDE90001FEF75EF8CDE90001C7
:10A40800C2E7DDE90E23FEF757F8A046DDF80CA0F9
:10A41800CDE90E01DDE90001FEF768FB0546FDF711
:10A42800E1FF024630350B46DDE90001FDF78CFE01
:10A438000AF8015B02460B46A245CDE900234FF01E
:10A44800000223D1494BDDE90E01FDF77FFE0246EC
:10A458000B46DDE90001FEF729FB002840F0CA8021
:10A4680000204249DDE90E23FDF76EFE02460B4649
:10A47800DDE90001FEF7FCFA70B1C24608F1FF38C9
:10A488001AF8013C302BF8D0374655E0334BFEF72D
:10A4980013F8CDE90001BDE7DDE90A34CDE9003460
:10A4A800159B002BFFF628AE0E2F3FF725AE2E4B3F
:10A4B80003EBC70393ED007B0C9B002B8DED047B16
:10A4C80002DAB9F1000F64D0DDF80CA0DDE900452F
:10A4D800DDE9042320462946FEF718F9FEF706FBB6
:10A4E8000646FDF77FFFDDE90423FDF7E5FF024699
:10A4F800204606F130040B462946FDF725FE0AF8EA
:10A50800014B039C02460B46AAEB0404A14540F00C
:10A518008280FDF71BFE04460D46DDE90423FEF7A5
:10A52800C5FA002865D120462946DDE90423FEF74F
:10A5380095FA08B1F3075CD4029958460CF074FEFA
:10A54800002301378AF80030129B1F60219B002BE3
:10A558003FF421ACC3F800A01DE400BF0000244074
:10A5680000001C400000144020C302000000E03F2F
:10A578000000F03FA24B03EBC70393ED007B0C9B5D
:10A58800002B8DED047B9FDAB9F1000F9CDC7FF482
:10A59800C3AE00229B4BDDE90401FDF78DFFDDE929
:10A5A8000023FEF779FA044600287FF4B5AE3E464C
:10A5B8002546B4E0DDE90A34CDE90034159B002BCB
:10A5C80001DB0E2FD6DD089A012A36DC139A82B3F6
:10A5D80003F23343099CDDF81880069A0121584696
:10A5E8001A440692079A1A4407920CF087FE054609
:10A5F80086E53E4653469A4613F8012D392A06D178
:10A60800039A9A42F7D13022039901360A701A78D0
:10A6180001321A7038E700227B4BFDF74DFF00220C
:10A62800002304460D46FEF719FA00283FF450AF00
:10A6380082E7149BC3F13603CCE709F1FF34099B89
:10A64800A34208DBB9F1000FA3EB04040EDBDDF82D
:10A6580018804B46C1E7099B109AE31A0994DDF864
:10A66800188000241A444B461092B6E7069BA3EBC9
:10A6780009080023B1E7029E71E5099A029970E57D
:10A68800029672E5089B012B17DC009BABB9019B76
:10A69800C3F313039BB9019B23F00046360D36051F
:10A6A80036B1069B012601330693079B01330793B6
:10A6B800109B002B7FF470AD1096012075E50026E5
:10A6C800F6E73FF486AD1C33069A1A44984406927E
:10A6D800079A1A4407927CE50346F4E7049B002B8B
:10A6E8002BDC089B022B09DC27E0B9F1000F1DDCED
:10A6F800089B022B1ADD3E46CDF81090049B002BD8
:10A708007FF40CAE2146052258460CF0AFFD0146F9
:10A718000446029811F0CEFA00287FF7FFADDDF865
:10A728000CA0312301360AF8013BFBE50D9B3E46A0
:10A73800CDF81090002B7FF483AD039F214602983B
:10A7480011F0E5F8039B00F13009049A07F8019B22
:10A75800FB1A9A4240F3CB8000230A2202995846FA
:10A768000CF084FD0290E9E72A6905F10C010C3030
:10A778000232920010F0B0FE0122394658460CF021
:10A78800D7FE039BA846054603F1010ADDE903232A
:10A7980013440793009B03F0010309930AF1FF3365
:10A7A80021460298049311F0B2F84146069000F150
:10A7B8003009029811F07EFA2A4621460746584683
:10A7C8000CF022FFC268014602B358460CF02CFD7B
:10A7D800002F3ADA0122029958460CF0A9FE2146C8
:10A7E800029011F067FA002803DC29D119F0010F53
:10A7F80026D0B9F1390F1DD132E02846C1E700BF94
:10A8080020C3020000001440000024400A9002986F
:10A8180011F050FA0A990C9058460CF005FD0C9A64
:10A828005ABB089B53B9099B43B9B9F1390F17D0E3
:10A83800002F05DD069B03F1310901E0002F2ADA1C
:10A84800DDF810A00AF8019B6EE5089B3B4304D194
:10A85800009B03F00103002BBCD0B9F1390F36D1AE
:10A86800049F392307F8013BBA46013F1AF8013C17
:10A87800392B5AD001333B7056E5002F06DB089B75
:10A888003B4306D1009B03F0010313B9002AA1DC66
:10A89800D6E7002AE1DC079B57460AF8019C534596
:10A8A8002ED000230A22029958460CF0DFFCA84556
:10A8B80002904FF000034FF00A02414658460BD170
:10A8C8000CF0D4FC804605460AF1010A66E7DDF87B
:10A8D80010A009F10109B5E70CF0C8FC294680462B
:10A8E80000230A2258460CF0C1FC0546ECE7049BFD
:10A8F8004FF00008002BCCBF1F460127039B1F44C5
:10A908000122029958460CF013FE2146029011F0DC
:10A91800D1F90028A8DC02D119F0010FA4D1BA4658
:10A9280017F8013D302BFAD0FEE4039BBB429BD1C4
:10A938003123039A01361370F6E4219B002B7FF430
:10A9480025AA014BFFF744BA73ED020001287FB531
:10A95800024604D003280ED007B05DF804FBE821B6
:10A96800154809F059F90028F6D1144807B05DF8E0
:10A9780004EB0AF09FB9532010F07BFD03460590C5
:10A9880040B90F4A0F49CDE90102009001220DF0AC
:10A998007AF8E1E70222532109F03EF918B1059847
:10A9A80010F060FDD8E700220023074805A909F048
:10A9B800EDFF0028F3D1CFE768CE0020BCCD002002
:10A9C8008ACA0200ECC102005CCD00202DE9F043E8
:10A9D8000025454B87B00322284644490293CDE918
:10A9E80000552B460DF04FF803F0D6FA044670B127
:10A9F8003F4B0390CDE9015301222B4628463B49A2
:10AA080000950DF040F8204607B0BDE8F0831F2000
:10AA180005F0B4FA064628B1364BCDE90143009457
:10AA2800234609E0344809F0AFFB0546B0B1334B83
:10AA38000096CDE901633346184601222B490DF0F3
:10AA480022F82F4B01220293002328491846CDE90A
:10AA580000330DF018F84FF0FF34D4E71F2009F049
:10AA6800F3FA044628B1274BCDE9015300952B464C
:10AA7800E2E7012009F042FB48B1234B0222CDE96D
:10AA8800014320462346194900940CF0FCFF01209D
:10AA980009F052FA48B11D4B0222029300231349D0
:10AAA8001846CDE900330CF0EEFF002009F0FAFA61
:10AAB800044628B1164B02930023CDE90033BBE7C7
:10AAC80009F094FA054608B1124BA6E7012009F0EF
:10AAD8005FFA044608B1104BC6E709F0BDF906460F
:10AAE800F0B10E4B99E700BFADCA0200ECC10200FD
:10AAF800C2CA0200F1CA020055A9010019CB02001E
:10AB080011CC02003ACB020057CB02007ECB0200E8
:10AB18009ACB0200BFCB0200DCCB0200FCCB0200C8
:10AB280010F0F6FA4FF47A74A0FB043204FB01210A
:10AB38008F4FDB0B43EA4143C90BC7E900318D4D09
:10AB4800DFF89082DFF890924FF0FF334FF0FF323A
:10AB5800022188480AF04CFFEB6803F4FE13B3F5B2
:10AB6800004F40F0C3802869002200230AF0C6F88D
:10AB78000446002840F0BA8040460BF02BFD4846BA
:10AB88000BF028FDDFF854C22346224621464FF039
:10AB98000C0E6446BCF8520068B19CF85C000131A8
:10ABA80010F0020F1CBF0132D2B2000748BF0133B8
:10ABB800C9B248BFDBB2BEF1010E0CF10C0CE9D1F1
:10ABC8006D480BF007FD94F85030180702D56B4814
:10ABD8000BF072FD94F85030D90602D568480BF096
:10ABE8006BFD94F850305A0702D566480BF064FDA7
:10ABF80065480BF061FD94F85030DB0740F1938015
:10AC080010F086FA4FF47A72A0FB020302FB0131BE
:10AC1800D4E90023C00B40EA4140C90BC7E9000151
:10AC28005A480BF0D7FCD4E9022359480BF0D2FC60
:10AC38002069FDF7E9FB02460B4656480BF0CAFCB3
:10AC48006069FDF7E1FB02460B4653480BF0C2FC76
:10AC5800E069FDF7D9FB02460B4650480BF0BAFCF9
:10AC6800206AFDF7D1FB02460B464D480BF0B2FCBB
:10AC7800E06AFDF7C9FB02460B464A480BF0AAFCFE
:10AC880094F8373094F83620A18E47480BF0A2FC90
:10AC9800A38F4648009394F83A3094F8392094F8F2
:10ACA80038100BF097FC206CFDF7AEFB02460B4604
:10ACB8003F480BF08FFC606CFDF7A6FB02460B4685
:10ACC8003C480BF087FCA06CFDF79EFB02460B4648
:10ACD80039480BF07FFCE06CFDF796FB02460B460B
:10ACE80036480BF077FC36480BF0E6FC2B6A03F489
:10ACF800FE13B3F5802F0DD1686A0022002305A941
:10AD080009F09AFE30B905992E480BF063FC0598B6
:10AD180010F0A8FBEB686FF39433EB602B6A6FF3CA
:10AD280094332B6210E710F0F3F94FF47A72A0FB1A
:10AD3800020302FB0131C30B43EA4143D7E9000296
:10AD4800C90B181A61EB020100234FF47A72FDF760
:10AD580015FE01461C480BF03DFC1C4A731CDEB274
:10AD680003F00303D15C1A480BF034FCBBE700BFC7
:10AD780060CE002080C5002041CC020069CC0200D2
:10AD880087CC0200A6CC0200D0CC0200F4CC020092
:10AD98000BCD020022CD02003BCD020054CD0200B3
:10ADA8006FCD02008ACD0200A5CD0200C5CD0200FC
:10ADB800EACD020001CE020018CE02002FCE02001A
:10ADC80072CE0200C6D9020046CE020082CE020030
:10ADD80062CE020035CC02003CCC020068CE0020D6
:10ADE8002DE9F04F91B0009302F004030293C2F3EF
:10ADF800C2030133840705460E46DDF868900392C6
:10AE0800059340F0BB81041D30B1072909D86FF0C4
:10AE18001B0011B0BDE8F08F01F00706341DC6F124
:10AE28000806009B4FF000084FF0040A591E4FF027
:10AE3800FF3347460193C3465346CDF810800DB102
:10AE4800009820600598002800F3E8809848009A48
:10AE5800824203D397488242C0F0E080039AA4EB71
:10AE6800050E92074FEA9E0000F103810F2F00F2B2
:10AE7800B180002D00F0058107F140020DEB020CB6
:10AE8800019A0CF8200C0CF8102C0498013004904E
:10AE9800E7E07A285DD84B280ED8472859D82928C2
:10AEA8002DD8252852D054D820287AD02338D0F14C
:10AEB800000B4BEB000B74E04C382E2849D8DFE828
:10AEC80000F07048484848484848484848484B486F
:10AED8004848484848484859484B4B595959704B75
:10AEE8006D487048184B184848827F4B48484B4873
:10AEF8007F0000204FF0000B4FF0040A38E00122D9
:10AF08002A38C0B202FA00F010EA0E0F49D110F048
:10AF1800625C2FD110EA020B43D06046013C5444D6
:10AF2800B4FBFAF40AFB04F4002D61D0A3EB050C82
:10AF3800A444B4453FF66BAF002868D1042B47D131
:10AF480059F8043B2360042304342AE0019A013AA7
:10AF580001924FF0000B24E011F8010C6C2834D159
:10AF6800002011F8023C83466C2BC5D14FF0080A2B
:10AF78005346D3E709F1070929F00709073424F0F4
:10AF88000704F9E802AB35B106982044B0423FF611
:10AF98003EAFC4E900AB4FF0000B08344FF0080A8D
:10AFA800534611F8010F002878D0BBF1000F7FF449
:10AFB80070AF2528F5D14FF0010B019B01330193A8
:10AFC8004FF0040AECE7584694E700208346A5E7CB
:10AFD800082B02D06FF015001BE709F1070929F0CB
:10AFE8000709B9EC027B84ED007B08230834D8E715
:10AFF80068B9042B02D109F10409A4E7082BE9D1A7
:10B0080009F1070929F0070909F10809EDE7059889
:10B018000138059059F8040B009010E7039A90073F
:10B0280020D54FF0010CA4EB050E4FEA9E00BEF5AB
:10B03800007FCFD20F2FCDD8F5B107F140020DEB2D
:10B04800020E019AC0B20EF8200C0EF8102CBCF1BA
:10B05800000F3FF41AAF60F07F000EF8200C08F1E3
:10B0680001080137C5F108024FF6DA7E043406926A
:10B0780097E74FF0000CDAE7BCF1000F01D001367A
:10B08800EFE7029A0236002AEBD10098CDE90631A3
:10B09800FDF7ACFEDDE906310644E2E7631BB3F5D4
:10B0A800806F97D245B9A6F10804E018B1E600BF51
:10B0B80064BE0200FCEE0200029A9B0828602B7016
:10B0C8009DF81030C2B1EB7085F80280B8F1000F1E
:10B0D80005D0002208A8C5F1010C97420ED14FF007
:10B0E800000AC5F101030DF1200901930DF1300BA0
:10B0F800574512D1601B8CE66B70E5E710F8013BF1
:10B10800190608D504EB0C0EB64503F07F033FF68D
:10B118007EAE04F8013B0132DFE7B8F1000F03D03F
:10B1280099F90020002A17DB029BD3B11AF80B20EB
:10B1380004F8012B0022019B98182044B0423FF6E6
:10B1480066AE99F80000009904F8010B20460392B6
:10B1580010F0C2F9039A14440AF1010A09F101092D
:10B16800C6E799F8002055F822300093029B009812
:10B1780045F82230FDF73AFE421CDCE76FF00D007F
:10B1880047E600BF014B1860704700BFA8C5002004
:10B1980030B5002587B0CDE903010446009503A921
:10B1A80005480595FDF72CFEDDE904309842B8BF47
:10B1B800255407B030BD00BF6D8002000F2808B5C8
:10B1C80006D90DF080FA092303604FF0FF3008BD5F
:10B1D8002822044B02FB0033D3E8AF3F002BF0D00A
:10B1E8000020F4E7B4C500202823434330B50D49B7
:10B1F80008330B44D3E8AF2F92B1541ED3E8EF5F66
:10B20800954204D1C3E8EC4FBCF1000FF6D1F1D15F
:10B21800012A05D12823584300230A180B505360EC
:10B2280030BD00BFACC5002070B500254FF0FF331E
:10B238004FF0FF32174809F057FC174BD3E8AF2FF0
:10B248007AB10135102D03F12803F7D10DF03BFA3F
:10B2580017234FF0FF3503600E480CF057FF2846C0
:10B2680070BD28246C43D3E8EF0F0130C3E8E10F29
:10B278000029F8D1094E331932515A6004F10C00F3
:10B2880030440FF033FD04F1200030440FF0FFFD8F
:10B29800E2E700BFE4CC0020B4C50020ACC5002024
:10B2A80010B40446104628225443094B1A19195160
:10B2B800506048B1C2683AB10C34234440F20512D8
:10B2C8005DF8044B0CF013BF5DF8044B704700BFEA
:10B2D800ACC500202DE9F04104460F469046FFF723
:10B2E8006DFF00281ADB28235C430E4E04F10C0581
:10B2F80035444FF0FF324FF0FF33284609F0F4FB96
:10B3080033195B683059424639461B6898470446EA
:10B3180028460CF0FBFE2046BDE8F0814FF0FF34D4
:10B32800F9E700BFACC500202DE9F04104460F46FF
:10B338009046FFF743FF00281ADB28235C430E4E94
:10B3480004F10C0535444FF0FF324FF0FF33284627
:10B3580009F0CAFB33195B683059424639465B68C5
:10B368009847044628460CF0D1FE2046BDE8F081F7
:10B378004FF0FF34F9E700BFACC50020F8B505462B
:10B38800FFF71CFF00281ADB28246C430D4F04F13B
:10B398000C063E444FF0FF324FF0FF33304609F0C1
:10B3A800A3FB3B195B6838599B68984704463046AD
:10B3B8000CF0ACFE2846FFF717FF2046F8BD4FF00B
:10B3C800FF34FAE7ACC5002073B504460D461646AF
:10B3D800FFF7F4FE00280EDB282303FB04F00749DF
:10B3E80000960C182B46095840F2011260680CF0C0
:10B3F8007EFE02B070BD4FF0FF30FAE7ACC500200A
:10B40800F0B5024601680A270020074E0B461C7853
:10B418000131355D6D0701D41360F0BD07FB0043B2
:10B42800A3F13000F2E700BF34EC02002DE9F84F39
:10B4380015469A46D378224A6F2B12F803B08046F5
:10B448000F460BF0030B29D024D8582B0CBF10261D
:10B458000A26DDF828903246002340463946FDF793
:10B468008DFA092AD4B21ED83034B045E4B277F147
:10B47800000709F8014D01D3D14511D82B789B0657
:10B4880005D5082E15D1AB7843F00803AB704846B4
:10B49800BDE8F88F03F0F703702BD7E70826D8E745
:10B4A80080460F46D7E7BBF1010F0CBF373457343E
:10B4B800DBE7102EEBD1AB7843F01003E6E700BFD3
:10B4C80034EC02002DE9F047058B04462807904626
:10B4D80011D4022905F0070540F0CC8020460CF075
:10B4E8005FFE78B10138218B042811D8DFE800F01D
:10B4F800C2106D85950001290CBF45F0100545F077
:10B508002005258388F31188BFF36F8FBDE8F08786
:10B5180001F0070AAA4500F0A5800027B9463E4673
:10B52800A368002B00F0BC8041F00801218388F358
:10B538001188BFF36F8FA168002900F0BA800D68E9
:10B54800002900F0B680334652462046D1F80480E0
:10B55800C047002D76D02B6829461D46F0E701F03C
:10B5680007035A1F012A1BD8002221F00701062BC6
:10B57800276889B2C4E9002209D13B4603E0628BFF
:10B58800013262831B68002BF9D141F00201204689
:10B5980021830CF005FE00287AD041F0200176E0E6
:10B5A800042B0AD121F0070189B2204621830CF02F
:10B5B800F7FD10B141F020012183218B01F0070A2A
:10B5C800AA454FD00027B946AAE7236921F0070109
:10B5D80041F00601062DD3F8009021832DD1B9F151
:10B5E800000F3FD041F00801218388F31188BFF391
:10B5F8006F8F20463949C84729E021F007012369A0
:10B6080041F0040189B2042DD3F804902183E6D0D7
:10B6180000274FF0040A3E4682E721F0070123691C
:10B6280041F0050189B2052DD3F808902183D6D0C1
:10B6380000274FF0050A3E4672E700274FF0060A3A
:10B648003E466DE72B4687E7B9F1000FD1D1EFF3FE
:10B658001188202383F31288BFF36F8F238B23F085
:10B6680008032383258BEA062ED525F010032383B0
:10B6780005F007056669218B002EBFF670AF002321
:10B688002768C4E9003321F0070141F00101218353
:10B69800218B4FF0000901F0070AAA457FF440AF5B
:10B6A800002F9CD041F00801218388F31188BFF353
:10B6B8006F8F002FC8D03D68394633465246204622
:10B6C8000CF09AFD2F46F4E7AB067FF51BAF25F08B
:10B6D8002003238305F0070500E700BF2D82020041
:10B6E8002DE9F84F81462F480F460CF045FE0646D7
:10B6F80070B92D4C0546A0464FF0010BDFF8ACA001
:10B70800544507D3B9F1000F02D04FF0010AE5B94B
:10B71800BDE8F88F237B6BB12368DB680BB120464B
:10B72800984723681B6943B963680422204619684F
:10B7380000F0C4F801361034E2E7204698470028A4
:10B74800F2D00BFA06F31D43F4E7A94695FAA5F4DF
:10B75800B4FA84F40AFA04F3260108EB04146FEA35
:10B76800030B25EA0305237B63B158F806301B69F0
:10B7780093B94644736804222046196809EA0B09FC
:10B7880000F09CF8002DE1D127B14FF4A4700021FE
:10B7980009F018FF4D46BAE7204698470028F1D12E
:10B7A800E7E700BFD8D9002084C2020094C2020093
:10B7B800014B53F820007047F8C3020008B5034650
:10B7C80008462BB1044A136000F06CFA002008BD4B
:10B7D8006FF01500FBE700BF2CC800200023054AC6
:10B7E8004FF400411370044A04481360044A13607C
:10B7F800FFF7E4BFEEE20020D0D900207D830200ED
:10B80800D4D9002070B50B4D297841B90120FFF734
:10B8180067FF094C094EB44202D301232B7070BD57
:10B8280063685B791BB1236820469B68984710348E
:10B83800F1E700BFEEE2002084C2020094C20200D9
:10B8480010B5044606480CF097FD3CB1054BD3E80B
:10B85800EF1F0139C3E8E21F002AF8D110BD00BF6D
:10B86800D0D90020D4D9002070B50A4B05461B68F2
:10B878009847094C094EA860B44200D370BD63686C
:10B888005B7923B12368294620461B689847103402
:10B89800F2E700BF2CC8002084C2020094C2020054
:10B8A800044A054B9B1AB1EBD30F34BF52F8310051
:10B8B80000207047C4C1020084C20200084B10B4C3
:10B8C800C31A44681B110133237143689A7101221A
:10B8D8004368196043685A715DF8044B0CF06ABDFF
:10B8E80084C202002DE9F04F85B002AF0446D7E9C3
:10B8F8000EA90E46934698463D6BBAF1000F33D019
:10B90800C7F80490CDF800901021534600207A6BB8
:10B91800FFF766FA0146154A04F007040BF0070B17
:10B92800E40044EA8B1402EA4122144344EA055431
:10B9380017350D4425F00705ADEB050D02ADBAF13D
:10B94800000F07D0CDF8009053467A6B05F1100030
:10B95800FFF746FA43462246314628460CF02DFDAD
:10B968000C37BD46BDE8F08F5146D4E700FE0F0006
:10B97800406820B1034BC01A40F3CF0070474FF026
:10B98800FF307047C4C102000EB403B503AB53F8CF
:10B99800042B0146044801930CF052FD02B05DF8F7
:10B9A80004EB03B0704700BFF5830200CA0605D454
:10B9B8008B064CBF02490349FFF7E6BF704700BF3B
:10B9C80014E8020013E802002DE9F04F8BB09A4604
:10B9D800169B9DF854B00693179B04460593189B35
:10B9E8000D469046199E0493BBF1000F00F09E800F
:10B9F80006F00103089306F00803079306F4807322
:10BA080009930CF0D8FC06F00209024600283BD046
:10BA180020468F49FFF7B8FF0746B9F1000F08D055
:10BA280016F0440F32D12A4620468A49FFF7ACFF68
:10BA38000744089B53B1884B204653F82B20874B6B
:10BA48008749002A08BF1A46FFF79EFF099B002B6B
:10BA580048D0079B002B62D1B8F1000F64D0424652
:10BA680020468049FFF790FF0546069B3D44002B82
:10BA78006BD1049B002B71D1F30700F1E3803146B1
:10BA88002046FFF793FFD7E00746C6E7764B1868CE
:10BA98000028CDD0754B4FF47A791B684FF461615B
:10BAA800B5FBF3F5B5FBF0F300FB135509FB05F502
:10BAB800B3FBF1F2B5FBF0FE4FF03C0C01FB123189
:10BAC80000FB1E55B1FBFCF309FB05F5B5FBF0F5D2
:10BAD8000CFB131120460091CDE901E56449FFF7FD
:10BAE80053FFA5E7079BEBB1624B204653F82B2089
:10BAF8006149FFF749FF0546B8F1000F05D04246F6
:10BB080020465849FFF740FF0544BAF1000FACD072
:10BB1800524620465949FFF737FF0544A5E74FF03D
:10BB2800000AE1E7079DE7E745469EE7BAF1010FFE
:10BB3800069B06D1002B65D1049B002B7CD00025E9
:10BB48000CE0002BF8D04E485DE04E48069B22469C
:10BB58004D490CF054FA049B002B69D0DFF83C8166
:10BB6800DFF83C91049F3146102F204628BF10274C
:10BB78004FF0000AFFF71AFF554546DC059B49467A
:10BB880020461A78FFF700FF4FF0010A1AF0070F56
:10BB980003D141462046FFF7F7FE57453CD9059BA0
:10BBA8004946204613F80A20FFF7EEFE0AF1010A7B
:10BBB800BAF1100FEAD14FF0000A20463349FFF7D7
:10BBC800E3FE5246059B20469A5C314B995C11F086
:10BBD800970F08BF2E222F49FFF7D6FE0AF1010A58
:10BBE800BAF1100F1DD01AF0070F03D141462046B5
:10BBF800FFF7CAFE57455246E4D841462046FFF7AC
:10BC0800C3FEEBE71F485D46A0E741462046FFF725
:10BC1800BBFE0AF1010AAFE720461F49FFF7B4FE51
:10BC2800C4E7059B3B440593049BDB1B049399D114
:10BC3800BBF1000F7FF420AF20460BB0BDE8F04FFA
:10BC48000CF005BC2046054A0549FFF79DFE16E79E
:10BC5800BBCE0200BFCE020008C40200B6CE02006E
:10BC6800C6D90200E4CE0200E0D90020DCD90020C9
:10BC7800C8CE02001CC40200E8CE0200EECE0200CC
:10BC880011840200F583020049840200FDCE0200FF
:10BC980034EC02007FDD0200F9CE0200FBCE020088
:10BCA800F3CE020000210123064A904206D8064A34
:10BCB80001B901231360054B186070470121400842
:10BCC8005B00F2E740420F00DCD90020E0D90020F9
:10BCD800F8B50D460446064F4618B44201D1284629
:10BCE800F8BD14F8011BBB6801485B689847F4E786
:10BCF80098BF0200014B03600020704764C4020033
:10BD080008B504480CF0C1F9BDE8084002480CF039
:10BD1800BCB900BF39CF02006ECF02002DE9F04751
:10BD280080460D468CB0002966D000248B6801221D
:10BD380005934B68204604930B683B4903933B4BA0
:10BD4800CDE90044029323460CF0E6FB6B6901221F
:10BD580005932B6920460493EB6833490393344BCE
:10BD68000094CDE9014323460CF0D6FBEB69012290
:10BD78000393304B2046CDE901432B4923460094D9
:10BD88000CF0CAFB2F462646DFF8B8A0DFF89890DB
:10BD9800FB6A01220A93E31C0993BB6A494608938C
:10BDA800A31C07937B6A10370693631C05933B69B2
:10BDB800CDE9016ACDE9034300230096184604340F
:10BDC8000CF0AAFB102CE3D12B6E012203931A4B23
:10BDD8001549CDE901630023009618460CF09CFB39
:10BDE800AB6901220393154B0F49CDE90163002389
:10BDF800009618460CF090FBB8F1010F0DD1EFF347
:10BE08000583103B03930E4B4246029300230649D9
:10BE18001846CDE900330CF07FFB294640460CB0AC
:10BE2800BDE8F04708F000BC34C202009CCF020015
:10BE3800CBCF0200FACF02004CD002005BD0020048
:10BE480089D0020009D0020030BFFFF7FDBF00BF54
:10BE5800074A936893F90E10002907DB9269934209
:10BE68001FBF044A536843F080535360704700BFB4
:10BE78009CE2002000ED00E0F0B50024414B85B0C5
:10BE88000293074623460E4601222046CDE9004488
:10BE98003D490CF05CFB3D4B9B6ADD066FD53C4B86
:10BEA8002046CDE9014301222346374900940CF08E
:10BEB8004EFB1120354B9B6A1C070AD5354B0122D6
:10BEC8000293002330491846CDE900330CF03FFBBC
:10BED80012202E4DAB6A99071FD500242E4B012244
:10BEE800029320462346CDE9004427490CF02FFB56
:10BEF8006B6BAA6A12060FD50393284B0122CDE972
:10BF0800014320462346204900940CF020FB1FB132
:10BF1800AB6A23F08003AB6213201C4B9B6ADD07DE
:10BF28000AD51F4B01220293002317491846CDE971
:10BF380000330CF00CFB1420144B9B6A9C060AD5AA
:10BF4800184B0122029300230F491846CDE900330C
:10BF58000CF0FDFA15200D4B9A6AD10658BF9A6A63
:10BF68009A6A920642BF5A6A22F400525A629A6A40
:10BF780042F0FF029A620023337005B0F0BD102032
:10BF880098E700BF9CD0020034C2020000ED00E038
:10BF9800B2D00200E5D00200F8D0020010D10200B1
:10BFA80026D1020045D10200F0B50024434B85B0EC
:10BFB8000293074623460E4601222046CDE9004457
:10BFC8003F490CF0C4FA3F4B9B6ADB0465D53E4BF6
:10BFD8002046CDE9014301222346394900940CF05B
:10BFE800B6FA1720374B9B6A1D050AD5374B012235
:10BFF8000293002332491846CDE900330CF0A7FA22
:10C008001820304DAB6A9C051FD50024304B012207
:10C0180020460293CDE90044234629490CF097FABB
:10C02800AB6BAA6A10040FD503932A4B0122CDE902
:10C03800014320462346224900940CF088FA1FB198
:10C04800AB6A23F40043AB6219201E4B9B6A590567
:10C058000AD5214B01220293002319491846CDE93C
:10C0680000330CF074FA1A20164A936A13F480739A
:10C0780015D01A4B01220293002311491846CDE925
:10C0880000330CF064FA1B200E4A936A43F47F4392
:10C0980093620023337005B0F0BD1620A2E7926AC0
:10C0A8009204F1D50E4A1846CDE90132044901221D
:10C0B80000930CF04CFA1C20E6E700BF74D1020094
:10C0C80034C2020000ED00E08AD10200E5D002008F
:10C0D8009BD10200B4D10200C9D10200E4D1020010
:10C0E80045D102001FB500243E4B3F49029301226F
:10C0F80023462046CDE900440CF029FA3B4B9B6AC5
:10C1080099016DD53A4B2046CDE9014301222346DA
:10C11800354900940CF01BFA1E20344B9B6ADA0157
:10C128000AD5344B0122029300232F491846CDE942
:10C1380000330CF00CFA1F202C4B9B6ADB020AD54B
:10C148002D4B01220293002327491846CDE90033DD
:10C158000CF0FDF90220254B9B6A1C030AD5274BDE
:10C1680001220293002320491846CDE900330CF040
:10C17800EEF921201D4B9B6A59030AD5204B012259
:10C188000293002318491846CDE900330CF0DFF973
:10C198002220164B9B6A9A030AD51A4B0122029356
:10C1A800002311491846CDE900330CF0D0F92320BB
:10C1B8000E4B9B6ADB030AD5134B01220293002323
:10C1C80009491846CDE900330CF0C1F92420074A83
:10C1D800936A6FEA03436FEA1343936204B010BD96
:10C1E8001D209AE7FCD1020034C2020000ED00E0F5
:10C1F80014D2020027D2020041D202006BD2020000
:10C2080089D20200AED20200C8D202002DE9F04362
:10C21800754B0546D3F80480894614460026A3B01A
:10C22800C8F3080786F31188BFF36F8F02F07F43C6
:10C23800B3F17F4F25D112F0010322D1510603D467
:10C2480022070DD401260DE0684A1846CDE90132CF
:10C258006749012200930CF07AF914F0040400D025
:10C268004D4600264FF00009FB1E8DF81F90092B44
:10C2780000F2A080DFE803F0079498919E9E9E9EAE
:10C288009E9C3546EEE75B4B0122CDE901930023E6
:10C2980057491846544FCDF800900CF058F98DF8CE
:10C2A8001F90FC6A14F0020405D0534BCDE90193AA
:10C2B800CDF8009006E0FB6A002B0BDA4F4B009498
:10C2C800CDE9014300230122184649490CF03FF902
:10C2D800002430E0FB6A5B00FAD5494B0122CDE926
:10C2E800014320462346424900940CF030F97B690B
:10C2F800AA6943F480737B61BFF34F8FBFF36F8FDD
:10C308007B6932F8022C23F480737B61BFF34F8F73
:10C31800BFF36F8F4DF602739A4226D12B682046E1
:10C328000393384B0094CDE9014301222346304959
:10C338000CF00DF92C689DF81F309BB9682229462E
:10C3480008A80FF0C9F80F9B002E47D0C3F30802C6
:10C3580022B96FEA53236FEA43230F93204608A9B3
:10C36800FFF7DCFC23B0BDE8F083BB6ADBB233B176
:10C3780001200DF11F01FFF77FFD0446DBE7BB6AD3
:10C3880013F47F4F05D001200DF11F01FFF70CFEBC
:10C39800F3E7BB6AB3F5803F9AD3FFF7A3FEECE758
:10C3A80000200DF11F01E6E700200DF11F01EDE768
:10C3B800154B7BE7154A18F4F87F154B18BF134641
:10C3C800103FCDE90337134B01220293002308499C
:10C3D8001846CDE900330CF0BAF879E723F4FF7377
:10C3E80023F00103B9E700BF00ED00E021D302000C
:10C3F80034C2020044D302005BD302007CD30200A3
:10C408008AD30200A9D30200C5D3020008D30200D0
:10C41800F3D20200E9D30200044B5A6942F0100239
:10C428005A615A6942F480625A61704700ED00E02F
:10C43800EFF30880EFF3098101B57246FFF7E6FED6
:10C4480001BD00BF002080F31488BFF36F8F002068
:10C4580080F30A8880F30B8805F074F800200E49F1
:10C468000860BFF34F8F0D4880F3088800F02CF860
:10C47800202080F311880A484FF40061401880F3A7
:10C488000988EFF314800221084380F31488BFF36E
:10C498006F8F00F023F9000094ED00E0D01A01201E
:10C4A80090010120002318460649D1F89020C2F3D4
:10C4B8000722934200DB7047C1F89830C1F8A0000A
:10C4C8000133F6E700ED00E010B572B6002484F3FE
:10C4D8001388FFF7E7FF23464FF0FF300C4A03F1BC
:10C4E80020010133102B42F82100F8D100234FF02E
:10C4F800FF30074A03F160010133102B42F8210095
:10C50800F8D162B6BFF34F8FBFF36F8F10BD00BF76
:10C5180000E100E0084B9B6883420BD1EFF30583F1
:10C5280043B1064B5A6842F080525A605A6A22F464
:10C5380000425A620EF08FBD9CE2002000ED00E040
:10C548006FF00A01084A9368D967084998674B68E9
:10C5580043F080534B60002383F31188BFF36F8F40
:10C568009368D86F704700BF9CE2002000ED00E0A0
:10C578000E4A936883F8C100EFF31183202383F3F5
:10C588001288BFF36F8F4FF00061936920F0FF00AE
:10C598009360074A5160002193F8C12010439A6FB5
:10C5A800996782F31188BFF36F8F70479CE2002070
:10C5B80000ED00E01D498A6882F8C1E04FF03000C4
:10C5C8001044EFF3098C80E8F01F1EF0100F03D120
:10C5D80002F1800080EC108A74467046FFF7C8FFAD
:10C5E800A64612498A6886461EF0100F03D000231B
:10C5F800E1EE103A03E002F1800090EC108AEFF3CC
:10C60800148323F0040383F31488BFF36F8F02F1BC
:10C61800300090E8F01F8CF3098802F1000004B59F
:10C628000BF0D7FFBDE80440704700009CE20020F3
:10C638001EF0040F0CBFEFF30880EFF30980816947
:10C6480011F8021C0229FFD001B50BF075FF01BDDE
:10C6580040B2002807DB01234109034A00F01F000C
:10C66800834042F82130704700E100E040B20028E2
:10C678000CDB01220649430900F01F0082402033E9
:10C6880041F82320BFF34F8FBFF36F8F704700BF70
:10C6980000E100E0054B420953F82220012300F095
:10C6A8001F0003FA00F01040704700BF00E100E0EF
:10C6B80040B2002801F10101ACBF00F16040064B17
:10C6C8004FEA4111C9B2ABBF00F5614000F00F005D
:10C6D80080F800131954704714ED00E0144A08B5A7
:10C6E800144B22F07F029A60BFF34F8FBFF36F8F16
:10C6F800D3F8882022F47002C3F88820D3F8882061
:10C7080042F4A002C3F888204FF04042C3F8342214
:10C71800BFF34F8FBFF36F8F0023E1EE103A08F09D
:10C728005FF809F00BF800F07BF808F099F800BF03
:10C738000080010000ED00E042F8203C009B0D491C
:10C7480042F81C3C019B21F0010142F8183C029B75
:10C7580042F8081C42F8143C4FF0807342F8043C3D
:10C76800002383674FF43C43203A0265C0F8C03089
:10C77800704700BFC7800200104B9B6883421AD1E4
:10C78800EFF30580B8B9EFF31181202282F3128804
:10C79800BFF36F8F1A7B22F002021A73EFF3148330
:10C7A80023F0040383F31488BFF36F8F81F3118898
:10C7B800BFF36F8F70476FF0150070479CE2002041
:10C7C8000E4615460023E1EE103AEFF3148323F0EA
:10C7D800040383F31488BFF36F8FBFF36F8F0A4B83
:10C7E8009860836E83F30B882C4686F309884FF094
:10C7F8000000064B984720464FF000014FF000021A
:10C808004FF00003024C20479CE20020E385020021
:10C81800C78002001022014B1A61704700ED00E04A
:10C82800002320210348C2180133412B82F800134A
:10C83800F9D1704700E100E008B5EFF30583064A37
:10C84800103B02EBC30152F8330049688847BDE842
:10C858000840FFF7FDBA00BFACBF02001FB5094C86
:10C86800094A23460121094800F020F900230393CF
:10C87800074B0121E41A01A80193029400F020F962
:10C8880004B010BD0000042080C5002064C402006C
:10C8980060CE002010B50C7A0B6804F01F0223F05C
:10C8A8001F031A43CB68640923F01F03054943EAB1
:10C8B800440343F00103C1F89800C1F89C20C1F873
:10C8C800A03010BD00ED00E01FB50E4B0446D3F8B4
:10C8D8009030C3F30723013B98420FD90A4B0390CA
:10C8E8000293002301221846CDE9003307490BF0D3
:10C8F800A0FE6FF01504204604B010BDFFF7CAFF74
:10C90800F9E700BF00ED00E000D4020014C2020005
:10C918002DE9F04F8946144606464FF00008544D5D
:10C9280089B0C8452DDAD6F804A0BAF1000F4AD06C
:10C93800BAF11F0F17D91AF01F0F14D1D6F800B08B
:10C948001BF01F0F0FD158460BF06AFE07460AEB83
:10C958000B0001380BF064FE874216D06FF0150704
:10C96800444B039702E0444BCDF80C80029300231C
:10C9780001221846CDE9003340490BF05AFE6FF00A
:10C988001504204609B0BDE8F08F17F1160FE7D05F
:10C99800BC42E5DDC5F89870D5F89C10C5F89870CC
:10C9A800D5F8A03021F01F0143F01F0BD6E9003263
:10C9B8001A44994202F1FF3A1DD1D34507D13146B5
:10C9C800F8B20BF046FE08F101080C36A9E731462B
:10C9D800C5F89870D5F89C3022F01F0203F01F03A9
:10C9E8001343C5F89C30E0B20BF033FE10F1160F7C
:10C9F800C5D0441CE7E7C5F89870D5F8A020013BDE
:10CA080023F01F0302F01F021343D3453146E0B25F
:10CA1800C5F8A030E8D00BF01CFE10F1160FAED010
:10CA2800C5F89870D5F89C209DF818300BF1FF3B9D
:10CA380062F304038DF81830D5F8A0309DF818205B
:10CA48005B0863F347128DF81820D6E900321344C7
:10CA5800049323F01F035B44A3EB0A03013023F084
:10CA68001F0304A9C0B20793FFF72EFFBEE700BF5C
:10CA780000ED00E049D4020026D4020014C20200EE
:10CA88000522044BC3F89420BFF34F8FBFF36F8F79
:10CA9800704700BF00ED00E0BFF35F8F0022024B3C
:10CAA800C3F89420704700BF00ED00E010B5034CB8
:10CAB8002278FFF72DFF207010BD00BFF0E20020A4
:10CAC8002DE9F74F294D8A4606464FF00008AB4638
:10CAD800274FD0451BDAD6F80490B9F1000F3FD0A4
:10CAE8003168084601910BF09BFD0199044609EB5A
:10CAF800010001380BF094FD84424FF014021D4BE5
:10CB080008D002FB08F36FF015024BF8032003B0BE
:10CB1800BDE8F08F14F1160F2C60F8D01978A142F7
:10CB2800F5DD02FB08B0C7F89840C7F89840D7F879
:10CB38009C4000F10801007B64F304000871D7F8F9
:10CB4800A0000C79400860F347140C71D7F89C10CA
:10CB580021F01F016960D7F8A01021F01F01296199
:10CB680008F1010814350C36B3E700BF10DA0020CD
:10CB780000ED00E0F0E20020F0B54149414CD1F869
:10CB880090302568C3F307239D4287B075D80020ED
:10CB9800FFF782FF3C4BC1F8C030854216D13B4CB1
:10CBA80001A82570FFF7A6F800250646384FAE42C3
:10CBB80013D1002023783249D1F89020C2F30722FC
:10CBC800934254DBFFF75CFF00202FE0616801EB24
:10CBD8000011FFF75FFE0130DFE70199280101EB43
:10CBE8000513DA683A40B2F5001F21D0B2F5800F7C
:10CBF8002BD0B2F5801F38D15A689B680958013B81
:10CC080022F01F0003440120844623F01F0340EA5A
:10CC18004C10CDE902218DF8100002A92078059367
:10CC2800FFF752FE00281DDA6FF0150007B0F0BDBF
:10CC38005A689B680958013B22F01F0003444FF0D3
:10CC4800020C012023F01F03E1E75A689B6809588A
:10CC5800013B22F01F0003444FF0000C062023F094
:10CC68001F03D4E723780133237001359FE7C1F808
:10CC78009830C1F8A00001339EE74FF0FF30D5E7A8
:10CC880000ED00E070C40200AAFF4400F0E20020BA
:10CC98000000F0FF014B1860704700BF38C8002043
:10CCA800F8B50D46094F461EC0F10104A3199D426F
:10CCB80001DC2846F8BD73780A2B02D10D203B68A9
:10CCC80098473B6816F8010F9847EFE738C80020E7
:10CCD80010B5074C2368C2180648C0F1005101F589
:10CCE80080218A4236BF22604FF0FF30C01810BD45
:10CCF80024DA0020F828012008B505480BF0C5F90A
:10CD0800002383F31188BFF36F8F0423184602DFD3
:10CD18007BD4020038B50025074C20460DF0E6FF0D
:10CD280004F1140001350EF0B2F8052D04F12404C5
:10CD3800F3D1002038BD00BF28DA002038B5002420
:10CD4800054D284601340EF0A2F8052C05F108051A
:10CD5800F7D1002038BD00BFDCDA002038B5002448
:10CD6800054D284601340DF0C1FF052C05F11405C9
:10CD7800F7D1002038BD00BF04DB0020002230B509
:10CD88001546094B09494C68013203F1D000052AC0
:10CD9800C3E93414206003F5807303F8085C486025
:10CDA800F1D1002030BD00BF50CF00203CC800208A
:10CDB8000122024B0020C3F8402570470090034031
:10CDC80020B1034B800143F001031847704700BFAF
:10CDD800F0C2020070B5334B86B004AE93E803008E
:10CDE80086E8030030480DF0A9FE0446002838D133
:10CDF8002E4B0122CDE901032D49034600900BF08B
:10CE080064FC6FF0120303932A4B0122CDE901431E
:10CE180020462346264900940BF057FC264B93E8FE
:10CE2800030086E8030020480DF088FE054640BB55
:10CE38006FF01204214B0122CDE901031C4903467E
:10CE480000900BF042FC1E4B0122CDE9015328460D
:10CE58002B461749039400950BF037FC204606B083
:10CE680070BD30464FF420210BF03EFC154B0322D9
:10CE7800029300230E491846CDE900330BF025FC38
:10CE8800CCE7002430464FF4C0210BF02DFC0E4BAC
:10CE98000322029320462346CDE9004404490BF0BF
:10CEA80014FCDBE7A0C202005CBF0200D2D402007F
:10CEB800C4C10200F7D40200A8C2020035D502009E
:10CEC8005ED5020024D502008FD502002DE9F0417D
:10CED80005460E461746104CDFF84080444507D3F8
:10CEE8000BF0F1FB6A2303604FF0FF30BDE8F081DF
:10CEF8002368AB4200D063B93A4631462846A36856
:10CF0800984730B13A4631462846E368BDE8F041D3
:10CF180018471034E2E700BFB4C10200C4C10200E0
:10CF2800014B1860704700BF68DB00202DE9F04115
:10CF38000D460646E8B1E1B10846FBF757FF082859
:10CF48001AD8104FDFF84080441C474507D32246C3
:10CF58002946301D0EF0C0FA0020BDE8F081B74226
:10CF680005D022462946381D0EF0A6FA38B13C37BE
:10CF7800EBE76FF01500F0E76FF05A00EDE76FF0A0
:10CF88007700EAE7ECCD002028CE0020F0B54FF07E
:10CF9800FF324FF0FF33274885B00BF0EEFB00253A
:10CFA800254C264EB44205D3224805B0BDE8F040D2
:10CFB8000BF001BCC4E90155236825731B689F6801
:10CFC80097B13B6883B104F110000DF08FFE04F1B6
:10CFD80024000DF08BFE3B682046984794F83830C3
:10CFE80023F0030384F83830237903BB2046CDE9C6
:10CFF80001338DF80C300BF059FC40B1104A01A8F0
:10D008001368591C116008210E4A0BF04BF89DF863
:10D01800043043B90C4A01A81368591C116008214F
:10D028000A4A0BF03FF8204601A9FFF77FFF3C347E
:10D03800B8E700BF20CD0020ECCD002028CE00208E
:10D0480070DB0020D4D502006CDB0020DBD50200A9
:10D0580038B5074C074DAC4200D338BD03212046F4
:10D068000BF094FB10B920460BF0EEFB3C34F2E7D2
:10D07800ECCD002028CE0020084B70B5C31A0D4611
:10D0880007499B1004465943402206480BF024FCEC
:10D098002B4601462046BDE87040184788DB002033
:10D0A800B76DDBB648BF0200402373B50B4C009345
:10D0B800041B0B460D460A49A41061430646094A5B
:10D0C80009480BF034FC011E05DA30462B4602B045
:10D0D800BDE87040184702B070BD00BF88DB002073
:10D0E800B76DDBB69F89020048BF020010B5EFF3A9
:10D0F8001184202383F31288BFF36F8F074A1368C4
:10D1080023F00201DB07116002D401200CF019FBA7
:10D1180084F31188BFF36F8F10BD00BFD8DB0020E8
:10D1280070B50022012104460520FFF7C1FA0F4817
:10D1380004F0B0FA0E4B984215D104F0BBFA2669F8
:10D148000C4930460BF07CF800280BDB01253564D0
:10D158002469084904F11C000BF072F8002801DB6F
:10D168000020E56470BD6FF00400FBE789D2010080
:10D178000000AD0B98C402007FB500220123CDE961
:10D18800022304ABCDE90433094A6B46CDF800D03D
:10D19800CDF804D00BF0F8FB002805DB4FF48042F3
:10D1A8000023684607F0AAFD07B05DF804FB00BF3E
:10D1B800BF8902000C22104B014602FB00330020FD
:10D1C80030B4D3E90E529863EFF31180202484F32E
:10D1D8001288BFF36F8F1C6C04F0C00444F0020483
:10D1E8001C6480F31188BFF36F8F1DB12B4630BCD0
:10D1F8000248184730BC704788DB002048BF02004F
:10D2080010B4EFF31182202383F31288BFF36F8FDA
:10D218001848016841F002040460C80708D482F382
:10D228001188BFF36F8F01205DF8044B04F056BAE4
:10D238001149D1F80C04D1F80C14C907EFD5EFF354
:10D24800118083F31288BFF36F8F0C490B6C03F0C6
:10D25800C00343F002030B6480F31188BFF36F8FA0
:10D2680082F31188BFF36F8F00205DF8044BFFF73E
:10D27800A1BF00BFD8DB00200050004088DB0020A1
:10D2880010B1012804D07047034B1B6C5B0701D118
:10D29800FFF790BF704700BF88DB00202DE9F04101
:10D2A800012207463449D1E8EF3FC1E8E02F0028C2
:10D2B800F9D133B9314932484B60CB608A600AF002
:10D2C800D2FF7B1E012B28D8012F06D12D4BD3F876
:10D2D8001C3403F00303022B1FD00DF0DCFD0546C0
:10D2E800E8B9294B1B78D3B102220646254BC3F86F
:10D2F8000823244CDFF89480D4F81824D4F8183480
:10D30800D20315D503F00303022B01D0012F0FD14F
:10D318006DB386F31188BFF36F8FBDE8F081EFF32B
:10D328001186202383F31288BFF36F8F0125E0E76E
:10D33800C5B130460BF065F9D4F81835DBB2012BCE
:10D34800DAD1D4F80421002AD6D00022C4F8042166
:10D35800D4F804210222C4F818252022C8F8802114
:10D36800A360C9E70021212008F02CF9E4E7022294
:10D37800044BC3F80423D0E784DB002074DB0020CF
:10D38800A4DB0020005000408DF8002000E100E000
:10D3980008B507480DF0D2FB38B10648FFF77AFC0C
:10D3A8000448FDF7EFFE002008BD6FF01200FBE710
:10D3B80098BF0200C1D301000A2838B50446074DBA
:10D3C80004D1AB680D2128465B689847AB680348D1
:10D3D8005B68E1B29847204638BD00BF98BF02009D
:10D3E80038B545682B69B3B11035284604F0AAFD55
:10D3F800044680B90146284604F068FD084B984267
:10D408000BD122462846074904F036FD224605215D
:10D418003120FFF74DF9002038BD6FF00400FBE71D
:10D428000000AD0B31D40100430970B507D10B4B97
:10D43800596821B101250C68094E854001B970BDB4
:10D448008A682A4002D030464B6898471CB1236846
:10D4580021461C46F2E72346FAE700BFDCDB002042
:10D468005CBF02002DE9F04340F206354668D0065D
:10D4780048BF0320337B02EA050558BFC2F34010BA
:10D4880087B001F01F07B5F5837F144647EA4317B5
:10D498008DF8030041D00FD8062D18D007D8B5B1A4
:10D4A800022D3CD06FF0150007B0BDE8F083B5F54C
:10D4B800807FF7D101250AE040F20222954230D060
:10D4C800B5F5407F2FD0B5F5007FEBD102252203BB
:10D4D8002BD5012372688B409360326962BB07F0D9
:10D4E8001F037F0975D13D4A84F4803102EB830222
:10D4F800D2F80032C1F30041C4F3404423F4E1639D
:10D5080044EA410423F007031C4344EA800444EA44
:10D518000524C2F800420020C6E70725D7E70425FE
:10D52800D5E70525D3E70325D1E7630341BF0123E9
:10D5380072688B40D360D0E71036394630460DF11B
:10D54800020204F0A7FC14F4403F80460CD139468F
:10D5580030460CF094F9224B9845DCD130469DF8C2
:10D56800021004F0FDFCD6E74FF0000901AB394684
:10D57800304603AACDE90439CDE90199CDF80C90DC
:10D5880004F0E6FA164B98428CD114F4003315D007
:10D598009DF8033084F48034C4F300448DF80E30D1
:10D5A80039464B46304603AA8DF80C508DF80D408D
:10D5B80004F0CAFB0A4B9842CDD073E7CDE9043397
:10D5C80039460DF10303304603AA039304F0C0FA69
:10D5D800F0E7803352F82330FFDE00BF0025844097
:10D5E8000000AD0BF0B5406801F01F04057B87B063
:10D5F80044EA45140569002D5FD0B2F5001F00F11B
:10D60800100506D1214628460CF03BF9002007B04A
:10D61800F0BD0027B2F5800F01AE0197776037D1D2
:10D62800B3F1007F14BF052304238DF804300023D1
:10D63800CDE904630393836823FA01F111F0010132
:10D6480018D1B2F1A07F15D104F01F03620903F1CC
:10D65800800338D11D4A52F82330DB070AD40DF174
:10D66800030632462146284604F014FC184B98421B
:10D6780019D002962146284603AA04F069FA154BE8
:10D6880098421DD101222146284604F081FCBDE7BD
:10D69800B3F1C06F05D0B3F1007F14BF012302239B
:10D6A800C3E70323C1E73146284604F065FC094B6C
:10D6B8009842DED06FF00B00A9E76FF08500A6E76F
:10D6C8006FF01500A3E751F82330FFDE00258440F2
:10D6D8000400AD0B0000AD0B2DE9F04740F2FF163A
:10D6E800594FDFF868C1DFF868E100EB810181423A
:10D6F80002D10020BDE8F087046814F4804FC4F319
:10D70800C325C4F3080340F08C80640CB34208BFFF
:10D718004FF0FF337D5D192C00F28680DFE804F0BE
:10D728000D13191C1F251C8484848436608484840A
:10D7380084848484848463787B7EC2F80C355C1C82
:10D748005BD10430D3E7C2F814355C1CF9D000244F
:10D758005CE0C2F80835F2E7C2F81035F5E75C1C62
:10D76800C2F80835EDD0002404E05C1CC2F80C3582
:10D77800E7D001245FEA531859D14FF00109DFF8C7
:10D78800CC8009FA03FAC8F80CA008E0C2F80835FA
:10D79800002DDAD15C1CD4D000240625A146D0F88F
:10D7A80000A00AF40048B8F1000F1CBF4FF00009B0
:10D7B800012403F01F085B093FD10CEB8808D8F857
:10D7C8000032CAF3412A03EA0E0343EA8A0343EA12
:10D7D800052343EA090343EA4403C8F80032B0E7E3
:10D7E800C2F80C35D4E7C2F86035B3F1FF3F0468DE
:10D7F800A7D0C4F30044002CBBD05C091AD1012483
:10D80800DFF8488004FA03F9C8F80890A146C6E78B
:10D81800C2F86435E9E7C2F86835E6E7C2F86C355E
:10D82800E3E76FF0150065E76FF0850062E7002316
:10D83800DB60FFDE00239B60FBE7002308F1800824
:10D8480053F82830F5E700BF1AD6020000258440B7
:10D85800F0F8FCFF7FB50BAB05930393054B012252
:10D86800029300231846CDE90033FEF73BF807B0D2
:10D878005DF804FB22D602002DE9F0434FF00008C2
:10D88800476805693C6887B0C4F800852860D7F800
:10D898000C9006464146484605AA0BF0EEF80028CB
:10D8A80038DB059BD9F8002019791868FFF714FFB1
:10D8B80000282FDB6B7A3169012B03D0032B27D18A
:10D8C8004FF01008AB7A032B22D195F80BC0BCF1AE
:10D8D800000F02D0BCF1010F1AD12A7A12B1022A24
:10D8E80016D10E226B687068B3F5164F006800F009
:10D8F80081802DD8B3F5165F7FD016D8B3F5966F13
:10D908007DD00AD8B3F5967F7CD0B3F5167F7CD04E
:10D918006FF0850007B0BDE8F083B3F5166F77D0D8
:10D92800B3F5965FF4D15F4B3EE0B3F5E14F72D0AB
:10D9380007D8B3F5615F70D0B3F5964FE8D15A4B6D
:10D9480032E047F6122E7345E2D14FF400032BE084
:10D95800B3F5613F63D013D8B3F5963F62D009D8C9
:10D968004DF6C02E73455FD0B3F5614FD0D14FF45B
:10D978006B0319E0B3F5E13FCAD14FF0EB7313E045
:10D98800B3F5612F53D009D8DFF83CE1734551D086
:10D99800B3F5E12FBCD14FF0E86305E0DFF82CE1E7
:10D9A8007345B5D14FF08053C0F82435736848EA01
:10D9B8000C081B6842EA0802C3F86C250B1DD5E960
:10D9C800010183E803007B68990742D505F11C0033
:10D9D80003F012FF354B98422FD0354B01220293AA
:10D9E800002334491846CDE90033FFF733FF6FF0C1
:10D9F80004008FE74FF41D03D6E72F4BD4E74FF40D
:10DA08009E23D1E74FF4A033CEE74FF41C33CBE786
:10DA18004FF41D23C8E7294BC6E7294BC4E74FF04D
:10DA28006C73C1E7274BBFE74FF46503BCE74FF0C2
:10DA38007063B9E74FF08063B6E7287F04F10C0202
:10DA480004F590710BF076FE01202B7F984003F0CF
:10DA5800C3FD0823C4F800353B7A53B9C4F8103124
:10DA6800D4F81031AB69C4F834350123C4F838351B
:10DA780023607B6800209A075CBF4FF48073C4F86A
:10DA880004337B68DB0644BF4FF48003C4F80433D7
:10DA98006B69C4F844350123C4F84805A360E36002
:10DAA80038E700BF00B0130000A04E000000AD0B27
:10DAB80022D602007CC202000050270000C0750078
:10DAC80000F03A0000903A0190D0030040420F0065
